{
  "_format": "hh-sol-artifact-1",
  "contractName": "CallFeeAmount",
  "sourceName": "contracts/CallFeeAmount.sol",
  "abi": [
    {
      "inputs": [],
      "name": "BP_DIVISOR",
      "outputs": [
        {
          "internalType": "uint256",
          "name": "",
          "type": "uint256"
        }
      ],
      "stateMutability": "view",
      "type": "function"
    },
    {
      "inputs": [],
      "name": "Factory",
      "outputs": [
        {
          "internalType": "address",
          "name": "",
          "type": "address"
        }
      ],
      "stateMutability": "view",
      "type": "function"
    },
    {
      "inputs": [],
      "name": "RewardToken",
      "outputs": [
        {
          "internalType": "address",
          "name": "",
          "type": "address"
        }
      ],
      "stateMutability": "view",
      "type": "function"
    },
    {
      "inputs": [],
      "name": "WETH",
      "outputs": [
        {
          "internalType": "address",
          "name": "",
          "type": "address"
        }
      ],
      "stateMutability": "view",
      "type": "function"
    },
    {
      "inputs": [
        {
          "internalType": "address",
          "name": "Strategy",
          "type": "address"
        },
        {
          "internalType": "address",
          "name": "StrategyVariables",
          "type": "address"
        }
      ],
      "name": "getCallFeeAmount",
      "outputs": [
        {
          "internalType": "uint256",
          "name": "",
          "type": "uint256"
        }
      ],
      "stateMutability": "view",
      "type": "function"
    }
  ],
  "bytecode": "0x608060405273c778417e063141139fce010982780140aa0cd5ab6000806101000a81548173ffffffffffffffffffffffffffffffffffffffff021916908373ffffffffffffffffffffffffffffffffffffffff1602179055507360781c2586d68229fde47564546784ab3faca982600160006101000a81548173ffffffffffffffffffffffffffffffffffffffff021916908373ffffffffffffffffffffffffffffffffffffffff16021790555073efa94de7a4656d787667c749f7e1223d71e9fd88600260006101000a81548173ffffffffffffffffffffffffffffffffffffffff021916908373ffffffffffffffffffffffffffffffffffffffff16021790555061271060035534801561011457600080fd5b50610b03806101246000396000f3fe608060405234801561001057600080fd5b50600436106100575760003560e01c8063752f74661461005c578063ad5c46481461007a578063c83dd231146100ae578063f026d37e146100e2578063f1e9f1e51461015a575b600080fd5b61006461018e565b6040518082815260200191505060405180910390f35b610082610194565b604051808273ffffffffffffffffffffffffffffffffffffffff16815260200191505060405180910390f35b6100b66101b8565b604051808273ffffffffffffffffffffffffffffffffffffffff16815260200191505060405180910390f35b610144600480360360408110156100f857600080fd5b81019080803573ffffffffffffffffffffffffffffffffffffffff169060200190929190803573ffffffffffffffffffffffffffffffffffffffff1690602001909291905050506101de565b6040518082815260200191505060405180910390f35b6101626103a2565b604051808273ffffffffffffffffffffffffffffffffffffffff16815260200191505060405180910390f35b60035481565b60008054906101000a900473ffffffffffffffffffffffffffffffffffffffff1681565b600260009054906101000a900473ffffffffffffffffffffffffffffffffffffffff1681565b6000808373ffffffffffffffffffffffffffffffffffffffff16632f390dc36040518163ffffffff1660e01b815260040160206040518083038186803b15801561022757600080fd5b505afa15801561023b573d6000803e3d6000fd5b505050506040513d602081101561025157600080fd5b810190808051906020019092919050505090506000806102d6600260009054906101000a900473ffffffffffffffffffffffffffffffffffffffff1660008054906101000a900473ffffffffffffffffffffffffffffffffffffffff16600160009054906101000a900473ffffffffffffffffffffffffffffffffffffffff166103c8565b9150915060006102e78483856104f1565b905060008673ffffffffffffffffffffffffffffffffffffffff1663ecc6f5b66040518163ffffffff1660e01b815260040160206040518083038186803b15801561033157600080fd5b505afa158015610345573d6000803e3d6000fd5b505050506040513d602081101561035b57600080fd5b81019080805190602001909291905050509050610395600354610387838561062190919063ffffffff16565b6106a790919063ffffffff16565b9550505050505092915050565b600160009054906101000a900473ffffffffffffffffffffffffffffffffffffffff1681565b60008060006103d78585610730565b5090506000806103e88888886108c4565b73ffffffffffffffffffffffffffffffffffffffff16630902f1ac6040518163ffffffff1660e01b815260040160606040518083038186803b15801561042d57600080fd5b505afa158015610441573d6000803e3d6000fd5b505050506040513d606081101561045757600080fd5b81019080805190602001909291908051906020019092919080519060200190929190505050506dffffffffffffffffffffffffffff1691506dffffffffffffffffffffffffffff1691508273ffffffffffffffffffffffffffffffffffffffff168773ffffffffffffffffffffffffffffffffffffffff16146104db5780826104de565b81815b8095508196505050505050935093915050565b600080841161054b576040517f08c379a0000000000000000000000000000000000000000000000000000000008152600401808060200182810382526025815260200180610a876025913960400191505060405180910390fd5b60008311801561055b5750600082115b6105b0576040517f08c379a0000000000000000000000000000000000000000000000000000000008152600401808060200182810382526022815260200180610aac6022913960400191505060405180910390fd5b60006105c76103e58661062190919063ffffffff16565b905060006105de848361062190919063ffffffff16565b90506000610609836105fb6103e88961062190919063ffffffff16565b6109dd90919063ffffffff16565b905080828161061457fe5b0493505050509392505050565b60008083141561063457600090506106a1565b600082840290508284828161064557fe5b041461069c576040517f08c379a0000000000000000000000000000000000000000000000000000000008152600401808060200182810382526021815260200180610a666021913960400191505060405180910390fd5b809150505b92915050565b600080821161071e576040517f08c379a000000000000000000000000000000000000000000000000000000000815260040180806020018281038252601a8152602001807f536166654d6174683a206469766973696f6e206279207a65726f00000000000081525060200191505060405180910390fd5b81838161072757fe5b04905092915050565b6000808273ffffffffffffffffffffffffffffffffffffffff168473ffffffffffffffffffffffffffffffffffffffff1614156107d5576040517f08c379a000000000000000000000000000000000000000000000000000000000815260040180806020018281038252601f8152602001807f414d4d4c6962726172793a204944454e544943414c5f4144445245535345530081525060200191505060405180910390fd5b8273ffffffffffffffffffffffffffffffffffffffff168473ffffffffffffffffffffffffffffffffffffffff161061080f578284610812565b83835b8092508193505050600073ffffffffffffffffffffffffffffffffffffffff168273ffffffffffffffffffffffffffffffffffffffff1614156108bd576040517f08c379a00000000000000000000000000000000000000000000000000000000081526004018080602001828103825260188152602001807f414d4d4c6962726172793a205a45524f5f41444452455353000000000000000081525060200191505060405180910390fd5b9250929050565b60008060006108d38585610730565b91509150858282604051602001808373ffffffffffffffffffffffffffffffffffffffff1660601b81526014018273ffffffffffffffffffffffffffffffffffffffff1660601b8152601401925050506040516020818303038152906040528051906020012060405160200180807fff000000000000000000000000000000000000000000000000000000000000008152506001018373ffffffffffffffffffffffffffffffffffffffff1660601b8152601401828152602001807f40231f6b438bce0797c9ada29b718a87ea0a5cea3fe9a771abdd76bd41a3e545815250602001925050506040516020818303038152906040528051906020012060001c925050509392505050565b600080828401905083811015610a5b576040517f08c379a000000000000000000000000000000000000000000000000000000000815260040180806020018281038252601b8152602001807f536166654d6174683a206164646974696f6e206f766572666c6f77000000000081525060200191505060405180910390fd5b809150509291505056fe536166654d6174683a206d756c7469706c69636174696f6e206f766572666c6f77414d4d4c6962726172793a20494e53554646494349454e545f494e5055545f414d4f554e54414d4d4c6962726172793a20494e53554646494349454e545f4c4951554944495459a26469706673582212205fa2b7cad0bbc4b4219dc4a8299340e14aecc51ae42a32cef4be82abb097dd2864736f6c634300060c0033",
  "linkReferences": {},
  "deployedLinkReferences": {}
}