{
  "_format": "hh-sol-artifact-1",
  "contractName": "PriceHelperV2",
  "sourceName": "contracts/PriceHelperV2.sol",
  "abi": [
    {
      "inputs": [],
      "name": "Factory",
      "outputs": [
        {
          "internalType": "address",
          "name": "",
          "type": "address"
        }
      ],
      "stateMutability": "view",
      "type": "function"
    },
    {
      "inputs": [],
      "name": "USDTe",
      "outputs": [
        {
          "internalType": "address",
          "name": "",
          "type": "address"
        }
      ],
      "stateMutability": "view",
      "type": "function"
    },
    {
      "inputs": [],
      "name": "WETH",
      "outputs": [
        {
          "internalType": "address",
          "name": "",
          "type": "address"
        }
      ],
      "stateMutability": "view",
      "type": "function"
    },
    {
      "inputs": [
        {
          "internalType": "uint256",
          "name": "amountWETH",
          "type": "uint256"
        }
      ],
      "name": "getETHtoUSD",
      "outputs": [
        {
          "internalType": "uint256",
          "name": "",
          "type": "uint256"
        }
      ],
      "stateMutability": "view",
      "type": "function"
    }
  ],
  "bytecode": "0x608060405273c778417e063141139fce010982780140aa0cd5ab6000806101000a81548173ffffffffffffffffffffffffffffffffffffffff021916908373ffffffffffffffffffffffffffffffffffffffff160217905550733b00ef435fa4fcff5c209a37d1f3dcff37c705ad600160006101000a81548173ffffffffffffffffffffffffffffffffffffffff021916908373ffffffffffffffffffffffffffffffffffffffff160217905550735c69bee701ef814a2b6a3edd4b1652cb9cc5aa6f600260006101000a81548173ffffffffffffffffffffffffffffffffffffffff021916908373ffffffffffffffffffffffffffffffffffffffff16021790555034801561010e57600080fd5b506108c48061011e6000396000f3fe608060405234801561001057600080fd5b506004361061004c5760003560e01c806321ccf4bc14610051578063ad5c464814610093578063b70b23a3146100c7578063c83dd231146100fb575b600080fd5b61007d6004803603602081101561006757600080fd5b810190808035906020019092919050505061012f565b6040518082815260200191505060405180910390f35b61009b6101f5565b604051808273ffffffffffffffffffffffffffffffffffffffff16815260200191505060405180910390f35b6100cf610219565b604051808273ffffffffffffffffffffffffffffffffffffffff16815260200191505060405180910390f35b61010361023f565b604051808273ffffffffffffffffffffffffffffffffffffffff16815260200191505060405180910390f35b60008060006101a3600260009054906101000a900473ffffffffffffffffffffffffffffffffffffffff1660008054906101000a900473ffffffffffffffffffffffffffffffffffffffff16600160009054906101000a900473ffffffffffffffffffffffffffffffffffffffff16610265565b9150915060006101bc670de0b6b3a7640000848461038e565b90506101eb670de0b6b3a76400006101dd838861048f90919063ffffffff16565b61051590919063ffffffff16565b9350505050919050565b60008054906101000a900473ffffffffffffffffffffffffffffffffffffffff1681565b600160009054906101000a900473ffffffffffffffffffffffffffffffffffffffff1681565b600260009054906101000a900473ffffffffffffffffffffffffffffffffffffffff1681565b6000806000610274858561059e565b509050600080610285888888610732565b73ffffffffffffffffffffffffffffffffffffffff16630902f1ac6040518163ffffffff1660e01b815260040160606040518083038186803b1580156102ca57600080fd5b505afa1580156102de573d6000803e3d6000fd5b505050506040513d60608110156102f457600080fd5b81019080805190602001909291908051906020019092919080519060200190929190505050506dffffffffffffffffffffffffffff1691506dffffffffffffffffffffffffffff1691508273ffffffffffffffffffffffffffffffffffffffff168773ffffffffffffffffffffffffffffffffffffffff161461037857808261037b565b81815b8095508196505050505050935093915050565b6000808411610405576040517f08c379a000000000000000000000000000000000000000000000000000000000815260040180806020018281038252601f8152602001807f414d4d4c6962726172793a20494e53554646494349454e545f414d4f554e540081525060200191505060405180910390fd5b6000831180156104155750600082115b61046a576040517f08c379a000000000000000000000000000000000000000000000000000000000815260040180806020018281038252602281526020018061086d6022913960400191505060405180910390fd5b8261047e838661048f90919063ffffffff16565b8161048557fe5b0490509392505050565b6000808314156104a2576000905061050f565b60008284029050828482816104b357fe5b041461050a576040517f08c379a000000000000000000000000000000000000000000000000000000000815260040180806020018281038252602181526020018061084c6021913960400191505060405180910390fd5b809150505b92915050565b600080821161058c576040517f08c379a000000000000000000000000000000000000000000000000000000000815260040180806020018281038252601a8152602001807f536166654d6174683a206469766973696f6e206279207a65726f00000000000081525060200191505060405180910390fd5b81838161059557fe5b04905092915050565b6000808273ffffffffffffffffffffffffffffffffffffffff168473ffffffffffffffffffffffffffffffffffffffff161415610643576040517f08c379a000000000000000000000000000000000000000000000000000000000815260040180806020018281038252601f8152602001807f414d4d4c6962726172793a204944454e544943414c5f4144445245535345530081525060200191505060405180910390fd5b8273ffffffffffffffffffffffffffffffffffffffff168473ffffffffffffffffffffffffffffffffffffffff161061067d578284610680565b83835b8092508193505050600073ffffffffffffffffffffffffffffffffffffffff168273ffffffffffffffffffffffffffffffffffffffff16141561072b576040517f08c379a00000000000000000000000000000000000000000000000000000000081526004018080602001828103825260188152602001807f414d4d4c6962726172793a205a45524f5f41444452455353000000000000000081525060200191505060405180910390fd5b9250929050565b6000806000610741858561059e565b91509150858282604051602001808373ffffffffffffffffffffffffffffffffffffffff1660601b81526014018273ffffffffffffffffffffffffffffffffffffffff1660601b8152601401925050506040516020818303038152906040528051906020012060405160200180807fff000000000000000000000000000000000000000000000000000000000000008152506001018373ffffffffffffffffffffffffffffffffffffffff1660601b8152601401828152602001807f40231f6b438bce0797c9ada29b718a87ea0a5cea3fe9a771abdd76bd41a3e545815250602001925050506040516020818303038152906040528051906020012060001c92505050939250505056fe536166654d6174683a206d756c7469706c69636174696f6e206f766572666c6f77414d4d4c6962726172793a20494e53554646494349454e545f4c4951554944495459a264697066735822122075b92811b6a81f6596e5ac627f8705e37da248f5e7f4c70b117abdc6abeb126f64736f6c634300060c0033",
  "linkReferences": {},
  "deployedLinkReferences": {}
}