{
  "_format": "hh-sol-artifact-1",
  "contractName": "CycleVaultxJOE",
  "sourceName": "contracts/vaults/CycleVaultxJOE.sol",
  "abi": [
    {
      "inputs": [],
      "stateMutability": "nonpayable",
      "type": "constructor"
    },
    {
      "anonymous": false,
      "inputs": [
        {
          "indexed": true,
          "internalType": "address",
          "name": "owner",
          "type": "address"
        },
        {
          "indexed": true,
          "internalType": "address",
          "name": "spender",
          "type": "address"
        },
        {
          "indexed": false,
          "internalType": "uint256",
          "name": "value",
          "type": "uint256"
        }
      ],
      "name": "Approval",
      "type": "event"
    },
    {
      "anonymous": false,
      "inputs": [
        {
          "indexed": false,
          "internalType": "address",
          "name": "_contract",
          "type": "address"
        },
        {
          "indexed": false,
          "internalType": "bool",
          "name": "status",
          "type": "bool"
        }
      ],
      "name": "AuthorizedContractsUpdated",
      "type": "event"
    },
    {
      "anonymous": false,
      "inputs": [
        {
          "indexed": false,
          "internalType": "uint256",
          "name": "amountETH",
          "type": "uint256"
        },
        {
          "indexed": false,
          "internalType": "uint256",
          "name": "amountxJOE",
          "type": "uint256"
        },
        {
          "indexed": true,
          "internalType": "address",
          "name": "account",
          "type": "address"
        }
      ],
      "name": "ETHdeposited",
      "type": "event"
    },
    {
      "anonymous": false,
      "inputs": [
        {
          "indexed": false,
          "internalType": "uint256",
          "name": "amountETH",
          "type": "uint256"
        },
        {
          "indexed": false,
          "internalType": "uint256",
          "name": "amountxJOE",
          "type": "uint256"
        },
        {
          "indexed": true,
          "internalType": "address",
          "name": "account",
          "type": "address"
        }
      ],
      "name": "ETHwithdrawn",
      "type": "event"
    },
    {
      "anonymous": false,
      "inputs": [
        {
          "indexed": true,
          "internalType": "address",
          "name": "previousOwner",
          "type": "address"
        },
        {
          "indexed": true,
          "internalType": "address",
          "name": "newOwner",
          "type": "address"
        }
      ],
      "name": "OwnershipTransferred",
      "type": "event"
    },
    {
      "anonymous": false,
      "inputs": [
        {
          "indexed": false,
          "internalType": "address",
          "name": "account",
          "type": "address"
        }
      ],
      "name": "Paused",
      "type": "event"
    },
    {
      "anonymous": false,
      "inputs": [
        {
          "indexed": false,
          "internalType": "uint256",
          "name": "amountxJOE",
          "type": "uint256"
        },
        {
          "indexed": true,
          "internalType": "address",
          "name": "caller",
          "type": "address"
        }
      ],
      "name": "Reinvest",
      "type": "event"
    },
    {
      "anonymous": false,
      "inputs": [
        {
          "indexed": true,
          "internalType": "address",
          "name": "from",
          "type": "address"
        },
        {
          "indexed": true,
          "internalType": "address",
          "name": "to",
          "type": "address"
        },
        {
          "indexed": false,
          "internalType": "uint256",
          "name": "value",
          "type": "uint256"
        }
      ],
      "name": "Transfer",
      "type": "event"
    },
    {
      "anonymous": false,
      "inputs": [
        {
          "indexed": false,
          "internalType": "address",
          "name": "account",
          "type": "address"
        }
      ],
      "name": "Unpaused",
      "type": "event"
    },
    {
      "anonymous": false,
      "inputs": [
        {
          "indexed": false,
          "internalType": "uint256",
          "name": "amountxJOE",
          "type": "uint256"
        },
        {
          "indexed": true,
          "internalType": "address",
          "name": "account",
          "type": "address"
        }
      ],
      "name": "XJOEdeposited",
      "type": "event"
    },
    {
      "anonymous": false,
      "inputs": [
        {
          "indexed": false,
          "internalType": "uint256",
          "name": "amountxJOE",
          "type": "uint256"
        },
        {
          "indexed": true,
          "internalType": "address",
          "name": "account",
          "type": "address"
        }
      ],
      "name": "XJOEwithdrawn",
      "type": "event"
    },
    {
      "inputs": [],
      "name": "BP_DIV",
      "outputs": [
        {
          "internalType": "uint256",
          "name": "",
          "type": "uint256"
        }
      ],
      "stateMutability": "view",
      "type": "function"
    },
    {
      "inputs": [],
      "name": "Factory",
      "outputs": [
        {
          "internalType": "address",
          "name": "",
          "type": "address"
        }
      ],
      "stateMutability": "view",
      "type": "function"
    },
    {
      "inputs": [],
      "name": "JOE",
      "outputs": [
        {
          "internalType": "address",
          "name": "",
          "type": "address"
        }
      ],
      "stateMutability": "view",
      "type": "function"
    },
    {
      "inputs": [
        {
          "internalType": "uint256",
          "name": "",
          "type": "uint256"
        }
      ],
      "name": "JOEtoWETH",
      "outputs": [
        {
          "internalType": "address",
          "name": "",
          "type": "address"
        }
      ],
      "stateMutability": "view",
      "type": "function"
    },
    {
      "inputs": [],
      "name": "MasterChef",
      "outputs": [
        {
          "internalType": "address",
          "name": "",
          "type": "address"
        }
      ],
      "stateMutability": "view",
      "type": "function"
    },
    {
      "inputs": [],
      "name": "ProtocolAddresses",
      "outputs": [
        {
          "internalType": "address",
          "name": "",
          "type": "address"
        }
      ],
      "stateMutability": "view",
      "type": "function"
    },
    {
      "inputs": [],
      "name": "Router",
      "outputs": [
        {
          "internalType": "address",
          "name": "",
          "type": "address"
        }
      ],
      "stateMutability": "view",
      "type": "function"
    },
    {
      "inputs": [],
      "name": "StrategyVariables",
      "outputs": [
        {
          "internalType": "address",
          "name": "",
          "type": "address"
        }
      ],
      "stateMutability": "view",
      "type": "function"
    },
    {
      "inputs": [],
      "name": "VaultRewards",
      "outputs": [
        {
          "internalType": "address",
          "name": "",
          "type": "address"
        }
      ],
      "stateMutability": "view",
      "type": "function"
    },
    {
      "inputs": [],
      "name": "WETH",
      "outputs": [
        {
          "internalType": "address",
          "name": "",
          "type": "address"
        }
      ],
      "stateMutability": "view",
      "type": "function"
    },
    {
      "inputs": [
        {
          "internalType": "uint256",
          "name": "",
          "type": "uint256"
        }
      ],
      "name": "WETHtoJOE",
      "outputs": [
        {
          "internalType": "address",
          "name": "",
          "type": "address"
        }
      ],
      "stateMutability": "view",
      "type": "function"
    },
    {
      "inputs": [
        {
          "internalType": "address",
          "name": "account",
          "type": "address"
        }
      ],
      "name": "accountShareBalance",
      "outputs": [
        {
          "internalType": "uint256",
          "name": "",
          "type": "uint256"
        }
      ],
      "stateMutability": "view",
      "type": "function"
    },
    {
      "inputs": [
        {
          "internalType": "address",
          "name": "owner",
          "type": "address"
        },
        {
          "internalType": "address",
          "name": "spender",
          "type": "address"
        }
      ],
      "name": "allowance",
      "outputs": [
        {
          "internalType": "uint256",
          "name": "",
          "type": "uint256"
        }
      ],
      "stateMutability": "view",
      "type": "function"
    },
    {
      "inputs": [
        {
          "internalType": "address",
          "name": "spender",
          "type": "address"
        },
        {
          "internalType": "uint256",
          "name": "amount",
          "type": "uint256"
        }
      ],
      "name": "approve",
      "outputs": [
        {
          "internalType": "bool",
          "name": "",
          "type": "bool"
        }
      ],
      "stateMutability": "nonpayable",
      "type": "function"
    },
    {
      "inputs": [
        {
          "internalType": "address",
          "name": "",
          "type": "address"
        }
      ],
      "name": "authorizedContracts",
      "outputs": [
        {
          "internalType": "bool",
          "name": "",
          "type": "bool"
        }
      ],
      "stateMutability": "view",
      "type": "function"
    },
    {
      "inputs": [],
      "name": "balanceJOE",
      "outputs": [
        {
          "internalType": "uint256",
          "name": "",
          "type": "uint256"
        }
      ],
      "stateMutability": "view",
      "type": "function"
    },
    {
      "inputs": [],
      "name": "balanceLPinSystem",
      "outputs": [
        {
          "internalType": "uint256",
          "name": "",
          "type": "uint256"
        }
      ],
      "stateMutability": "view",
      "type": "function"
    },
    {
      "inputs": [
        {
          "internalType": "address",
          "name": "account",
          "type": "address"
        }
      ],
      "name": "balanceOf",
      "outputs": [
        {
          "internalType": "uint256",
          "name": "",
          "type": "uint256"
        }
      ],
      "stateMutability": "view",
      "type": "function"
    },
    {
      "inputs": [],
      "name": "balancexJOE",
      "outputs": [
        {
          "internalType": "uint256",
          "name": "",
          "type": "uint256"
        }
      ],
      "stateMutability": "view",
      "type": "function"
    },
    {
      "inputs": [],
      "name": "balancexJOEinMasterChef",
      "outputs": [
        {
          "internalType": "uint256",
          "name": "amount",
          "type": "uint256"
        }
      ],
      "stateMutability": "view",
      "type": "function"
    },
    {
      "inputs": [],
      "name": "balancexJOEinSystem",
      "outputs": [
        {
          "internalType": "uint256",
          "name": "",
          "type": "uint256"
        }
      ],
      "stateMutability": "view",
      "type": "function"
    },
    {
      "inputs": [],
      "name": "decimals",
      "outputs": [
        {
          "internalType": "uint8",
          "name": "",
          "type": "uint8"
        }
      ],
      "stateMutability": "view",
      "type": "function"
    },
    {
      "inputs": [],
      "name": "decommission",
      "outputs": [],
      "stateMutability": "nonpayable",
      "type": "function"
    },
    {
      "inputs": [
        {
          "internalType": "address",
          "name": "spender",
          "type": "address"
        },
        {
          "internalType": "uint256",
          "name": "subtractedValue",
          "type": "uint256"
        }
      ],
      "name": "decreaseAllowance",
      "outputs": [
        {
          "internalType": "bool",
          "name": "",
          "type": "bool"
        }
      ],
      "stateMutability": "nonpayable",
      "type": "function"
    },
    {
      "inputs": [],
      "name": "depositETH",
      "outputs": [],
      "stateMutability": "payable",
      "type": "function"
    },
    {
      "inputs": [
        {
          "internalType": "uint256",
          "name": "amount",
          "type": "uint256"
        }
      ],
      "name": "depositLP",
      "outputs": [],
      "stateMutability": "nonpayable",
      "type": "function"
    },
    {
      "inputs": [
        {
          "internalType": "uint256",
          "name": "amountxJOE",
          "type": "uint256"
        }
      ],
      "name": "depositxJOE",
      "outputs": [],
      "stateMutability": "nonpayable",
      "type": "function"
    },
    {
      "inputs": [
        {
          "internalType": "uint256",
          "name": "amountLP",
          "type": "uint256"
        }
      ],
      "name": "getETHamountForLPamount",
      "outputs": [
        {
          "internalType": "uint256",
          "name": "",
          "type": "uint256"
        }
      ],
      "stateMutability": "view",
      "type": "function"
    },
    {
      "inputs": [
        {
          "internalType": "uint256",
          "name": "amountxJOE",
          "type": "uint256"
        }
      ],
      "name": "getETHamountForxJOEamount",
      "outputs": [
        {
          "internalType": "uint256",
          "name": "amountETH",
          "type": "uint256"
        }
      ],
      "stateMutability": "view",
      "type": "function"
    },
    {
      "inputs": [
        {
          "internalType": "uint256",
          "name": "amountLP",
          "type": "uint256"
        }
      ],
      "name": "getETHquoteForLPamount",
      "outputs": [
        {
          "internalType": "uint256",
          "name": "",
          "type": "uint256"
        }
      ],
      "stateMutability": "view",
      "type": "function"
    },
    {
      "inputs": [
        {
          "internalType": "uint256",
          "name": "amountxJOE",
          "type": "uint256"
        }
      ],
      "name": "getETHquoteForxJOEamount",
      "outputs": [
        {
          "internalType": "uint256",
          "name": "amountETH",
          "type": "uint256"
        }
      ],
      "stateMutability": "view",
      "type": "function"
    },
    {
      "inputs": [
        {
          "internalType": "uint256",
          "name": "shares",
          "type": "uint256"
        }
      ],
      "name": "getLPamountForShares",
      "outputs": [
        {
          "internalType": "uint256",
          "name": "",
          "type": "uint256"
        }
      ],
      "stateMutability": "view",
      "type": "function"
    },
    {
      "inputs": [],
      "name": "getRewardsEarned",
      "outputs": [
        {
          "internalType": "uint256",
          "name": "",
          "type": "uint256"
        }
      ],
      "stateMutability": "view",
      "type": "function"
    },
    {
      "inputs": [
        {
          "internalType": "uint256",
          "name": "shares",
          "type": "uint256"
        }
      ],
      "name": "getxJOEamountForShares",
      "outputs": [
        {
          "internalType": "uint256",
          "name": "",
          "type": "uint256"
        }
      ],
      "stateMutability": "view",
      "type": "function"
    },
    {
      "inputs": [],
      "name": "harvest",
      "outputs": [],
      "stateMutability": "nonpayable",
      "type": "function"
    },
    {
      "inputs": [
        {
          "internalType": "address",
          "name": "spender",
          "type": "address"
        },
        {
          "internalType": "uint256",
          "name": "addedValue",
          "type": "uint256"
        }
      ],
      "name": "increaseAllowance",
      "outputs": [
        {
          "internalType": "bool",
          "name": "",
          "type": "bool"
        }
      ],
      "stateMutability": "nonpayable",
      "type": "function"
    },
    {
      "inputs": [],
      "name": "name",
      "outputs": [
        {
          "internalType": "string",
          "name": "",
          "type": "string"
        }
      ],
      "stateMutability": "view",
      "type": "function"
    },
    {
      "inputs": [],
      "name": "owner",
      "outputs": [
        {
          "internalType": "address",
          "name": "",
          "type": "address"
        }
      ],
      "stateMutability": "view",
      "type": "function"
    },
    {
      "inputs": [],
      "name": "paused",
      "outputs": [
        {
          "internalType": "bool",
          "name": "",
          "type": "bool"
        }
      ],
      "stateMutability": "view",
      "type": "function"
    },
    {
      "inputs": [],
      "name": "poolID",
      "outputs": [
        {
          "internalType": "uint256",
          "name": "",
          "type": "uint256"
        }
      ],
      "stateMutability": "view",
      "type": "function"
    },
    {
      "inputs": [],
      "name": "reinvest",
      "outputs": [],
      "stateMutability": "nonpayable",
      "type": "function"
    },
    {
      "inputs": [],
      "name": "renounceOwnership",
      "outputs": [],
      "stateMutability": "nonpayable",
      "type": "function"
    },
    {
      "inputs": [],
      "name": "rewardsSet",
      "outputs": [
        {
          "internalType": "bool",
          "name": "",
          "type": "bool"
        }
      ],
      "stateMutability": "view",
      "type": "function"
    },
    {
      "inputs": [
        {
          "internalType": "address",
          "name": "_contract",
          "type": "address"
        },
        {
          "internalType": "bool",
          "name": "status",
          "type": "bool"
        }
      ],
      "name": "setAuthorizedContracts",
      "outputs": [],
      "stateMutability": "nonpayable",
      "type": "function"
    },
    {
      "inputs": [
        {
          "internalType": "address",
          "name": "_VaultRewards",
          "type": "address"
        }
      ],
      "name": "setVaultRewards",
      "outputs": [],
      "stateMutability": "nonpayable",
      "type": "function"
    },
    {
      "inputs": [],
      "name": "symbol",
      "outputs": [
        {
          "internalType": "string",
          "name": "",
          "type": "string"
        }
      ],
      "stateMutability": "view",
      "type": "function"
    },
    {
      "inputs": [],
      "name": "totalSupply",
      "outputs": [
        {
          "internalType": "uint256",
          "name": "",
          "type": "uint256"
        }
      ],
      "stateMutability": "view",
      "type": "function"
    },
    {
      "inputs": [
        {
          "internalType": "address",
          "name": "recipient",
          "type": "address"
        },
        {
          "internalType": "uint256",
          "name": "amount",
          "type": "uint256"
        }
      ],
      "name": "transfer",
      "outputs": [
        {
          "internalType": "bool",
          "name": "",
          "type": "bool"
        }
      ],
      "stateMutability": "nonpayable",
      "type": "function"
    },
    {
      "inputs": [
        {
          "internalType": "address",
          "name": "sender",
          "type": "address"
        },
        {
          "internalType": "address",
          "name": "recipient",
          "type": "address"
        },
        {
          "internalType": "uint256",
          "name": "amount",
          "type": "uint256"
        }
      ],
      "name": "transferFrom",
      "outputs": [
        {
          "internalType": "bool",
          "name": "",
          "type": "bool"
        }
      ],
      "stateMutability": "nonpayable",
      "type": "function"
    },
    {
      "inputs": [
        {
          "internalType": "address",
          "name": "newOwner",
          "type": "address"
        }
      ],
      "name": "transferOwnership",
      "outputs": [],
      "stateMutability": "nonpayable",
      "type": "function"
    },
    {
      "inputs": [
        {
          "internalType": "uint256",
          "name": "sharesToWithdraw",
          "type": "uint256"
        }
      ],
      "name": "withdraWETH",
      "outputs": [],
      "stateMutability": "nonpayable",
      "type": "function"
    },
    {
      "inputs": [
        {
          "internalType": "uint256",
          "name": "sharesToWithdraw",
          "type": "uint256"
        }
      ],
      "name": "withdrawLP",
      "outputs": [],
      "stateMutability": "nonpayable",
      "type": "function"
    },
    {
      "inputs": [
        {
          "internalType": "uint256",
          "name": "sharesToWithdraw",
          "type": "uint256"
        }
      ],
      "name": "withdrawxJOE",
      "outputs": [],
      "stateMutability": "nonpayable",
      "type": "function"
    },
    {
      "inputs": [],
      "name": "xJOE",
      "outputs": [
        {
          "internalType": "address",
          "name": "",
          "type": "address"
        }
      ],
      "stateMutability": "view",
      "type": "function"
    },
    {
      "inputs": [
        {
          "internalType": "uint256",
          "name": "amountxJOE",
          "type": "uint256"
        }
      ],
      "name": "xJOEtoJOE",
      "outputs": [
        {
          "internalType": "uint256",
          "name": "amountJOE",
          "type": "uint256"
        }
      ],
      "stateMutability": "view",
      "type": "function"
    },
    {
      "stateMutability": "payable",
      "type": "receive"
    }
  ],
  "bytecode": "0x6080604052604051806040016040528073c778417e063141139fce010982780140aa0cd5ab73ffffffffffffffffffffffffffffffffffffffff1673ffffffffffffffffffffffffffffffffffffffff168152602001736e84a6216ea6dacc71ee8e6b0a5b7322eebc0fdd73ffffffffffffffffffffffffffffffffffffffff1673ffffffffffffffffffffffffffffffffffffffff168152506008906002620000ab92919062000be6565b506040518060400160405280736e84a6216ea6dacc71ee8e6b0a5b7322eebc0fdd73ffffffffffffffffffffffffffffffffffffffff1673ffffffffffffffffffffffffffffffffffffffff16815260200173c778417e063141139fce010982780140aa0cd5ab73ffffffffffffffffffffffffffffffffffffffff1673ffffffffffffffffffffffffffffffffffffffff1681525060099060026200015392919062000be6565b503480156200016157600080fd5b506040518060400160405280602081526020017f4379636c655661756c74536861726573285472616465724a6f652d784a4f45298152506040518060400160405280600581526020017f6379564c540000000000000000000000000000000000000000000000000000008152508160039080519060200190620001e692919062000c75565b508060049080519060200190620001ff92919062000c75565b506012600560006101000a81548160ff021916908360ff160217905550505060016006819055506000620002386200064c60201b60201c565b905080600760006101000a81548173ffffffffffffffffffffffffffffffffffffffff021916908373ffffffffffffffffffffffffffffffffffffffff1602179055508073ffffffffffffffffffffffffffffffffffffffff16600073ffffffffffffffffffffffffffffffffffffffff167f8be0079c531659141344cd1fd0a4f28419497f9722a3daafe3b4186f6b6457e060405160405180910390a3506000600760146101000a81548160ff0219169083151502179055506200034d7360ae616a2155ee3d9a68541ba4544862310933d4600073c778417e063141139fce010982780140aa0cd5ab73ffffffffffffffffffffffffffffffffffffffff166200065460201b62003d08179092919060201c565b620003c77360ae616a2155ee3d9a68541ba4544862310933d47fffffffffffffffffffffffffffffffffffffffffffffffffffffffffffffffff73c778417e063141139fce010982780140aa0cd5ab73ffffffffffffffffffffffffffffffffffffffff166200065460201b62003d08179092919060201c565b620004227360ae616a2155ee3d9a68541ba4544862310933d46000736e84a6216ea6dacc71ee8e6b0a5b7322eebc0fdd73ffffffffffffffffffffffffffffffffffffffff166200065460201b62003d08179092919060201c565b6200049c7360ae616a2155ee3d9a68541ba4544862310933d47fffffffffffffffffffffffffffffffffffffffffffffffffffffffffffffffff736e84a6216ea6dacc71ee8e6b0a5b7322eebc0fdd73ffffffffffffffffffffffffffffffffffffffff166200065460201b62003d08179092919060201c565b620004f77357319d41f71e81f3c65f2a47ca4e001ebafd4f336000736e84a6216ea6dacc71ee8e6b0a5b7322eebc0fdd73ffffffffffffffffffffffffffffffffffffffff166200065460201b62003d08179092919060201c565b620005717357319d41f71e81f3c65f2a47ca4e001ebafd4f337fffffffffffffffffffffffffffffffffffffffffffffffffffffffffffffffff736e84a6216ea6dacc71ee8e6b0a5b7322eebc0fdd73ffffffffffffffffffffffffffffffffffffffff166200065460201b62003d08179092919060201c565b620005cc73d6a4f121ca35509af06a0be99093d08462f5305260007357319d41f71e81f3c65f2a47ca4e001ebafd4f3373ffffffffffffffffffffffffffffffffffffffff166200065460201b62003d08179092919060201c565b6200064673d6a4f121ca35509af06a0be99093d08462f530527fffffffffffffffffffffffffffffffffffffffffffffffffffffffffffffffff7357319d41f71e81f3c65f2a47ca4e001ebafd4f3373ffffffffffffffffffffffffffffffffffffffff166200065460201b62003d08179092919060201c565b62000d58565b600033905090565b600081148062000726575060008373ffffffffffffffffffffffffffffffffffffffff1663dd62ed3e30856040518363ffffffff1660e01b8152600401808373ffffffffffffffffffffffffffffffffffffffff1681526020018273ffffffffffffffffffffffffffffffffffffffff1681526020019250505060206040518083038186803b158015620006e757600080fd5b505afa158015620006fc573d6000803e3d6000fd5b505050506040513d60208110156200071357600080fd5b8101908080519060200190929190505050145b6200077d576040517f08c379a00000000000000000000000000000000000000000000000000000000081526004018080602001828103825260368152602001806200712d6036913960400191505060405180910390fd5b620008228363095ea7b360e01b8484604051602401808373ffffffffffffffffffffffffffffffffffffffff16815260200182815260200192505050604051602081830303815290604052907bffffffffffffffffffffffffffffffffffffffffffffffffffffffff19166020820180517bffffffffffffffffffffffffffffffffffffffffffffffffffffffff83818316178352505050506200082760201b60201c565b505050565b606062000890826040518060400160405280602081526020017f5361666545524332303a206c6f772d6c6576656c2063616c6c206661696c65648152508573ffffffffffffffffffffffffffffffffffffffff166200092160201b62003ecd179092919060201c565b90506000815111156200091c57808060200190516020811015620008b357600080fd5b81019080805190602001909291905050506200091b576040517f08c379a000000000000000000000000000000000000000000000000000000000815260040180806020018281038252602a81526020018062007103602a913960400191505060405180910390fd5b5b505050565b60606200093884846000856200094160201b60201c565b90509392505050565b6060824710156200099e576040517f08c379a0000000000000000000000000000000000000000000000000000000008152600401808060200182810382526026815260200180620070dd6026913960400191505060405180910390fd5b620009af8562000b0160201b60201c565b62000a22576040517f08c379a000000000000000000000000000000000000000000000000000000000815260040180806020018281038252601d8152602001807f416464726573733a2063616c6c20746f206e6f6e2d636f6e747261637400000081525060200191505060405180910390fd5b600060608673ffffffffffffffffffffffffffffffffffffffff1685876040518082805190602001908083835b6020831062000a74578051825260208201915060208101905060208303925062000a4f565b6001836020036101000a03801982511681845116808217855250505050505090500191505060006040518083038185875af1925050503d806000811462000ad8576040519150601f19603f3d011682016040523d82523d6000602084013e62000add565b606091505b509150915062000af582828662000b1460201b60201c565b92505050949350505050565b600080823b905060008111915050919050565b6060831562000b265782905062000bdf565b60008351111562000b3a5782518084602001fd5b816040517f08c379a00000000000000000000000000000000000000000000000000000000081526004018080602001828103825283818151815260200191508051906020019080838360005b8381101562000ba357808201518184015260208101905062000b86565b50505050905090810190601f16801562000bd15780820380516001836020036101000a031916815260200191505b509250505060405180910390fd5b9392505050565b82805482825590600052602060002090810192821562000c62579160200282015b8281111562000c615782518260006101000a81548173ffffffffffffffffffffffffffffffffffffffff021916908373ffffffffffffffffffffffffffffffffffffffff1602179055509160200191906001019062000c07565b5b50905062000c71919062000cfc565b5090565b828054600181600116156101000203166002900490600052602060002090601f016020900481019282601f1062000cb857805160ff191683800117855562000ce9565b8280016001018555821562000ce9579182015b8281111562000ce857825182559160200191906001019062000ccb565b5b50905062000cf8919062000d39565b5090565b5b8082111562000d3557600081816101000a81549073ffffffffffffffffffffffffffffffffffffffff02191690555060010162000cfd565b5090565b5b8082111562000d5457600081600090555060010162000d3a565b5090565b6163758062000d686000396000f3fe6080604052600436106103545760003560e01c806395d89b41116101c6578063dd62ed3e116100f7578063f49730a911610095578063f756c10a1161006f578063f756c10a146111f1578063fab1e8341461121c578063fdb5a03e14611247578063ffebad301461125e5761035b565b8063f49730a914611141578063f6326fb3146111a6578063f6d7eade146111b05761035b565b8063e4456ecb116100d1578063e4456ecb14611039578063e9ea46c714611074578063eb37acfc146110b5578063f2fde38b146110f05761035b565b8063dd62ed3e14610f3a578063de5d36e214610fbf578063e0cd8b611461100e5761035b565b8063c4c7307711610164578063cfa8586d1161013e578063cfa8586d14610e40578063d5b9221b14610e6d578063d6fddef614610ed4578063da5c806914610f0f5761035b565b8063c4c7307714610d59578063c83dd23114610dbe578063c9f801c714610dff5761035b565b8063a88f7133116101a0578063a88f713314610bf3578063a9059cbb14610c58578063ad5c464814610cc9578063bb44da6614610d0a5761035b565b806395d89b4114610aa35780639d1daa5814610b33578063a457c2d714610b825761035b565b80635a3f22d9116102a057806382d6020a1161023e5780638b149f4e116102185780638b149f4e146109bb5780638d934485146109f65780638da5cb5b14610a2157806391dcd7a714610a625761035b565b806382d6020a146108e05780638acdc34b1461091b5780638ade46491461096c5761035b565b806370a082311161027a57806370a08231146107fe578063715018a6146108635780637f068c0f1461087a57806381ca40e9146108915761035b565b80635a3f22d9146107415780635c975abb1461079057806369d463d5146107bd5761035b565b806323b872dd1161030d578063313ce567116102e7578063313ce5671461066057806336dd10481461068e57806339509351146106b95780634641257d1461072a5761035b565b806323b872dd146105795780632f390dc31461060a578063305c12cf146106355761035b565b80630228b7241461036057806306fdde03146103bd578063095ea7b31461044d5780630c9342b3146104be57806318160ddd146104ff57806322701a5e1461052a5761035b565b3661035b57005b600080fd5b34801561036c57600080fd5b506103bb6004803603604081101561038357600080fd5b81019080803573ffffffffffffffffffffffffffffffffffffffff16906020019092919080351515906020019092919050505061129f565b005b3480156103c957600080fd5b506103d2611400565b6040518080602001828103825283818151815260200191508051906020019080838360005b838110156104125780820151818401526020810190506103f7565b50505050905090810190601f16801561043f5780820380516001836020036101000a031916815260200191505b509250505060405180910390f35b34801561045957600080fd5b506104a66004803603604081101561047057600080fd5b81019080803573ffffffffffffffffffffffffffffffffffffffff169060200190929190803590602001909291905050506114a2565b60405180821515815260200191505060405180910390f35b3480156104ca57600080fd5b506104d36114c0565b604051808273ffffffffffffffffffffffffffffffffffffffff16815260200191505060405180910390f35b34801561050b57600080fd5b506105146114d8565b6040518082815260200191505060405180910390f35b34801561053657600080fd5b506105636004803603602081101561054d57600080fd5b81019080803590602001909291905050506114e2565b6040518082815260200191505060405180910390f35b34801561058557600080fd5b506105f26004803603606081101561059c57600080fd5b81019080803573ffffffffffffffffffffffffffffffffffffffff169060200190929190803573ffffffffffffffffffffffffffffffffffffffff16906020019092919080359060200190929190505050611678565b60405180821515815260200191505060405180910390f35b34801561061657600080fd5b5061061f611751565b6040518082815260200191505060405180910390f35b34801561064157600080fd5b5061064a611917565b6040518082815260200191505060405180910390f35b34801561066c57600080fd5b506106756119e9565b604051808260ff16815260200191505060405180910390f35b34801561069a57600080fd5b506106a3611a00565b6040518082815260200191505060405180910390f35b3480156106c557600080fd5b50610712600480360360408110156106dc57600080fd5b81019080803573ffffffffffffffffffffffffffffffffffffffff16906020019092919080359060200190929190505050611a0f565b60405180821515815260200191505060405180910390f35b34801561073657600080fd5b5061073f611ac2565b005b34801561074d57600080fd5b5061077a6004803603602081101561076457600080fd5b8101908080359060200190929190505050611acc565b6040518082815260200191505060405180910390f35b34801561079c57600080fd5b506107a5611ade565b60405180821515815260200191505060405180910390f35b3480156107c957600080fd5b506107d2611af5565b604051808273ffffffffffffffffffffffffffffffffffffffff16815260200191505060405180910390f35b34801561080a57600080fd5b5061084d6004803603602081101561082157600080fd5b81019080803573ffffffffffffffffffffffffffffffffffffffff169060200190929190505050611b0d565b6040518082815260200191505060405180910390f35b34801561086f57600080fd5b50610878611b55565b005b34801561088657600080fd5b5061088f611cc5565b005b34801561089d57600080fd5b506108ca600480360360208110156108b457600080fd5b8101908080359060200190929190505050611dfe565b6040518082815260200191505060405180910390f35b3480156108ec57600080fd5b506109196004803603602081101561090357600080fd5b8101908080359060200190929190505050611e82565b005b34801561092757600080fd5b5061096a6004803603602081101561093e57600080fd5b81019080803573ffffffffffffffffffffffffffffffffffffffff16906020019092919050505061217d565b005b34801561097857600080fd5b506109a56004803603602081101561098f57600080fd5b81019080803590602001909291905050506122f1565b6040518082815260200191505060405180910390f35b3480156109c757600080fd5b506109f4600480360360208110156109de57600080fd5b8101908080359060200190929190505050612303565b005b348015610a0257600080fd5b50610a0b6129c0565b6040518082815260200191505060405180910390f35b348015610a2d57600080fd5b50610a366129c5565b604051808273ffffffffffffffffffffffffffffffffffffffff16815260200191505060405180910390f35b348015610a6e57600080fd5b50610a776129ef565b604051808273ffffffffffffffffffffffffffffffffffffffff16815260200191505060405180910390f35b348015610aaf57600080fd5b50610ab8612a15565b6040518080602001828103825283818151815260200191508051906020019080838360005b83811015610af8578082015181840152602081019050610add565b50505050905090810190601f168015610b255780820380516001836020036101000a031916815260200191505b509250505060405180910390f35b348015610b3f57600080fd5b50610b6c60048036036020811015610b5657600080fd5b8101908080359060200190929190505050612ab7565b6040518082815260200191505060405180910390f35b348015610b8e57600080fd5b50610bdb60048036036040811015610ba557600080fd5b81019080803573ffffffffffffffffffffffffffffffffffffffff16906020019092919080359060200190929190505050612b10565b60405180821515815260200191505060405180910390f35b348015610bff57600080fd5b50610c4260048036036020811015610c1657600080fd5b81019080803573ffffffffffffffffffffffffffffffffffffffff169060200190929190505050612bdd565b6040518082815260200191505060405180910390f35b348015610c6457600080fd5b50610cb160048036036040811015610c7b57600080fd5b81019080803573ffffffffffffffffffffffffffffffffffffffff16906020019092919080359060200190929190505050612caa565b60405180821515815260200191505060405180910390f35b348015610cd557600080fd5b50610cde612cc8565b604051808273ffffffffffffffffffffffffffffffffffffffff16815260200191505060405180910390f35b348015610d1657600080fd5b50610d4360048036036020811015610d2d57600080fd5b8101908080359060200190929190505050612ce0565b6040518082815260200191505060405180910390f35b348015610d6557600080fd5b50610d9260048036036020811015610d7c57600080fd5b8101908080359060200190929190505050612d64565b604051808273ffffffffffffffffffffffffffffffffffffffff16815260200191505060405180910390f35b348015610dca57600080fd5b50610dd3612da0565b604051808273ffffffffffffffffffffffffffffffffffffffff16815260200191505060405180910390f35b348015610e0b57600080fd5b50610e14612db8565b604051808273ffffffffffffffffffffffffffffffffffffffff16815260200191505060405180910390f35b348015610e4c57600080fd5b50610e55612dd0565b60405180821515815260200191505060405180910390f35b348015610e7957600080fd5b50610ebc60048036036020811015610e9057600080fd5b81019080803573ffffffffffffffffffffffffffffffffffffffff169060200190929190505050612de3565b60405180821515815260200191505060405180910390f35b348015610ee057600080fd5b50610f0d60048036036020811015610ef757600080fd5b8101908080359060200190929190505050612e03565b005b348015610f1b57600080fd5b50610f24613069565b6040518082815260200191505060405180910390f35b348015610f4657600080fd5b50610fa960048036036040811015610f5d57600080fd5b81019080803573ffffffffffffffffffffffffffffffffffffffff169060200190929190803573ffffffffffffffffffffffffffffffffffffffff169060200190929190505050613126565b6040518082815260200191505060405180910390f35b348015610fcb57600080fd5b50610ff860048036036020811015610fe257600080fd5b81019080803590602001909291905050506131ad565b6040518082815260200191505060405180910390f35b34801561101a57600080fd5b506110236131bf565b6040518082815260200191505060405180910390f35b34801561104557600080fd5b506110726004803603602081101561105c57600080fd5b810190808035906020019092919050505061327c565b005b34801561108057600080fd5b50611089613288565b604051808273ffffffffffffffffffffffffffffffffffffffff16815260200191505060405180910390f35b3480156110c157600080fd5b506110ee600480360360208110156110d857600080fd5b81019080803590602001909291905050506132a0565b005b3480156110fc57600080fd5b5061113f6004803603602081101561111357600080fd5b81019080803573ffffffffffffffffffffffffffffffffffffffff1690602001909291905050506132ac565b005b34801561114d57600080fd5b5061117a6004803603602081101561116457600080fd5b81019080803590602001909291905050506134a1565b604051808273ffffffffffffffffffffffffffffffffffffffff16815260200191505060405180910390f35b6111ae6134dd565b005b3480156111bc57600080fd5b506111c5613aac565b604051808273ffffffffffffffffffffffffffffffffffffffff16815260200191505060405180910390f35b3480156111fd57600080fd5b50611206613ac4565b6040518082815260200191505060405180910390f35b34801561122857600080fd5b50611231613aca565b6040518082815260200191505060405180910390f35b34801561125357600080fd5b5061125c613af2565b005b34801561126a57600080fd5b50611273613cf0565b604051808273ffffffffffffffffffffffffffffffffffffffff16815260200191505060405180910390f35b6112a7613ee5565b73ffffffffffffffffffffffffffffffffffffffff166112c56129c5565b73ffffffffffffffffffffffffffffffffffffffff161461134e576040517f08c379a00000000000000000000000000000000000000000000000000000000081526004018080602001828103825260208152602001807f4f776e61626c653a2063616c6c6572206973206e6f7420746865206f776e657281525060200191505060405180910390fd5b80600a60008473ffffffffffffffffffffffffffffffffffffffff1673ffffffffffffffffffffffffffffffffffffffff16815260200190815260200160002060006101000a81548160ff0219169083151502179055507f8371bfb7e09e96bd284cd6ebcd94fb84e7a930dc6e717441494b03f213fe2f348282604051808373ffffffffffffffffffffffffffffffffffffffff16815260200182151581526020019250505060405180910390a15050565b606060038054600181600116156101000203166002900480601f0160208091040260200160405190810160405280929190818152602001828054600181600116156101000203166002900480156114985780601f1061146d57610100808354040283529160200191611498565b820191906000526020600020905b81548152906001019060200180831161147b57829003601f168201915b5050505050905090565b60006114b66114af613ee5565b8484613eed565b6001905092915050565b7357319d41f71e81f3c65f2a47ca4e001ebafd4f3381565b6000600254905090565b600080736e84a6216ea6dacc71ee8e6b0a5b7322eebc0fdd73ffffffffffffffffffffffffffffffffffffffff166370a082317357319d41f71e81f3c65f2a47ca4e001ebafd4f336040518263ffffffff1660e01b8152600401808273ffffffffffffffffffffffffffffffffffffffff16815260200191505060206040518083038186803b15801561157457600080fd5b505afa158015611588573d6000803e3d6000fd5b505050506040513d602081101561159e57600080fd5b8101908080519060200190929190505050905060007357319d41f71e81f3c65f2a47ca4e001ebafd4f3373ffffffffffffffffffffffffffffffffffffffff166318160ddd6040518163ffffffff1660e01b815260040160206040518083038186803b15801561160d57600080fd5b505afa158015611621573d6000803e3d6000fd5b505050506040513d602081101561163757600080fd5b8101908080519060200190929190505050905061166f8161166184876140e490919063ffffffff16565b61416a90919063ffffffff16565b92505050919050565b60006116858484846141f3565b61174684611691613ee5565b611741856040518060600160405280602881526020016161bc60289139600160008b73ffffffffffffffffffffffffffffffffffffffff1673ffffffffffffffffffffffffffffffffffffffff16815260200190815260200160002060006116f7613ee5565b73ffffffffffffffffffffffffffffffffffffffff1673ffffffffffffffffffffffffffffffffffffffff168152602001908152602001600020546144b49092919063ffffffff16565b613eed565b600190509392505050565b60008073d6a4f121ca35509af06a0be99093d08462f5305273ffffffffffffffffffffffffffffffffffffffff1663ffcd42636018306040518363ffffffff1660e01b8152600401808381526020018273ffffffffffffffffffffffffffffffffffffffff1681526020019250505060006040518083038186803b1580156117d857600080fd5b505afa1580156117ec573d6000803e3d6000fd5b505050506040513d6000823e3d601f19601f82011682018060405250608081101561181657600080fd5b8101908080519060200190929190805190602001909291908051604051939291908464010000000082111561184a57600080fd5b8382019150602082018581111561186057600080fd5b825186600182028301116401000000008211171561187d57600080fd5b8083526020830192505050908051906020019080838360005b838110156118b1578082015181840152602081019050611896565b50505050905090810190601f1680156118de5780820380516001836020036101000a031916815260200191505b50604052602001805190602001909291905050505050509050611911611902613069565b8261456e90919063ffffffff16565b91505090565b600073d6a4f121ca35509af06a0be99093d08462f5305273ffffffffffffffffffffffffffffffffffffffff166393f1a40b6018306040518363ffffffff1660e01b8152600401808381526020018273ffffffffffffffffffffffffffffffffffffffff16815260200192505050604080518083038186803b15801561199c57600080fd5b505afa1580156119b0573d6000803e3d6000fd5b505050506040513d60408110156119c657600080fd5b810190808051906020019092919080519060200190929190505050508091505090565b6000600560009054906101000a900460ff16905090565b6000611a0a613aca565b905090565b6000611ab8611a1c613ee5565b84611ab38560016000611a2d613ee5565b73ffffffffffffffffffffffffffffffffffffffff1673ffffffffffffffffffffffffffffffffffffffff16815260200190815260200160002060008973ffffffffffffffffffffffffffffffffffffffff1673ffffffffffffffffffffffffffffffffffffffff1681526020019081526020016000205461456e90919063ffffffff16565b613eed565b6001905092915050565b611aca613af2565b565b6000611ad782611dfe565b9050919050565b6000600760149054906101000a900460ff16905090565b73b18dcb184793be39550c6a055338286de94c755d81565b60008060008373ffffffffffffffffffffffffffffffffffffffff1673ffffffffffffffffffffffffffffffffffffffff168152602001908152602001600020549050919050565b611b5d613ee5565b73ffffffffffffffffffffffffffffffffffffffff16611b7b6129c5565b73ffffffffffffffffffffffffffffffffffffffff1614611c04576040517f08c379a00000000000000000000000000000000000000000000000000000000081526004018080602001828103825260208152602001807f4f776e61626c653a2063616c6c6572206973206e6f7420746865206f776e657281525060200191505060405180910390fd5b600073ffffffffffffffffffffffffffffffffffffffff16600760009054906101000a900473ffffffffffffffffffffffffffffffffffffffff1673ffffffffffffffffffffffffffffffffffffffff167f8be0079c531659141344cd1fd0a4f28419497f9722a3daafe3b4186f6b6457e060405160405180910390a36000600760006101000a81548173ffffffffffffffffffffffffffffffffffffffff021916908373ffffffffffffffffffffffffffffffffffffffff160217905550565b611ccd613ee5565b73ffffffffffffffffffffffffffffffffffffffff16611ceb6129c5565b73ffffffffffffffffffffffffffffffffffffffff1614611d74576040517f08c379a00000000000000000000000000000000000000000000000000000000081526004018080602001828103825260208152602001807f4f776e61626c653a2063616c6c6572206973206e6f7420746865206f776e657281525060200191505060405180910390fd5b73d6a4f121ca35509af06a0be99093d08462f5305273ffffffffffffffffffffffffffffffffffffffff16635312ea8e60186040518263ffffffff1660e01b815260040180828152602001915050600060405180830381600087803b158015611ddc57600080fd5b505af1158015611df0573d6000803e3d6000fd5b50505050611dfc6145f6565b565b600080821415611e115760009050611e7d565b6000611e1c836114e2565b9050600080611e68739ad6c38be94206ca50bb0d90783181662f0cfa1073c778417e063141139fce010982780140aa0cd5ab736e84a6216ea6dacc71ee8e6b0a5b7322eebc0fdd6146e2565b91509150611e7783828461480b565b93505050505b919050565b60026006541415611efb576040517f08c379a000000000000000000000000000000000000000000000000000000000815260040180806020018281038252601f8152602001807f5265656e7472616e637947756172643a207265656e7472616e742063616c6c0081525060200191505060405180910390fd5b6002600681905550611f0b611ade565b15611f7e576040517f08c379a00000000000000000000000000000000000000000000000000000000081526004018080602001828103825260108152602001807f5061757361626c653a207061757365640000000000000000000000000000000081525060200191505060405180910390fd5b3373ffffffffffffffffffffffffffffffffffffffff163273ffffffffffffffffffffffffffffffffffffffff1614806120015750600a60003373ffffffffffffffffffffffffffffffffffffffff1673ffffffffffffffffffffffffffffffffffffffff16815260200190815260200160002060009054906101000a900460ff165b612056576040517f08c379a00000000000000000000000000000000000000000000000000000000081526004018080602001828103825260388152602001806160ae6038913960400191505060405180910390fd5b600081116120cc576040517f08c379a000000000000000000000000000000000000000000000000000000000815260040180806020018281038252601e8152602001807f4379636c655661756c74784a4f453a203020784a4f45206465706f736974000081525060200191505060405180910390fd5b60006120d6613aca565b90506121193330847357319d41f71e81f3c65f2a47ca4e001ebafd4f3373ffffffffffffffffffffffffffffffffffffffff1661490c909392919063ffffffff16565b61212382826149cd565b3373ffffffffffffffffffffffffffffffffffffffff167f16eae8157ce277345e68b907e803e332cab55a98ea22bd8fd8f5a82bbaf268db836040518082815260200191505060405180910390a250600160068190555050565b612185613ee5565b73ffffffffffffffffffffffffffffffffffffffff166121a36129c5565b73ffffffffffffffffffffffffffffffffffffffff161461222c576040517f08c379a00000000000000000000000000000000000000000000000000000000081526004018080602001828103825260208152602001807f4f776e61626c653a2063616c6c6572206973206e6f7420746865206f776e657281525060200191505060405180910390fd5b600b60009054906101000a900460ff1615612292576040517f08c379a00000000000000000000000000000000000000000000000000000000081526004018080602001828103825260348152602001806161676034913960400191505060405180910390fd5b80600b60016101000a81548173ffffffffffffffffffffffffffffffffffffffff021916908373ffffffffffffffffffffffffffffffffffffffff1602179055506001600b60006101000a81548160ff02191690831515021790555050565b60006122fc82612ce0565b9050919050565b6002600654141561237c576040517f08c379a000000000000000000000000000000000000000000000000000000000815260040180806020018281038252601f8152602001807f5265656e7472616e637947756172643a207265656e7472616e742063616c6c0081525060200191505060405180910390fd5b60026006819055503373ffffffffffffffffffffffffffffffffffffffff163273ffffffffffffffffffffffffffffffffffffffff1614806124075750600a60003373ffffffffffffffffffffffffffffffffffffffff1673ffffffffffffffffffffffffffffffffffffffff16815260200190815260200160002060009054906101000a900460ff165b61245c576040517f08c379a00000000000000000000000000000000000000000000000000000000081526004018080602001828103825260388152602001806160ae6038913960400191505060405180910390fd5b600061246733612bdd565b9050808211156124c2576040517f08c379a00000000000000000000000000000000000000000000000000000000081526004018080602001828103825260378152602001806161306037913960400191505060405180910390fd5b60006124cd83614b84565b905060006124d9613069565b90507357319d41f71e81f3c65f2a47ca4e001ebafd4f3373ffffffffffffffffffffffffffffffffffffffff166367dfd4c9836040518263ffffffff1660e01b815260040180828152602001915050600060405180830381600087803b15801561254257600080fd5b505af1158015612556573d6000803e3d6000fd5b50505050600061257682612568613069565b614d0190919063ffffffff16565b90507360ae616a2155ee3d9a68541ba4544862310933d473ffffffffffffffffffffffffffffffffffffffff166338ed1739826000600930426040518663ffffffff1660e01b815260040180868152602001858152602001806020018473ffffffffffffffffffffffffffffffffffffffff168152602001838152602001828103825285818154815260200191508054801561266757602002820191906000526020600020905b8160009054906101000a900473ffffffffffffffffffffffffffffffffffffffff1673ffffffffffffffffffffffffffffffffffffffff168152602001906001019080831161261d575b50509650505050505050600060405180830381600087803b15801561268b57600080fd5b505af115801561269f573d6000803e3d6000fd5b505050506040513d6000823e3d601f19601f8201168201806040525060208110156126c957600080fd5b81019080805160405193929190846401000000008211156126e957600080fd5b838201915060208201858111156126ff57600080fd5b825186602082028301116401000000008211171561271c57600080fd5b8083526020830192505050908051906020019060200280838360005b83811015612753578082015181840152602081019050612738565b5050505090500160405250505050600073c778417e063141139fce010982780140aa0cd5ab73ffffffffffffffffffffffffffffffffffffffff166370a08231306040518263ffffffff1660e01b8152600401808273ffffffffffffffffffffffffffffffffffffffff16815260200191505060206040518083038186803b1580156127de57600080fd5b505afa1580156127f2573d6000803e3d6000fd5b505050506040513d602081101561280857600080fd5b8101908080519060200190929190505050905073c778417e063141139fce010982780140aa0cd5ab73ffffffffffffffffffffffffffffffffffffffff16632e1a7d4d826040518263ffffffff1660e01b815260040180828152602001915050600060405180830381600087803b15801561288257600080fd5b505af1158015612896573d6000803e3d6000fd5b5050505060003373ffffffffffffffffffffffffffffffffffffffff168260405180600001905060006040518083038185875af1925050503d80600081146128fa576040519150601f19603f3d011682016040523d82523d6000602084013e6128ff565b606091505b5050905080612959576040517f08c379a00000000000000000000000000000000000000000000000000000000081526004018080602001828103825260268152602001806162736026913960400191505060405180910390fd5b3373ffffffffffffffffffffffffffffffffffffffff167f23e722fdd4ff288e03665e20cf41a07cb18094385d9503bfae8b8b3c4751a3dc8387604051808381526020018281526020019250505060405180910390a2505050505050600160068190555050565b601881565b6000600760009054906101000a900473ffffffffffffffffffffffffffffffffffffffff16905090565b600b60019054906101000a900473ffffffffffffffffffffffffffffffffffffffff1681565b606060048054600181600116156101000203166002900480601f016020809104026020016040519081016040528092919081815260200182805460018160011615610100020316600290048015612aad5780601f10612a8257610100808354040283529160200191612aad565b820191906000526020600020905b815481529060010190602001808311612a9057829003601f168201915b5050505050905090565b600080612ac26114d8565b14612aff57612afa612ad26114d8565b612aec84612ade613aca565b6140e490919063ffffffff16565b61416a90919063ffffffff16565b612b09565b670de0b6b3a76400005b9050919050565b6000612bd3612b1d613ee5565b84612bce8560405180606001604052806025815260200161631b6025913960016000612b47613ee5565b73ffffffffffffffffffffffffffffffffffffffff1673ffffffffffffffffffffffffffffffffffffffff16815260200190815260200160002060008a73ffffffffffffffffffffffffffffffffffffffff1673ffffffffffffffffffffffffffffffffffffffff168152602001908152602001600020546144b49092919063ffffffff16565b613eed565b6001905092915050565b6000600b60019054906101000a900473ffffffffffffffffffffffffffffffffffffffff1673ffffffffffffffffffffffffffffffffffffffff166370a08231836040518263ffffffff1660e01b8152600401808273ffffffffffffffffffffffffffffffffffffffff16815260200191505060206040518083038186803b158015612c6857600080fd5b505afa158015612c7c573d6000803e3d6000fd5b505050506040513d6020811015612c9257600080fd5b81019080805190602001909291905050509050919050565b6000612cbe612cb7613ee5565b84846141f3565b6001905092915050565b73c778417e063141139fce010982780140aa0cd5ab81565b600080821415612cf35760009050612d5f565b6000612cfe836114e2565b9050600080612d4a739ad6c38be94206ca50bb0d90783181662f0cfa1073c778417e063141139fce010982780140aa0cd5ab736e84a6216ea6dacc71ee8e6b0a5b7322eebc0fdd6146e2565b91509150612d59838284614d84565b93505050505b919050565b60088181548110612d7157fe5b906000526020600020016000915054906101000a900473ffffffffffffffffffffffffffffffffffffffff1681565b739ad6c38be94206ca50bb0d90783181662f0cfa1081565b73e97a562f03637b067324eef459fef982bfff28d081565b600b60009054906101000a900460ff1681565b600a6020528060005260406000206000915054906101000a900460ff1681565b60026006541415612e7c576040517f08c379a000000000000000000000000000000000000000000000000000000000815260040180806020018281038252601f8152602001807f5265656e7472616e637947756172643a207265656e7472616e742063616c6c0081525060200191505060405180910390fd5b60026006819055503373ffffffffffffffffffffffffffffffffffffffff163273ffffffffffffffffffffffffffffffffffffffff161480612f075750600a60003373ffffffffffffffffffffffffffffffffffffffff1673ffffffffffffffffffffffffffffffffffffffff16815260200190815260200160002060009054906101000a900460ff165b612f5c576040517f08c379a00000000000000000000000000000000000000000000000000000000081526004018080602001828103825260388152602001806160ae6038913960400191505060405180910390fd5b6000612f6733612bdd565b905080821115612fc2576040517f08c379a00000000000000000000000000000000000000000000000000000000081526004018080602001828103825260378152602001806161306037913960400191505060405180910390fd5b6000612fcd83614b84565b905061300e33827357319d41f71e81f3c65f2a47ca4e001ebafd4f3373ffffffffffffffffffffffffffffffffffffffff16614eb49092919063ffffffff16565b3373ffffffffffffffffffffffffffffffffffffffff167fc03f91cc35e5e40d98e8fcf8f723551d3c206d1de5bfb895f7aae188576e0a9f826040518082815260200191505060405180910390a25050600160068190555050565b6000736e84a6216ea6dacc71ee8e6b0a5b7322eebc0fdd73ffffffffffffffffffffffffffffffffffffffff166370a08231306040518263ffffffff1660e01b8152600401808273ffffffffffffffffffffffffffffffffffffffff16815260200191505060206040518083038186803b1580156130e657600080fd5b505afa1580156130fa573d6000803e3d6000fd5b505050506040513d602081101561311057600080fd5b8101908080519060200190929190505050905090565b6000600160008473ffffffffffffffffffffffffffffffffffffffff1673ffffffffffffffffffffffffffffffffffffffff16815260200190815260200160002060008373ffffffffffffffffffffffffffffffffffffffff1673ffffffffffffffffffffffffffffffffffffffff16815260200190815260200160002054905092915050565b60006131b882612ab7565b9050919050565b60007357319d41f71e81f3c65f2a47ca4e001ebafd4f3373ffffffffffffffffffffffffffffffffffffffff166370a08231306040518263ffffffff1660e01b8152600401808273ffffffffffffffffffffffffffffffffffffffff16815260200191505060206040518083038186803b15801561323c57600080fd5b505afa158015613250573d6000803e3d6000fd5b505050506040513d602081101561326657600080fd5b8101908080519060200190929190505050905090565b61328581612e03565b50565b73d6a4f121ca35509af06a0be99093d08462f5305281565b6132a981611e82565b50565b6132b4613ee5565b73ffffffffffffffffffffffffffffffffffffffff166132d26129c5565b73ffffffffffffffffffffffffffffffffffffffff161461335b576040517f08c379a00000000000000000000000000000000000000000000000000000000081526004018080602001828103825260208152602001807f4f776e61626c653a2063616c6c6572206973206e6f7420746865206f776e657281525060200191505060405180910390fd5b600073ffffffffffffffffffffffffffffffffffffffff168173ffffffffffffffffffffffffffffffffffffffff1614156133e1576040517f08c379a00000000000000000000000000000000000000000000000000000000081526004018080602001828103825260268152602001806160406026913960400191505060405180910390fd5b8073ffffffffffffffffffffffffffffffffffffffff16600760009054906101000a900473ffffffffffffffffffffffffffffffffffffffff1673ffffffffffffffffffffffffffffffffffffffff167f8be0079c531659141344cd1fd0a4f28419497f9722a3daafe3b4186f6b6457e060405160405180910390a380600760006101000a81548173ffffffffffffffffffffffffffffffffffffffff021916908373ffffffffffffffffffffffffffffffffffffffff16021790555050565b600981815481106134ae57fe5b906000526020600020016000915054906101000a900473ffffffffffffffffffffffffffffffffffffffff1681565b60026006541415613556576040517f08c379a000000000000000000000000000000000000000000000000000000000815260040180806020018281038252601f8152602001807f5265656e7472616e637947756172643a207265656e7472616e742063616c6c0081525060200191505060405180910390fd5b6002600681905550613566611ade565b156135d9576040517f08c379a00000000000000000000000000000000000000000000000000000000081526004018080602001828103825260108152602001807f5061757361626c653a207061757365640000000000000000000000000000000081525060200191505060405180910390fd5b3373ffffffffffffffffffffffffffffffffffffffff163273ffffffffffffffffffffffffffffffffffffffff16148061365c5750600a60003373ffffffffffffffffffffffffffffffffffffffff1673ffffffffffffffffffffffffffffffffffffffff16815260200190815260200160002060009054906101000a900460ff165b6136b1576040517f08c379a00000000000000000000000000000000000000000000000000000000081526004018080602001828103825260388152602001806160ae6038913960400191505060405180910390fd5b60003490506000811161372c576040517f08c379a000000000000000000000000000000000000000000000000000000000815260040180806020018281038252601d8152602001807f4379636c655661756c74784a4f453a203020455448206465706f73697400000081525060200191505060405180910390fd5b6000613736613aca565b905073c778417e063141139fce010982780140aa0cd5ab73ffffffffffffffffffffffffffffffffffffffff1663d0e30db0836040518263ffffffff1660e01b81526004016000604051808303818588803b15801561379457600080fd5b505af11580156137a8573d6000803e3d6000fd5b505050505060607360ae616a2155ee3d9a68541ba4544862310933d473ffffffffffffffffffffffffffffffffffffffff166338ed1739846000600830426040518663ffffffff1660e01b815260040180868152602001858152602001806020018473ffffffffffffffffffffffffffffffffffffffff168152602001838152602001828103825285818154815260200191508054801561389e57602002820191906000526020600020905b8160009054906101000a900473ffffffffffffffffffffffffffffffffffffffff1673ffffffffffffffffffffffffffffffffffffffff1681526020019060010190808311613854575b50509650505050505050600060405180830381600087803b1580156138c257600080fd5b505af11580156138d6573d6000803e3d6000fd5b505050506040513d6000823e3d601f19601f82011682018060405250602081101561390057600080fd5b810190808051604051939291908464010000000082111561392057600080fd5b8382019150602082018581111561393657600080fd5b825186602082028301116401000000008211171561395357600080fd5b8083526020830192505050908051906020019060200280838360005b8381101561398a57808201518184015260208101905061396f565b5050505090500160405250505090506000816001815181106139a857fe5b602002602001015190507357319d41f71e81f3c65f2a47ca4e001ebafd4f3373ffffffffffffffffffffffffffffffffffffffff1663a59f3e0c826040518263ffffffff1660e01b815260040180828152602001915050600060405180830381600087803b158015613a1957600080fd5b505af1158015613a2d573d6000803e3d6000fd5b505050506000613a3b6131bf565b9050613a4781856149cd565b3373ffffffffffffffffffffffffffffffffffffffff167f91e00c3c6f2ab2670587cd81e36cda507770bc13241831e1ee67fd16ce5b6eb08683604051808381526020018281526020019250505060405180910390a250505050506001600681905550565b7360ae616a2155ee3d9a68541ba4544862310933d481565b61271081565b6000613aed613ad7611917565b613adf6131bf565b61456e90919063ffffffff16565b905090565b60026006541415613b6b576040517f08c379a000000000000000000000000000000000000000000000000000000000815260040180806020018281038252601f8152602001807f5265656e7472616e637947756172643a207265656e7472616e742063616c6c0081525060200191505060405180910390fd5b6002600681905550613b7b611ade565b15613bee576040517f08c379a00000000000000000000000000000000000000000000000000000000081526004018080602001828103825260108152602001807f5061757361626c653a207061757365640000000000000000000000000000000081525060200191505060405180910390fd5b613bf733614f56565b15613c4d576040517f08c379a000000000000000000000000000000000000000000000000000000000815260040180806020018281038252602481526020018061610c6024913960400191505060405180910390fd5b73d6a4f121ca35509af06a0be99093d08462f5305273ffffffffffffffffffffffffffffffffffffffff1663e2bbb158601860006040518363ffffffff1660e01b81526004018083815260200182815260200192505050600060405180830381600087803b158015613cbe57600080fd5b505af1158015613cd2573d6000803e3d6000fd5b50505050613cde614f69565b613ce66154ee565b6001600681905550565b736e84a6216ea6dacc71ee8e6b0a5b7322eebc0fdd81565b6000811480613dd6575060008373ffffffffffffffffffffffffffffffffffffffff1663dd62ed3e30856040518363ffffffff1660e01b8152600401808373ffffffffffffffffffffffffffffffffffffffff1681526020018273ffffffffffffffffffffffffffffffffffffffff1681526020019250505060206040518083038186803b158015613d9957600080fd5b505afa158015613dad573d6000803e3d6000fd5b505050506040513d6020811015613dc357600080fd5b8101908080519060200190929190505050145b613e2b576040517f08c379a00000000000000000000000000000000000000000000000000000000081526004018080602001828103825260368152602001806162c36036913960400191505060405180910390fd5b613ec88363095ea7b360e01b8484604051602401808373ffffffffffffffffffffffffffffffffffffffff16815260200182815260200192505050604051602081830303815290604052907bffffffffffffffffffffffffffffffffffffffffffffffffffffffff19166020820180517bffffffffffffffffffffffffffffffffffffffffffffffffffffffff8381831617835250505050615659565b505050565b6060613edc8484600085615748565b90509392505050565b600033905090565b600073ffffffffffffffffffffffffffffffffffffffff168373ffffffffffffffffffffffffffffffffffffffff161415613f73576040517f08c379a000000000000000000000000000000000000000000000000000000000815260040180806020018281038252602481526020018061624f6024913960400191505060405180910390fd5b600073ffffffffffffffffffffffffffffffffffffffff168273ffffffffffffffffffffffffffffffffffffffff161415613ff9576040517f08c379a00000000000000000000000000000000000000000000000000000000081526004018080602001828103825260228152602001806160666022913960400191505060405180910390fd5b80600160008573ffffffffffffffffffffffffffffffffffffffff1673ffffffffffffffffffffffffffffffffffffffff16815260200190815260200160002060008473ffffffffffffffffffffffffffffffffffffffff1673ffffffffffffffffffffffffffffffffffffffff168152602001908152602001600020819055508173ffffffffffffffffffffffffffffffffffffffff168373ffffffffffffffffffffffffffffffffffffffff167f8c5be1e5ebec7d5bd14f71427d1e84f3dd0314c0f7b2291e5b200ac8c7c3b925836040518082815260200191505060405180910390a3505050565b6000808314156140f75760009050614164565b600082840290508284828161410857fe5b041461415f576040517f08c379a000000000000000000000000000000000000000000000000000000000815260040180806020018281038252602181526020018061619b6021913960400191505060405180910390fd5b809150505b92915050565b60008082116141e1576040517f08c379a000000000000000000000000000000000000000000000000000000000815260040180806020018281038252601a8152602001807f536166654d6174683a206469766973696f6e206279207a65726f00000000000081525060200191505060405180910390fd5b8183816141ea57fe5b04905092915050565b600073ffffffffffffffffffffffffffffffffffffffff168373ffffffffffffffffffffffffffffffffffffffff161415614279576040517f08c379a000000000000000000000000000000000000000000000000000000000815260040180806020018281038252602581526020018061622a6025913960400191505060405180910390fd5b600073ffffffffffffffffffffffffffffffffffffffff168273ffffffffffffffffffffffffffffffffffffffff1614156142ff576040517f08c379a0000000000000000000000000000000000000000000000000000000008152600401808060200182810382526023815260200180615ffb6023913960400191505060405180910390fd5b61430a8383836158f1565b61437581604051806060016040528060268152602001616088602691396000808773ffffffffffffffffffffffffffffffffffffffff1673ffffffffffffffffffffffffffffffffffffffff168152602001908152602001600020546144b49092919063ffffffff16565b6000808573ffffffffffffffffffffffffffffffffffffffff1673ffffffffffffffffffffffffffffffffffffffff16815260200190815260200160002081905550614408816000808573ffffffffffffffffffffffffffffffffffffffff1673ffffffffffffffffffffffffffffffffffffffff1681526020019081526020016000205461456e90919063ffffffff16565b6000808473ffffffffffffffffffffffffffffffffffffffff1673ffffffffffffffffffffffffffffffffffffffff168152602001908152602001600020819055508173ffffffffffffffffffffffffffffffffffffffff168373ffffffffffffffffffffffffffffffffffffffff167fddf252ad1be2c89b69c2b068fc378daa952ba7f163c4a11628f55a4df523b3ef836040518082815260200191505060405180910390a3505050565b6000838311158290614561576040517f08c379a00000000000000000000000000000000000000000000000000000000081526004018080602001828103825283818151815260200191508051906020019080838360005b8381101561452657808201518184015260208101905061450b565b50505050905090810190601f1680156145535780820380516001836020036101000a031916815260200191505b509250505060405180910390fd5b5082840390509392505050565b6000808284019050838110156145ec576040517f08c379a000000000000000000000000000000000000000000000000000000000815260040180806020018281038252601b8152602001807f536166654d6174683a206164646974696f6e206f766572666c6f77000000000081525060200191505060405180910390fd5b8091505092915050565b6145fe611ade565b15614671576040517f08c379a00000000000000000000000000000000000000000000000000000000081526004018080602001828103825260108152602001807f5061757361626c653a207061757365640000000000000000000000000000000081525060200191505060405180910390fd5b6001600760146101000a81548160ff0219169083151502179055507f62e78cea01bee320cd4e420270b5ea74000d11b0c9f74754ebdbfc544b05a2586146b5613ee5565b604051808273ffffffffffffffffffffffffffffffffffffffff16815260200191505060405180910390a1565b60008060006146f185856158f6565b509050600080614702888888615a8a565b73ffffffffffffffffffffffffffffffffffffffff16630902f1ac6040518163ffffffff1660e01b815260040160606040518083038186803b15801561474757600080fd5b505afa15801561475b573d6000803e3d6000fd5b505050506040513d606081101561477157600080fd5b81019080805190602001909291908051906020019092919080519060200190929190505050506dffffffffffffffffffffffffffff1691506dffffffffffffffffffffffffffff1691508273ffffffffffffffffffffffffffffffffffffffff168773ffffffffffffffffffffffffffffffffffffffff16146147f55780826147f8565b81815b8095508196505050505050935093915050565b6000808411614882576040517f08c379a000000000000000000000000000000000000000000000000000000000815260040180806020018281038252601f8152602001807f414d4d4c6962726172793a20494e53554646494349454e545f414d4f554e540081525060200191505060405180910390fd5b6000831180156148925750600082115b6148e7576040517f08c379a00000000000000000000000000000000000000000000000000000000081526004018080602001828103825260228152602001806162f96022913960400191505060405180910390fd5b826148fb83866140e490919063ffffffff16565b8161490257fe5b0490509392505050565b6149c7846323b872dd60e01b858585604051602401808473ffffffffffffffffffffffffffffffffffffffff1681526020018373ffffffffffffffffffffffffffffffffffffffff1681526020018281526020019350505050604051602081830303815290604052907bffffffffffffffffffffffffffffffffffffffffffffffffffffffff19166020820180517bffffffffffffffffffffffffffffffffffffffffffffffffffffffff8381831617835250505050615659565b50505050565b6000806149d86114d8565b14156149e657829050614a15565b614a1282614a046149f56114d8565b866140e490919063ffffffff16565b61416a90919063ffffffff16565b90505b614a1f3082615ba3565b614a4c30600b60019054906101000a900473ffffffffffffffffffffffffffffffffffffffff1683613eed565b600b60019054906101000a900473ffffffffffffffffffffffffffffffffffffffff1673ffffffffffffffffffffffffffffffffffffffff16635beeee0d82336040518363ffffffff1660e01b8152600401808381526020018273ffffffffffffffffffffffffffffffffffffffff16815260200192505050600060405180830381600087803b158015614adf57600080fd5b505af1158015614af3573d6000803e3d6000fd5b5050505073d6a4f121ca35509af06a0be99093d08462f5305273ffffffffffffffffffffffffffffffffffffffff1663e2bbb1586018856040518363ffffffff1660e01b81526004018083815260200182815260200192505050600060405180830381600087803b158015614b6757600080fd5b505af1158015614b7b573d6000803e3d6000fd5b50505050505050565b6000614b8f82612ab7565b9050600b60019054906101000a900473ffffffffffffffffffffffffffffffffffffffff1673ffffffffffffffffffffffffffffffffffffffff16633c95832f83336040518363ffffffff1660e01b8152600401808381526020018273ffffffffffffffffffffffffffffffffffffffff16815260200192505050600060405180830381600087803b158015614c2457600080fd5b505af1158015614c38573d6000803e3d6000fd5b50505050614c463083615d6a565b6000614c506131bf565b905081811015614cfb576000614c6f8284614d0190919063ffffffff16565b905073d6a4f121ca35509af06a0be99093d08462f5305273ffffffffffffffffffffffffffffffffffffffff1663441a3e706018836040518363ffffffff1660e01b81526004018083815260200182815260200192505050600060405180830381600087803b158015614ce157600080fd5b505af1158015614cf5573d6000803e3d6000fd5b50505050505b50919050565b600082821115614d79576040517f08c379a000000000000000000000000000000000000000000000000000000000815260040180806020018281038252601e8152602001807f536166654d6174683a207375627472616374696f6e206f766572666c6f77000081525060200191505060405180910390fd5b818303905092915050565b6000808411614dde576040517f08c379a00000000000000000000000000000000000000000000000000000000081526004018080602001828103825260258152602001806161e46025913960400191505060405180910390fd5b600083118015614dee5750600082115b614e43576040517f08c379a00000000000000000000000000000000000000000000000000000000081526004018080602001828103825260228152602001806162f96022913960400191505060405180910390fd5b6000614e5a6103e5866140e490919063ffffffff16565b90506000614e7184836140e490919063ffffffff16565b90506000614e9c83614e8e6103e8896140e490919063ffffffff16565b61456e90919063ffffffff16565b9050808281614ea757fe5b0493505050509392505050565b614f518363a9059cbb60e01b8484604051602401808373ffffffffffffffffffffffffffffffffffffffff16815260200182815260200192505050604051602081830303815290604052907bffffffffffffffffffffffffffffffffffffffffffffffffffffffff19166020820180517bffffffffffffffffffffffffffffffffffffffffffffffffffffffff8381831617835250505050615659565b505050565b600080823b905060008111915050919050565b600073b18dcb184793be39550c6a055338286de94c755d73ffffffffffffffffffffffffffffffffffffffff16639297c5306040518163ffffffff1660e01b8152600401602060405180830381600087803b158015614fc757600080fd5b505af1158015614fdb573d6000803e3d6000fd5b505050506040513d6020811015614ff157600080fd5b81019080805190602001909291905050509050600073b18dcb184793be39550c6a055338286de94c755d73ffffffffffffffffffffffffffffffffffffffff1663ecc6f5b66040518163ffffffff1660e01b8152600401602060405180830381600087803b15801561506257600080fd5b505af1158015615076573d6000803e3d6000fd5b505050506040513d602081101561508c57600080fd5b8101908080519060200190929190505050905060006150b4828461456e90919063ffffffff16565b905060006150e66127106150d8846150ca613069565b6140e490919063ffffffff16565b61416a90919063ffffffff16565b90507360ae616a2155ee3d9a68541ba4544862310933d473ffffffffffffffffffffffffffffffffffffffff166338ed1739826000600930426040518663ffffffff1660e01b815260040180868152602001858152602001806020018473ffffffffffffffffffffffffffffffffffffffff16815260200183815260200182810382528581815481526020019150805480156151d757602002820191906000526020600020905b8160009054906101000a900473ffffffffffffffffffffffffffffffffffffffff1673ffffffffffffffffffffffffffffffffffffffff168152602001906001019080831161518d575b50509650505050505050600060405180830381600087803b1580156151fb57600080fd5b505af115801561520f573d6000803e3d6000fd5b505050506040513d6000823e3d601f19601f82011682018060405250602081101561523957600080fd5b810190808051604051939291908464010000000082111561525957600080fd5b8382019150602082018581111561526f57600080fd5b825186602082028301116401000000008211171561528c57600080fd5b8083526020830192505050908051906020019060200280838360005b838110156152c35780820151818401526020810190506152a8565b5050505090500160405250505050600073c778417e063141139fce010982780140aa0cd5ab73ffffffffffffffffffffffffffffffffffffffff166370a08231306040518263ffffffff1660e01b8152600401808273ffffffffffffffffffffffffffffffffffffffff16815260200191505060206040518083038186803b15801561534e57600080fd5b505afa158015615362573d6000803e3d6000fd5b505050506040513d602081101561537857600080fd5b8101908080519060200190929190505050905060006153b2846153a488856140e490919063ffffffff16565b61416a90919063ffffffff16565b905060006153c98284614d0190919063ffffffff16565b9050600073e97a562f03637b067324eef459fef982bfff28d073ffffffffffffffffffffffffffffffffffffffff1663e2af71776040518163ffffffff1660e01b8152600401602060405180830381600087803b15801561542957600080fd5b505af115801561543d573d6000803e3d6000fd5b505050506040513d602081101561545357600080fd5b810190808051906020019092919050505090506154a5818473c778417e063141139fce010982780140aa0cd5ab73ffffffffffffffffffffffffffffffffffffffff16614eb49092919063ffffffff16565b6154e4338373c778417e063141139fce010982780140aa0cd5ab73ffffffffffffffffffffffffffffffffffffffff16614eb49092919063ffffffff16565b5050505050505050565b7357319d41f71e81f3c65f2a47ca4e001ebafd4f3373ffffffffffffffffffffffffffffffffffffffff1663a59f3e0c615526613069565b6040518263ffffffff1660e01b815260040180828152602001915050600060405180830381600087803b15801561555c57600080fd5b505af1158015615570573d6000803e3d6000fd5b50505050600061557e6131bf565b905073d6a4f121ca35509af06a0be99093d08462f5305273ffffffffffffffffffffffffffffffffffffffff1663e2bbb1586018836040518363ffffffff1660e01b81526004018083815260200182815260200192505050600060405180830381600087803b1580156155f057600080fd5b505af1158015615604573d6000803e3d6000fd5b505050503373ffffffffffffffffffffffffffffffffffffffff167f9a8e1011707e799a370fa0f0c62117485535319c2f9174a97e78a0512b57045f826040518082815260200191505060405180910390a250565b60606156bb826040518060400160405280602081526020017f5361666545524332303a206c6f772d6c6576656c2063616c6c206661696c65648152508573ffffffffffffffffffffffffffffffffffffffff16613ecd9092919063ffffffff16565b9050600081511115615743578080602001905160208110156156dc57600080fd5b8101908080519060200190929190505050615742576040517f08c379a000000000000000000000000000000000000000000000000000000000815260040180806020018281038252602a815260200180616299602a913960400191505060405180910390fd5b5b505050565b6060824710156157a3576040517f08c379a00000000000000000000000000000000000000000000000000000000081526004018080602001828103825260268152602001806160e66026913960400191505060405180910390fd5b6157ac85614f56565b61581e576040517f08c379a000000000000000000000000000000000000000000000000000000000815260040180806020018281038252601d8152602001807f416464726573733a2063616c6c20746f206e6f6e2d636f6e747261637400000081525060200191505060405180910390fd5b600060608673ffffffffffffffffffffffffffffffffffffffff1685876040518082805190602001908083835b6020831061586e578051825260208201915060208101905060208303925061584b565b6001836020036101000a03801982511681845116808217855250505050505090500191505060006040518083038185875af1925050503d80600081146158d0576040519150601f19603f3d011682016040523d82523d6000602084013e6158d5565b606091505b50915091506158e5828286615f2e565b92505050949350505050565b505050565b6000808273ffffffffffffffffffffffffffffffffffffffff168473ffffffffffffffffffffffffffffffffffffffff16141561599b576040517f08c379a000000000000000000000000000000000000000000000000000000000815260040180806020018281038252601f8152602001807f414d4d4c6962726172793a204944454e544943414c5f4144445245535345530081525060200191505060405180910390fd5b8273ffffffffffffffffffffffffffffffffffffffff168473ffffffffffffffffffffffffffffffffffffffff16106159d55782846159d8565b83835b8092508193505050600073ffffffffffffffffffffffffffffffffffffffff168273ffffffffffffffffffffffffffffffffffffffff161415615a83576040517f08c379a00000000000000000000000000000000000000000000000000000000081526004018080602001828103825260188152602001807f414d4d4c6962726172793a205a45524f5f41444452455353000000000000000081525060200191505060405180910390fd5b9250929050565b6000806000615a9985856158f6565b91509150858282604051602001808373ffffffffffffffffffffffffffffffffffffffff1660601b81526014018273ffffffffffffffffffffffffffffffffffffffff1660601b8152601401925050506040516020818303038152906040528051906020012060405160200180807fff000000000000000000000000000000000000000000000000000000000000008152506001018373ffffffffffffffffffffffffffffffffffffffff1660601b8152601401828152602001807f0bbca9af0511ad1a1da383135cf3a8d2ac620e549ef9f6ae3a4c33c2fed0af91815250602001925050506040516020818303038152906040528051906020012060001c925050509392505050565b600073ffffffffffffffffffffffffffffffffffffffff168273ffffffffffffffffffffffffffffffffffffffff161415615c46576040517f08c379a000000000000000000000000000000000000000000000000000000000815260040180806020018281038252601f8152602001807f45524332303a206d696e7420746f20746865207a65726f20616464726573730081525060200191505060405180910390fd5b615c52600083836158f1565b615c678160025461456e90919063ffffffff16565b600281905550615cbe816000808573ffffffffffffffffffffffffffffffffffffffff1673ffffffffffffffffffffffffffffffffffffffff1681526020019081526020016000205461456e90919063ffffffff16565b6000808473ffffffffffffffffffffffffffffffffffffffff1673ffffffffffffffffffffffffffffffffffffffff168152602001908152602001600020819055508173ffffffffffffffffffffffffffffffffffffffff16600073ffffffffffffffffffffffffffffffffffffffff167fddf252ad1be2c89b69c2b068fc378daa952ba7f163c4a11628f55a4df523b3ef836040518082815260200191505060405180910390a35050565b600073ffffffffffffffffffffffffffffffffffffffff168273ffffffffffffffffffffffffffffffffffffffff161415615df0576040517f08c379a00000000000000000000000000000000000000000000000000000000081526004018080602001828103825260218152602001806162096021913960400191505060405180910390fd5b615dfc826000836158f1565b615e678160405180606001604052806022815260200161601e602291396000808673ffffffffffffffffffffffffffffffffffffffff1673ffffffffffffffffffffffffffffffffffffffff168152602001908152602001600020546144b49092919063ffffffff16565b6000808473ffffffffffffffffffffffffffffffffffffffff1673ffffffffffffffffffffffffffffffffffffffff16815260200190815260200160002081905550615ebe81600254614d0190919063ffffffff16565b600281905550600073ffffffffffffffffffffffffffffffffffffffff168273ffffffffffffffffffffffffffffffffffffffff167fddf252ad1be2c89b69c2b068fc378daa952ba7f163c4a11628f55a4df523b3ef836040518082815260200191505060405180910390a35050565b60608315615f3e57829050615ff3565b600083511115615f515782518084602001fd5b816040517f08c379a00000000000000000000000000000000000000000000000000000000081526004018080602001828103825283818151815260200191508051906020019080838360005b83811015615fb8578082015181840152602081019050615f9d565b50505050905090810190601f168015615fe55780820380516001836020036101000a031916815260200191505b509250505060405180910390fd5b939250505056fe45524332303a207472616e7366657220746f20746865207a65726f206164647265737345524332303a206275726e20616d6f756e7420657863656564732062616c616e63654f776e61626c653a206e6577206f776e657220697320746865207a65726f206164647265737345524332303a20617070726f766520746f20746865207a65726f206164647265737345524332303a207472616e7366657220616d6f756e7420657863656564732062616c616e63654379636c655661756c74784a4f453a2043616c6c6572206973206e6f7420454f41206f7220617574686f72697a656420636f6e7472616374416464726573733a20696e73756666696369656e742062616c616e636520666f722063616c6c4379636c655661756c74784a4f453a2043616c6c6572206973206e6f7420616e20454f414379636c655661756c74784a4f453a20496e73756666696369656e742073686172652062616c616e636520666f722077697468647261774379636c655661756c74784a4f453a205265776172647320616464726573732068617320616c7265616479206265656e20736574536166654d6174683a206d756c7469706c69636174696f6e206f766572666c6f7745524332303a207472616e7366657220616d6f756e74206578636565647320616c6c6f77616e6365414d4d4c6962726172793a20494e53554646494349454e545f494e5055545f414d4f554e5445524332303a206275726e2066726f6d20746865207a65726f206164647265737345524332303a207472616e736665722066726f6d20746865207a65726f206164647265737345524332303a20617070726f76652066726f6d20746865207a65726f20616464726573734379636c655661756c74784a4f453a20556e61626c6520746f207472616e73666572204554485361666545524332303a204552433230206f7065726174696f6e20646964206e6f7420737563636565645361666545524332303a20617070726f76652066726f6d206e6f6e2d7a65726f20746f206e6f6e2d7a65726f20616c6c6f77616e6365414d4d4c6962726172793a20494e53554646494349454e545f4c495155494449545945524332303a2064656372656173656420616c6c6f77616e63652062656c6f77207a65726fa2646970667358221220bc53f7ed563b47ccfb2bc4ae31fe99e52c46357253539314b149d9c715ff7dd764736f6c634300060c0033416464726573733a20696e73756666696369656e742062616c616e636520666f722063616c6c5361666545524332303a204552433230206f7065726174696f6e20646964206e6f7420737563636565645361666545524332303a20617070726f76652066726f6d206e6f6e2d7a65726f20746f206e6f6e2d7a65726f20616c6c6f77616e6365",
  "linkReferences": {},
  "deployedLinkReferences": {}
}