{
  "_format": "hh-sol-artifact-1",
  "contractName": "DistributionProxy",
  "sourceName": "contracts/DistributionProxy.sol",
  "abi": [
    {
      "inputs": [
        {
          "internalType": "uint256",
          "name": "_lastDistribution",
          "type": "uint256"
        }
      ],
      "stateMutability": "nonpayable",
      "type": "constructor"
    },
    {
      "anonymous": false,
      "inputs": [
        {
          "indexed": true,
          "internalType": "address",
          "name": "previousOwner",
          "type": "address"
        },
        {
          "indexed": true,
          "internalType": "address",
          "name": "newOwner",
          "type": "address"
        }
      ],
      "name": "OwnershipTransferred",
      "type": "event"
    },
    {
      "anonymous": false,
      "inputs": [
        {
          "indexed": false,
          "internalType": "address",
          "name": "account",
          "type": "address"
        }
      ],
      "name": "Paused",
      "type": "event"
    },
    {
      "anonymous": false,
      "inputs": [
        {
          "indexed": false,
          "internalType": "address",
          "name": "account",
          "type": "address"
        }
      ],
      "name": "Unpaused",
      "type": "event"
    },
    {
      "inputs": [],
      "name": "ProtocolAddresses",
      "outputs": [
        {
          "internalType": "address",
          "name": "",
          "type": "address"
        }
      ],
      "stateMutability": "view",
      "type": "function"
    },
    {
      "inputs": [],
      "name": "distributeRewards",
      "outputs": [],
      "stateMutability": "nonpayable",
      "type": "function"
    },
    {
      "inputs": [],
      "name": "frequency",
      "outputs": [
        {
          "internalType": "uint256",
          "name": "",
          "type": "uint256"
        }
      ],
      "stateMutability": "view",
      "type": "function"
    },
    {
      "inputs": [],
      "name": "lastDistribution",
      "outputs": [
        {
          "internalType": "uint256",
          "name": "",
          "type": "uint256"
        }
      ],
      "stateMutability": "view",
      "type": "function"
    },
    {
      "inputs": [],
      "name": "owner",
      "outputs": [
        {
          "internalType": "address",
          "name": "",
          "type": "address"
        }
      ],
      "stateMutability": "view",
      "type": "function"
    },
    {
      "inputs": [],
      "name": "paused",
      "outputs": [
        {
          "internalType": "bool",
          "name": "",
          "type": "bool"
        }
      ],
      "stateMutability": "view",
      "type": "function"
    },
    {
      "inputs": [],
      "name": "renounceOwnership",
      "outputs": [],
      "stateMutability": "nonpayable",
      "type": "function"
    },
    {
      "inputs": [
        {
          "internalType": "address",
          "name": "_ProtocolAddresses",
          "type": "address"
        }
      ],
      "name": "setProtocolAddresses",
      "outputs": [],
      "stateMutability": "nonpayable",
      "type": "function"
    },
    {
      "inputs": [],
      "name": "togglePause",
      "outputs": [],
      "stateMutability": "nonpayable",
      "type": "function"
    },
    {
      "inputs": [
        {
          "internalType": "address",
          "name": "newOwner",
          "type": "address"
        }
      ],
      "name": "transferOwnership",
      "outputs": [],
      "stateMutability": "nonpayable",
      "type": "function"
    }
  ],
  "bytecode": "0x608060405234801561001057600080fd5b50604051610f92380380610f928339818101604052602081101561003357600080fd5b8101908080519060200190929190505050600061005461012160201b60201c565b9050806000806101000a81548173ffffffffffffffffffffffffffffffffffffffff021916908373ffffffffffffffffffffffffffffffffffffffff1602179055508073ffffffffffffffffffffffffffffffffffffffff16600073ffffffffffffffffffffffffffffffffffffffff167f8be0079c531659141344cd1fd0a4f28419497f9722a3daafe3b4186f6b6457e060405160405180910390a350600180819055506000600260006101000a81548160ff0219169083151502179055508060038190555050610129565b600033905090565b610e5a806101386000396000f3fe608060405234801561001057600080fd5b506004361061009e5760003560e01c8063a717639c11610066578063a717639c1461014f578063c4ae31681461016d578063c9f801c714610177578063ead50da3146101ab578063f2fde38b146101c95761009e565b80630ef1d6c8146100a35780635c975abb146100e75780636f4a2cd014610107578063715018a6146101115780638da5cb5b1461011b575b600080fd5b6100e5600480360360208110156100b957600080fd5b81019080803573ffffffffffffffffffffffffffffffffffffffff16906020019092919050505061020d565b005b6100ef610300565b60405180821515815260200191505060405180910390f35b61010f610317565b005b610119610722565b005b61012361088f565b604051808273ffffffffffffffffffffffffffffffffffffffff16815260200191505060405180910390f35b6101576108b8565b6040518082815260200191505060405180910390f35b6101756108be565b005b61017f610991565b604051808273ffffffffffffffffffffffffffffffffffffffff16815260200191505060405180910390f35b6101b36109b7565b6040518082815260200191505060405180910390f35b61020b600480360360208110156101df57600080fd5b81019080803573ffffffffffffffffffffffffffffffffffffffff1690602001909291905050506109be565b005b610215610bb0565b73ffffffffffffffffffffffffffffffffffffffff1661023361088f565b73ffffffffffffffffffffffffffffffffffffffff16146102bc576040517f08c379a00000000000000000000000000000000000000000000000000000000081526004018080602001828103825260208152602001807f4f776e61626c653a2063616c6c6572206973206e6f7420746865206f776e657281525060200191505060405180910390fd5b80600260016101000a81548173ffffffffffffffffffffffffffffffffffffffff021916908373ffffffffffffffffffffffffffffffffffffffff16021790555050565b6000600260009054906101000a900460ff16905090565b60026001541415610390576040517f08c379a000000000000000000000000000000000000000000000000000000000815260040180806020018281038252601f8152602001807f5265656e7472616e637947756172643a207265656e7472616e742063616c6c0081525060200191505060405180910390fd5b60026001819055506103a0610300565b15610413576040517f08c379a00000000000000000000000000000000000000000000000000000000081526004018080602001828103825260108152602001807f5061757361626c653a207061757365640000000000000000000000000000000081525060200191505060405180910390fd5b61041c33610bb8565b15610472576040517f08c379a0000000000000000000000000000000000000000000000000000000008152600401808060200182810382526027815260200180610dc96027913960400191505060405180910390fd5b620151806003540142116104d1576040517f08c379a0000000000000000000000000000000000000000000000000000000008152600401808060200182810382526035815260200180610df06035913960400191505060405180910390fd5b5b62015180600354014211156104f45762015180600354016003819055506104d2565b600260019054906101000a900473ffffffffffffffffffffffffffffffffffffffff1673ffffffffffffffffffffffffffffffffffffffff1663e2af71776040518163ffffffff1660e01b815260040160206040518083038186803b15801561055c57600080fd5b505afa158015610570573d6000803e3d6000fd5b505050506040513d602081101561058657600080fd5b810190808051906020019092919050505073ffffffffffffffffffffffffffffffffffffffff1663c33fb8776040518163ffffffff1660e01b8152600401600060405180830381600087803b1580156105de57600080fd5b505af11580156105f2573d6000803e3d6000fd5b50505050600260019054906101000a900473ffffffffffffffffffffffffffffffffffffffff1673ffffffffffffffffffffffffffffffffffffffff16632039d8906040518163ffffffff1660e01b815260040160206040518083038186803b15801561065e57600080fd5b505afa158015610672573d6000803e3d6000fd5b505050506040513d602081101561068857600080fd5b810190808051906020019092919050505073ffffffffffffffffffffffffffffffffffffffff166363453ae1336040518263ffffffff1660e01b8152600401808273ffffffffffffffffffffffffffffffffffffffff168152602001915050600060405180830381600087803b15801561070157600080fd5b505af1158015610715573d6000803e3d6000fd5b5050505060018081905550565b61072a610bb0565b73ffffffffffffffffffffffffffffffffffffffff1661074861088f565b73ffffffffffffffffffffffffffffffffffffffff16146107d1576040517f08c379a00000000000000000000000000000000000000000000000000000000081526004018080602001828103825260208152602001807f4f776e61626c653a2063616c6c6572206973206e6f7420746865206f776e657281525060200191505060405180910390fd5b600073ffffffffffffffffffffffffffffffffffffffff1660008054906101000a900473ffffffffffffffffffffffffffffffffffffffff1673ffffffffffffffffffffffffffffffffffffffff167f8be0079c531659141344cd1fd0a4f28419497f9722a3daafe3b4186f6b6457e060405160405180910390a360008060006101000a81548173ffffffffffffffffffffffffffffffffffffffff021916908373ffffffffffffffffffffffffffffffffffffffff160217905550565b60008060009054906101000a900473ffffffffffffffffffffffffffffffffffffffff16905090565b60035481565b6108c6610bb0565b73ffffffffffffffffffffffffffffffffffffffff166108e461088f565b73ffffffffffffffffffffffffffffffffffffffff161461096d576040517f08c379a00000000000000000000000000000000000000000000000000000000081526004018080602001828103825260208152602001807f4f776e61626c653a2063616c6c6572206973206e6f7420746865206f776e657281525060200191505060405180910390fd5b610975610300565b61098657610981610bcb565b61098f565b61098e610cb7565b5b565b600260019054906101000a900473ffffffffffffffffffffffffffffffffffffffff1681565b6201518081565b6109c6610bb0565b73ffffffffffffffffffffffffffffffffffffffff166109e461088f565b73ffffffffffffffffffffffffffffffffffffffff1614610a6d576040517f08c379a00000000000000000000000000000000000000000000000000000000081526004018080602001828103825260208152602001807f4f776e61626c653a2063616c6c6572206973206e6f7420746865206f776e657281525060200191505060405180910390fd5b600073ffffffffffffffffffffffffffffffffffffffff168173ffffffffffffffffffffffffffffffffffffffff161415610af3576040517f08c379a0000000000000000000000000000000000000000000000000000000008152600401808060200182810382526026815260200180610da36026913960400191505060405180910390fd5b8073ffffffffffffffffffffffffffffffffffffffff1660008054906101000a900473ffffffffffffffffffffffffffffffffffffffff1673ffffffffffffffffffffffffffffffffffffffff167f8be0079c531659141344cd1fd0a4f28419497f9722a3daafe3b4186f6b6457e060405160405180910390a3806000806101000a81548173ffffffffffffffffffffffffffffffffffffffff021916908373ffffffffffffffffffffffffffffffffffffffff16021790555050565b600033905090565b600080823b905060008111915050919050565b610bd3610300565b15610c46576040517f08c379a00000000000000000000000000000000000000000000000000000000081526004018080602001828103825260108152602001807f5061757361626c653a207061757365640000000000000000000000000000000081525060200191505060405180910390fd5b6001600260006101000a81548160ff0219169083151502179055507f62e78cea01bee320cd4e420270b5ea74000d11b0c9f74754ebdbfc544b05a258610c8a610bb0565b604051808273ffffffffffffffffffffffffffffffffffffffff16815260200191505060405180910390a1565b610cbf610300565b610d31576040517f08c379a00000000000000000000000000000000000000000000000000000000081526004018080602001828103825260148152602001807f5061757361626c653a206e6f742070617573656400000000000000000000000081525060200191505060405180910390fd5b6000600260006101000a81548160ff0219169083151502179055507f5db9ee0a495bf2e6ff9c91a7834c1ba4fdd244a5e8aa4e537bd38aeae4b073aa610d75610bb0565b604051808273ffffffffffffffffffffffffffffffffffffffff16815260200191505060405180910390a156fe4f776e61626c653a206e6577206f776e657220697320746865207a65726f2061646472657373446973747269627574696f6e50726f78793a2043616c6c6572206973206e6f7420616e20454f41446973747269627574696f6e50726f78793a20446973747269627574696f6e2074696d657220686173206e6f7420656c6170736564a264697066735822122034c22ce19b9efcee7c90c6ce64329ea38fb3e2f4e53ea724a4239e76e98d9ffb64736f6c634300060c0033",
  "linkReferences": {},
  "deployedLinkReferences": {}
}