{
  "_format": "hh-sol-artifact-1",
  "contractName": "DistributorV5",
  "sourceName": "contracts/DistributorV5.sol",
  "abi": [
    {
      "inputs": [
        {
          "internalType": "uint256",
          "name": "_distributionCost",
          "type": "uint256"
        },
        {
          "internalType": "uint256",
          "name": "_coreRewardsBasisPoints",
          "type": "uint256"
        }
      ],
      "stateMutability": "nonpayable",
      "type": "constructor"
    },
    {
      "anonymous": false,
      "inputs": [
        {
          "indexed": false,
          "internalType": "uint256",
          "name": "coreRewardsBasisPoints",
          "type": "uint256"
        }
      ],
      "name": "CoreRewardsBasisPointsUpdated",
      "type": "event"
    },
    {
      "anonymous": false,
      "inputs": [
        {
          "indexed": false,
          "internalType": "address",
          "name": "CoreRewards",
          "type": "address"
        }
      ],
      "name": "CoreRewardsUpdated",
      "type": "event"
    },
    {
      "anonymous": false,
      "inputs": [
        {
          "indexed": false,
          "internalType": "address",
          "name": "StakingRewards",
          "type": "address"
        },
        {
          "indexed": false,
          "internalType": "uint256",
          "name": "amount",
          "type": "uint256"
        }
      ],
      "name": "CycleDistributed",
      "type": "event"
    },
    {
      "anonymous": false,
      "inputs": [
        {
          "indexed": false,
          "internalType": "uint256",
          "name": "amount",
          "type": "uint256"
        }
      ],
      "name": "CycleDistributedTotal",
      "type": "event"
    },
    {
      "anonymous": false,
      "inputs": [
        {
          "indexed": false,
          "internalType": "uint256",
          "name": "distributionCost",
          "type": "uint256"
        }
      ],
      "name": "DistributionCostUpdated",
      "type": "event"
    },
    {
      "anonymous": false,
      "inputs": [
        {
          "indexed": true,
          "internalType": "address",
          "name": "previousOwner",
          "type": "address"
        },
        {
          "indexed": true,
          "internalType": "address",
          "name": "newOwner",
          "type": "address"
        }
      ],
      "name": "OwnershipTransferred",
      "type": "event"
    },
    {
      "anonymous": false,
      "inputs": [
        {
          "indexed": false,
          "internalType": "address",
          "name": "ProtocolAddresses",
          "type": "address"
        }
      ],
      "name": "ProtocolAddressesUpdated",
      "type": "event"
    },
    {
      "anonymous": false,
      "inputs": [
        {
          "indexed": false,
          "internalType": "address",
          "name": "Proxy",
          "type": "address"
        }
      ],
      "name": "ProxyUpdated",
      "type": "event"
    },
    {
      "anonymous": false,
      "inputs": [
        {
          "indexed": false,
          "internalType": "address",
          "name": "StakingRewards",
          "type": "address"
        }
      ],
      "name": "RewardContractAdded",
      "type": "event"
    },
    {
      "anonymous": false,
      "inputs": [
        {
          "indexed": false,
          "internalType": "address",
          "name": "StakingRewards",
          "type": "address"
        }
      ],
      "name": "RewardContractDeleted",
      "type": "event"
    },
    {
      "anonymous": false,
      "inputs": [
        {
          "indexed": false,
          "internalType": "address",
          "name": "StakingRewards",
          "type": "address"
        },
        {
          "indexed": false,
          "internalType": "uint256",
          "name": "weight",
          "type": "uint256"
        }
      ],
      "name": "RewardWeightUpdated",
      "type": "event"
    },
    {
      "inputs": [],
      "name": "BP_DIVISOR",
      "outputs": [
        {
          "internalType": "uint256",
          "name": "",
          "type": "uint256"
        }
      ],
      "stateMutability": "view",
      "type": "function"
    },
    {
      "inputs": [],
      "name": "CYCLE",
      "outputs": [
        {
          "internalType": "address",
          "name": "",
          "type": "address"
        }
      ],
      "stateMutability": "view",
      "type": "function"
    },
    {
      "inputs": [],
      "name": "CoreRewards",
      "outputs": [
        {
          "internalType": "address",
          "name": "",
          "type": "address"
        }
      ],
      "stateMutability": "view",
      "type": "function"
    },
    {
      "inputs": [],
      "name": "Factory",
      "outputs": [
        {
          "internalType": "address",
          "name": "",
          "type": "address"
        }
      ],
      "stateMutability": "view",
      "type": "function"
    },
    {
      "inputs": [],
      "name": "ProtocolAddresses",
      "outputs": [
        {
          "internalType": "address",
          "name": "",
          "type": "address"
        }
      ],
      "stateMutability": "view",
      "type": "function"
    },
    {
      "inputs": [],
      "name": "Proxy",
      "outputs": [
        {
          "internalType": "address",
          "name": "",
          "type": "address"
        }
      ],
      "stateMutability": "view",
      "type": "function"
    },
    {
      "inputs": [],
      "name": "Router",
      "outputs": [
        {
          "internalType": "address",
          "name": "",
          "type": "address"
        }
      ],
      "stateMutability": "view",
      "type": "function"
    },
    {
      "inputs": [],
      "name": "WETH",
      "outputs": [
        {
          "internalType": "address",
          "name": "",
          "type": "address"
        }
      ],
      "stateMutability": "view",
      "type": "function"
    },
    {
      "inputs": [
        {
          "internalType": "address",
          "name": "StakingRewards",
          "type": "address"
        }
      ],
      "name": "addRewardData",
      "outputs": [],
      "stateMutability": "nonpayable",
      "type": "function"
    },
    {
      "inputs": [],
      "name": "coreRewardsBasisPoints",
      "outputs": [
        {
          "internalType": "uint256",
          "name": "",
          "type": "uint256"
        }
      ],
      "stateMutability": "view",
      "type": "function"
    },
    {
      "inputs": [],
      "name": "cycleBalance",
      "outputs": [
        {
          "internalType": "uint256",
          "name": "",
          "type": "uint256"
        }
      ],
      "stateMutability": "view",
      "type": "function"
    },
    {
      "inputs": [
        {
          "internalType": "uint256",
          "name": "index",
          "type": "uint256"
        }
      ],
      "name": "deleteRewardData",
      "outputs": [],
      "stateMutability": "nonpayable",
      "type": "function"
    },
    {
      "inputs": [
        {
          "internalType": "address",
          "name": "caller",
          "type": "address"
        }
      ],
      "name": "distribute",
      "outputs": [],
      "stateMutability": "nonpayable",
      "type": "function"
    },
    {
      "inputs": [],
      "name": "distributionCost",
      "outputs": [
        {
          "internalType": "uint256",
          "name": "",
          "type": "uint256"
        }
      ],
      "stateMutability": "view",
      "type": "function"
    },
    {
      "inputs": [],
      "name": "getCoreRewardsTVL",
      "outputs": [
        {
          "internalType": "uint256",
          "name": "",
          "type": "uint256"
        }
      ],
      "stateMutability": "view",
      "type": "function"
    },
    {
      "inputs": [
        {
          "internalType": "address",
          "name": "StakingRewards",
          "type": "address"
        }
      ],
      "name": "getRewardIndex",
      "outputs": [
        {
          "internalType": "uint256",
          "name": "",
          "type": "uint256"
        }
      ],
      "stateMutability": "view",
      "type": "function"
    },
    {
      "inputs": [
        {
          "internalType": "address",
          "name": "StakingRewards",
          "type": "address"
        }
      ],
      "name": "getRewardWeight",
      "outputs": [
        {
          "internalType": "uint256",
          "name": "",
          "type": "uint256"
        }
      ],
      "stateMutability": "view",
      "type": "function"
    },
    {
      "inputs": [],
      "name": "getTotalWeight",
      "outputs": [
        {
          "internalType": "uint256",
          "name": "totalWeight",
          "type": "uint256"
        }
      ],
      "stateMutability": "view",
      "type": "function"
    },
    {
      "inputs": [],
      "name": "getVaultRewardsCount",
      "outputs": [
        {
          "internalType": "uint256",
          "name": "",
          "type": "uint256"
        }
      ],
      "stateMutability": "view",
      "type": "function"
    },
    {
      "inputs": [
        {
          "internalType": "address",
          "name": "StakingRewards",
          "type": "address"
        }
      ],
      "name": "getVaultTVL",
      "outputs": [
        {
          "internalType": "uint256",
          "name": "",
          "type": "uint256"
        }
      ],
      "stateMutability": "view",
      "type": "function"
    },
    {
      "inputs": [],
      "name": "owner",
      "outputs": [
        {
          "internalType": "address",
          "name": "",
          "type": "address"
        }
      ],
      "stateMutability": "view",
      "type": "function"
    },
    {
      "inputs": [],
      "name": "renounceOwnership",
      "outputs": [],
      "stateMutability": "nonpayable",
      "type": "function"
    },
    {
      "inputs": [
        {
          "internalType": "uint256",
          "name": "",
          "type": "uint256"
        }
      ],
      "name": "rewards",
      "outputs": [
        {
          "internalType": "address",
          "name": "StakingRewards",
          "type": "address"
        },
        {
          "internalType": "uint256",
          "name": "weight",
          "type": "uint256"
        }
      ],
      "stateMutability": "view",
      "type": "function"
    },
    {
      "inputs": [
        {
          "internalType": "address",
          "name": "_CoreRewards",
          "type": "address"
        }
      ],
      "name": "setCoreRewards",
      "outputs": [],
      "stateMutability": "nonpayable",
      "type": "function"
    },
    {
      "inputs": [
        {
          "internalType": "uint256",
          "name": "_coreRewardsBasisPoints",
          "type": "uint256"
        }
      ],
      "name": "setCoreRewardsBasisPoints",
      "outputs": [],
      "stateMutability": "nonpayable",
      "type": "function"
    },
    {
      "inputs": [
        {
          "internalType": "uint256",
          "name": "_distributionCost",
          "type": "uint256"
        }
      ],
      "name": "setDistributionCost",
      "outputs": [],
      "stateMutability": "nonpayable",
      "type": "function"
    },
    {
      "inputs": [
        {
          "internalType": "address",
          "name": "_ProtocolAddresses",
          "type": "address"
        }
      ],
      "name": "setProtocolAddresses",
      "outputs": [],
      "stateMutability": "nonpayable",
      "type": "function"
    },
    {
      "inputs": [
        {
          "internalType": "address",
          "name": "_Proxy",
          "type": "address"
        }
      ],
      "name": "setProxy",
      "outputs": [],
      "stateMutability": "nonpayable",
      "type": "function"
    },
    {
      "inputs": [
        {
          "internalType": "uint256",
          "name": "",
          "type": "uint256"
        }
      ],
      "name": "swapPath",
      "outputs": [
        {
          "internalType": "address",
          "name": "",
          "type": "address"
        }
      ],
      "stateMutability": "view",
      "type": "function"
    },
    {
      "inputs": [
        {
          "internalType": "address",
          "name": "newOwner",
          "type": "address"
        }
      ],
      "name": "transferOwnership",
      "outputs": [],
      "stateMutability": "nonpayable",
      "type": "function"
    },
    {
      "inputs": [
        {
          "internalType": "address",
          "name": "StakingRewards",
          "type": "address"
        },
        {
          "internalType": "uint256",
          "name": "weight",
          "type": "uint256"
        }
      ],
      "name": "updateRewardWeight",
      "outputs": [],
      "stateMutability": "nonpayable",
      "type": "function"
    },
    {
      "stateMutability": "payable",
      "type": "receive"
    }
  ],
  "bytecode": "0x60806040526040518060400160405280734117c0c65411c90fa399a223f8b4197d34c36bac73ffffffffffffffffffffffffffffffffffffffff1673ffffffffffffffffffffffffffffffffffffffff16815260200173c778417e063141139fce010982780140aa0cd5ab73ffffffffffffffffffffffffffffffffffffffff1673ffffffffffffffffffffffffffffffffffffffff168152506006906002620000ab9291906200023a565b50348015620000b957600080fd5b50604051620043593803806200435983398181016040526040811015620000df57600080fd5b81019080805190602001909291908051906020019092919050505060006200010c6200023260201b60201c565b9050806000806101000a81548173ffffffffffffffffffffffffffffffffffffffff021916908373ffffffffffffffffffffffffffffffffffffffff1602179055508073ffffffffffffffffffffffffffffffffffffffff16600073ffffffffffffffffffffffffffffffffffffffff167f8be0079c531659141344cd1fd0a4f28419497f9722a3daafe3b4186f6b6457e060405160405180910390a35081600481905550806005819055507fc223302f526baa04062fd06e56e60913dc894ef4f85e7c6f129be302f5914ac66004546040518082815260200191505060405180910390a17f9220f289fd45786d44c55a059b0cca7f9d6aa585d67b55d2aa55802f846b73a16005546040518082815260200191505060405180910390a1505062000306565b600033905090565b828054828255906000526020600020908101928215620002b6579160200282015b82811115620002b55782518260006101000a81548173ffffffffffffffffffffffffffffffffffffffff021916908373ffffffffffffffffffffffffffffffffffffffff160217905550916020019190600101906200025b565b5b509050620002c59190620002c9565b5090565b5b808211156200030257600081816101000a81549073ffffffffffffffffffffffffffffffffffffffff021916905550600101620002ca565b5090565b61404380620003166000396000f3fe6080604052600436106101dc5760003560e01c8063916180f411610102578063c9f801c711610095578063f2fde38b11610064578063f2fde38b146108e7578063f301af4214610938578063f6d7eade146109a4578063fd782de5146109e5576101e3565b8063c9f801c7146107bb578063dbbce93b146107fc578063ee1603a614610861578063eef6ea391461088c576101e3565b8063a0332574116100d1578063a0332574146106a9578063ad5c4648146106d4578063c29a032514610715578063c83dd2311461077a576101e3565b8063916180f41461059b57806397107d6d146105dc5780639b1763df1461062d5780639e8d48d014610668576101e3565b80633bac15e61161017a578063752f746611610149578063752f7466146104a3578063764ea614146104ce5780638a3aaa771461051f5780638da5cb5b1461055a576101e3565b80633bac15e6146103bf578063630e762b1461041057806363453ae11461043b578063715018a61461048c576101e3565b8063224d62be116101b6578063224d62be146102c957806324cc0766146102f4578063280dc37514610359578063391099dc14610394576101e3565b806304be5b79146101e857806306aba0e11461024d5780630ef1d6c814610278576101e3565b366101e357005b600080fd5b3480156101f457600080fd5b506102376004803603602081101561020b57600080fd5b81019080803573ffffffffffffffffffffffffffffffffffffffff169060200190929190505050610a26565b6040518082815260200191505060405180910390f35b34801561025957600080fd5b50610262610bc6565b6040518082815260200191505060405180910390f35b34801561028457600080fd5b506102c76004803603602081101561029b57600080fd5b81019080803573ffffffffffffffffffffffffffffffffffffffff169060200190929190505050610c1b565b005b3480156102d557600080fd5b506102de610d7d565b6040518082815260200191505060405180910390f35b34801561030057600080fd5b5061032d6004803603602081101561031757600080fd5b8101908080359060200190929190505050610e3a565b604051808273ffffffffffffffffffffffffffffffffffffffff16815260200191505060405180910390f35b34801561036557600080fd5b506103926004803603602081101561037c57600080fd5b8101908080359060200190929190505050610e76565b005b3480156103a057600080fd5b506103a9610f68565b6040518082815260200191505060405180910390f35b3480156103cb57600080fd5b5061040e600480360360208110156103e257600080fd5b81019080803573ffffffffffffffffffffffffffffffffffffffff169060200190929190505050610f6e565b005b34801561041c57600080fd5b506104256111f8565b6040518082815260200191505060405180910390f35b34801561044757600080fd5b5061048a6004803603602081101561045e57600080fd5b81019080803573ffffffffffffffffffffffffffffffffffffffff169060200190929190505050611205565b005b34801561049857600080fd5b506104a1611a8b565b005b3480156104af57600080fd5b506104b8611bf8565b6040518082815260200191505060405180910390f35b3480156104da57600080fd5b5061051d600480360360208110156104f157600080fd5b81019080803573ffffffffffffffffffffffffffffffffffffffff169060200190929190505050611bfe565b005b34801561052b57600080fd5b506105586004803603602081101561054257600080fd5b8101908080359060200190929190505050611d60565b005b34801561056657600080fd5b5061056f611eac565b604051808273ffffffffffffffffffffffffffffffffffffffff16815260200191505060405180910390f35b3480156105a757600080fd5b506105b0611ed5565b604051808273ffffffffffffffffffffffffffffffffffffffff16815260200191505060405180910390f35b3480156105e857600080fd5b5061062b600480360360208110156105ff57600080fd5b81019080803573ffffffffffffffffffffffffffffffffffffffff169060200190929190505050611efb565b005b34801561063957600080fd5b506106666004803603602081101561065057600080fd5b810190808035906020019092919050505061205d565b005b34801561067457600080fd5b5061067d61233e565b604051808273ffffffffffffffffffffffffffffffffffffffff16815260200191505060405180910390f35b3480156106b557600080fd5b506106be612356565b6040518082815260200191505060405180910390f35b3480156106e057600080fd5b506106e96125bd565b604051808273ffffffffffffffffffffffffffffffffffffffff16815260200191505060405180910390f35b34801561072157600080fd5b506107646004803603602081101561073857600080fd5b81019080803573ffffffffffffffffffffffffffffffffffffffff1690602001909291905050506125d5565b6040518082815260200191505060405180910390f35b34801561078657600080fd5b5061078f6126c5565b604051808273ffffffffffffffffffffffffffffffffffffffff16815260200191505060405180910390f35b3480156107c757600080fd5b506107d06126dd565b604051808273ffffffffffffffffffffffffffffffffffffffff16815260200191505060405180910390f35b34801561080857600080fd5b5061084b6004803603602081101561081f57600080fd5b81019080803573ffffffffffffffffffffffffffffffffffffffff169060200190929190505050612703565b6040518082815260200191505060405180910390f35b34801561086d57600080fd5b50610876612811565b6040518082815260200191505060405180910390f35b34801561089857600080fd5b506108e5600480360360408110156108af57600080fd5b81019080803573ffffffffffffffffffffffffffffffffffffffff16906020019092919080359060200190929190505050612817565b005b3480156108f357600080fd5b506109366004803603602081101561090a57600080fd5b81019080803573ffffffffffffffffffffffffffffffffffffffff1690602001909291905050506129d7565b005b34801561094457600080fd5b506109716004803603602081101561095b57600080fd5b8101908080359060200190929190505050612bc9565b604051808373ffffffffffffffffffffffffffffffffffffffff1681526020018281526020019250505060405180910390f35b3480156109b057600080fd5b506109b9612c1a565b604051808273ffffffffffffffffffffffffffffffffffffffff16815260200191505060405180910390f35b3480156109f157600080fd5b506109fa612c32565b604051808273ffffffffffffffffffffffffffffffffffffffff16815260200191505060405180910390f35b6000808273ffffffffffffffffffffffffffffffffffffffff166372f702f36040518163ffffffff1660e01b815260040160206040518083038186803b158015610a6f57600080fd5b505afa158015610a83573d6000803e3d6000fd5b505050506040513d6020811015610a9957600080fd5b8101908080519060200190929190505050905060008173ffffffffffffffffffffffffffffffffffffffff166336dd10486040518163ffffffff1660e01b815260040160206040518083038186803b158015610af457600080fd5b505afa158015610b08573d6000803e3d6000fd5b505050506040513d6020811015610b1e57600080fd5b810190808051906020019092919050505090508173ffffffffffffffffffffffffffffffffffffffff16635a3f22d9826040518263ffffffff1660e01b81526004018082815260200191505060206040518083038186803b158015610b8257600080fd5b505afa158015610b96573d6000803e3d6000fd5b505050506040513d6020811015610bac57600080fd5b810190808051906020019092919050505092505050919050565b6000805b600780549050811015610c1757610c0860078281548110610be757fe5b90600052602060002090600202016001015483612c5890919063ffffffff16565b91508080600101915050610bca565b5090565b610c23612ce0565b73ffffffffffffffffffffffffffffffffffffffff16610c41611eac565b73ffffffffffffffffffffffffffffffffffffffff1614610cca576040517f08c379a00000000000000000000000000000000000000000000000000000000081526004018080602001828103825260208152602001807f4f776e61626c653a2063616c6c6572206973206e6f7420746865206f776e657281525060200191505060405180910390fd5b80600160006101000a81548173ffffffffffffffffffffffffffffffffffffffff021916908373ffffffffffffffffffffffffffffffffffffffff1602179055507fd8ef77a7d69a6b79f131ecd9aa37060ba0853bbd37cb175ec1abd05738ce27cb600160009054906101000a900473ffffffffffffffffffffffffffffffffffffffff16604051808273ffffffffffffffffffffffffffffffffffffffff16815260200191505060405180910390a150565b6000734117c0c65411c90fa399a223f8b4197d34c36bac73ffffffffffffffffffffffffffffffffffffffff166370a08231306040518263ffffffff1660e01b8152600401808273ffffffffffffffffffffffffffffffffffffffff16815260200191505060206040518083038186803b158015610dfa57600080fd5b505afa158015610e0e573d6000803e3d6000fd5b505050506040513d6020811015610e2457600080fd5b8101908080519060200190929190505050905090565b60068181548110610e4757fe5b906000526020600020016000915054906101000a900473ffffffffffffffffffffffffffffffffffffffff1681565b610e7e612ce0565b73ffffffffffffffffffffffffffffffffffffffff16610e9c611eac565b73ffffffffffffffffffffffffffffffffffffffff1614610f25576040517f08c379a00000000000000000000000000000000000000000000000000000000081526004018080602001828103825260208152602001807f4f776e61626c653a2063616c6c6572206973206e6f7420746865206f776e657281525060200191505060405180910390fd5b806004819055507fc223302f526baa04062fd06e56e60913dc894ef4f85e7c6f129be302f5914ac66004546040518082815260200191505060405180910390a150565b60055481565b610f76612ce0565b73ffffffffffffffffffffffffffffffffffffffff16610f94611eac565b73ffffffffffffffffffffffffffffffffffffffff161461101d576040517f08c379a00000000000000000000000000000000000000000000000000000000081526004018080602001828103825260208152602001807f4f776e61626c653a2063616c6c6572206973206e6f7420746865206f776e657281525060200191505060405180910390fd5b60005b6007805490508110156110fd578173ffffffffffffffffffffffffffffffffffffffff166007828154811061105157fe5b906000526020600020906002020160000160009054906101000a900473ffffffffffffffffffffffffffffffffffffffff1673ffffffffffffffffffffffffffffffffffffffff1614156110f0576040517f08c379a0000000000000000000000000000000000000000000000000000000008152600401808060200182810382526033815260200180613f646033913960400191505060405180910390fd5b8080600101915050611020565b50600760405180604001604052808373ffffffffffffffffffffffffffffffffffffffff168152602001600a815250908060018154018082558091505060019003906000526020600020906002020160009091909190915060008201518160000160006101000a81548173ffffffffffffffffffffffffffffffffffffffff021916908373ffffffffffffffffffffffffffffffffffffffff1602179055506020820151816001015550507f07d8ee2fc36bea90923c93777f9957c6e8ad8ef72ff3168ee0a65672cf5b6c9681604051808273ffffffffffffffffffffffffffffffffffffffff16815260200191505060405180910390a150565b6000600780549050905090565b600260009054906101000a900473ffffffffffffffffffffffffffffffffffffffff1673ffffffffffffffffffffffffffffffffffffffff163373ffffffffffffffffffffffffffffffffffffffff16146112ab576040517f08c379a0000000000000000000000000000000000000000000000000000000008152600401808060200182810382526027815260200180613f3d6027913960400191505060405180910390fd5b60006112b5610d7d565b905060008111611310576040517f08c379a0000000000000000000000000000000000000000000000000000000008152600401808060200182810382526025815260200180613fbe6025913960400191505060405180910390fd5b6000600160009054906101000a900473ffffffffffffffffffffffffffffffffffffffff1673ffffffffffffffffffffffffffffffffffffffff1663e2af71776040518163ffffffff1660e01b815260040160206040518083038186803b15801561137a57600080fd5b505afa15801561138e573d6000803e3d6000fd5b505050506040513d60208110156113a457600080fd5b8101908080519060200190929190505050905060008173ffffffffffffffffffffffffffffffffffffffff1663827c049e6040518163ffffffff1660e01b815260040160206040518083038186803b1580156113ff57600080fd5b505afa158015611413573d6000803e3d6000fd5b505050506040513d602081101561142957600080fd5b810190808051906020019092919050505090506000734117c0c65411c90fa399a223f8b4197d34c36bac73ffffffffffffffffffffffffffffffffffffffff166370a08231846040518263ffffffff1660e01b8152600401808273ffffffffffffffffffffffffffffffffffffffff16815260200191505060206040518083038186803b1580156114b957600080fd5b505afa1580156114cd573d6000803e3d6000fd5b505050506040513d60208110156114e357600080fd5b81019080805190602001909291905050509050818110156115505761154f836115158385612ce890919063ffffffff16565b734117c0c65411c90fa399a223f8b4197d34c36bac73ffffffffffffffffffffffffffffffffffffffff16612d6b9092919063ffffffff16565b5b61155985612e0d565b611561610d7d565b93507f03dae1d36061c6494e7808cc85c3ddf0b9b40e91206ab6d4d806f9ce98763581846040518082815260200191505060405180910390a160006115c56127106115b7600554886132bb90919063ffffffff16565b61334190919063ffffffff16565b9050611628600360009054906101000a900473ffffffffffffffffffffffffffffffffffffffff1682734117c0c65411c90fa399a223f8b4197d34c36bac73ffffffffffffffffffffffffffffffffffffffff16612d6b9092919063ffffffff16565b600360009054906101000a900473ffffffffffffffffffffffffffffffffffffffff1673ffffffffffffffffffffffffffffffffffffffff16633c6b16ab826040518263ffffffff1660e01b815260040180828152602001915050600060405180830381600087803b15801561169d57600080fd5b505af11580156116b1573d6000803e3d6000fd5b505050507f269962f5c2c707f2e2dfe6a53859928097e80bf39f748279cf88878b7d5161cb600360009054906101000a900473ffffffffffffffffffffffffffffffffffffffff1682604051808373ffffffffffffffffffffffffffffffffffffffff1681526020018281526020019250505060405180910390a1611734610d7d565b94506000606060078054905067ffffffffffffffff8111801561175657600080fd5b5060405190808252806020026020018201604052801561179057816020015b61177d613dc8565b8152602001906001900390816117755790505b50905060005b6007805490508110156118ed5760006117ec600783815481106117b557fe5b906000526020600020906002020160000160009054906101000a900473ffffffffffffffffffffffffffffffffffffffff16610a26565b905060006118216007848154811061180057fe5b906000526020600020906002020160010154836132bb90919063ffffffff16565b90506118368186612c5890919063ffffffff16565b94508084848151811061184557fe5b602002602001015160200181815250506007838154811061186257fe5b906000526020600020906002020160000160009054906101000a900473ffffffffffffffffffffffffffffffffffffffff168484815181106118a057fe5b60200260200101516000019073ffffffffffffffffffffffffffffffffffffffff16908173ffffffffffffffffffffffffffffffffffffffff168152505050508080600101915050611796565b5060005b8151811015611a8057600082828151811061190857fe5b6020026020010151600001519050600060018451038314156119335761192c610d7d565b9050611972565b61196f8561196186868151811061194657fe5b6020026020010151602001518d6132bb90919063ffffffff16565b61334190919063ffffffff16565b90505b6119b18282734117c0c65411c90fa399a223f8b4197d34c36bac73ffffffffffffffffffffffffffffffffffffffff16612d6b9092919063ffffffff16565b8173ffffffffffffffffffffffffffffffffffffffff16633c6b16ab826040518263ffffffff1660e01b815260040180828152602001915050600060405180830381600087803b158015611a0457600080fd5b505af1158015611a18573d6000803e3d6000fd5b505050507f269962f5c2c707f2e2dfe6a53859928097e80bf39f748279cf88878b7d5161cb8282604051808373ffffffffffffffffffffffffffffffffffffffff1681526020018281526020019250505060405180910390a1505080806001019150506118f1565b505050505050505050565b611a93612ce0565b73ffffffffffffffffffffffffffffffffffffffff16611ab1611eac565b73ffffffffffffffffffffffffffffffffffffffff1614611b3a576040517f08c379a00000000000000000000000000000000000000000000000000000000081526004018080602001828103825260208152602001807f4f776e61626c653a2063616c6c6572206973206e6f7420746865206f776e657281525060200191505060405180910390fd5b600073ffffffffffffffffffffffffffffffffffffffff1660008054906101000a900473ffffffffffffffffffffffffffffffffffffffff1673ffffffffffffffffffffffffffffffffffffffff167f8be0079c531659141344cd1fd0a4f28419497f9722a3daafe3b4186f6b6457e060405160405180910390a360008060006101000a81548173ffffffffffffffffffffffffffffffffffffffff021916908373ffffffffffffffffffffffffffffffffffffffff160217905550565b61271081565b611c06612ce0565b73ffffffffffffffffffffffffffffffffffffffff16611c24611eac565b73ffffffffffffffffffffffffffffffffffffffff1614611cad576040517f08c379a00000000000000000000000000000000000000000000000000000000081526004018080602001828103825260208152602001807f4f776e61626c653a2063616c6c6572206973206e6f7420746865206f776e657281525060200191505060405180910390fd5b80600360006101000a81548173ffffffffffffffffffffffffffffffffffffffff021916908373ffffffffffffffffffffffffffffffffffffffff1602179055507f64bf866d378e42305e463a17fa9ce9a3b39326ffef4a2b199a49e7426bfc302d600360009054906101000a900473ffffffffffffffffffffffffffffffffffffffff16604051808273ffffffffffffffffffffffffffffffffffffffff16815260200191505060405180910390a150565b611d68612ce0565b73ffffffffffffffffffffffffffffffffffffffff16611d86611eac565b73ffffffffffffffffffffffffffffffffffffffff1614611e0f576040517f08c379a00000000000000000000000000000000000000000000000000000000081526004018080602001828103825260208152602001807f4f776e61626c653a2063616c6c6572206973206e6f7420746865206f776e657281525060200191505060405180910390fd5b6127108110611e69576040517f08c379a0000000000000000000000000000000000000000000000000000000008152600401808060200182810382526029815260200180613e1f6029913960400191505060405180910390fd5b806005819055507f9220f289fd45786d44c55a059b0cca7f9d6aa585d67b55d2aa55802f846b73a16005546040518082815260200191505060405180910390a150565b60008060009054906101000a900473ffffffffffffffffffffffffffffffffffffffff16905090565b600360009054906101000a900473ffffffffffffffffffffffffffffffffffffffff1681565b611f03612ce0565b73ffffffffffffffffffffffffffffffffffffffff16611f21611eac565b73ffffffffffffffffffffffffffffffffffffffff1614611faa576040517f08c379a00000000000000000000000000000000000000000000000000000000081526004018080602001828103825260208152602001807f4f776e61626c653a2063616c6c6572206973206e6f7420746865206f776e657281525060200191505060405180910390fd5b80600260006101000a81548173ffffffffffffffffffffffffffffffffffffffff021916908373ffffffffffffffffffffffffffffffffffffffff1602179055507ffc80377ca9c49cc11ae6982f390a42db976d5530af7c43889264b13fbbd7c57e600260009054906101000a900473ffffffffffffffffffffffffffffffffffffffff16604051808273ffffffffffffffffffffffffffffffffffffffff16815260200191505060405180910390a150565b612065612ce0565b73ffffffffffffffffffffffffffffffffffffffff16612083611eac565b73ffffffffffffffffffffffffffffffffffffffff161461210c576040517f08c379a00000000000000000000000000000000000000000000000000000000081526004018080602001828103825260208152602001807f4f776e61626c653a2063616c6c6572206973206e6f7420746865206f776e657281525060200191505060405180910390fd5b6007805490508110612186576040517f08c379a00000000000000000000000000000000000000000000000000000000081526004018080602001828103825260208152602001807f4469737472696275746f723a20496e646578206f7574206f6620626f756e647381525060200191505060405180910390fd5b60006007828154811061219557fe5b906000526020600020906002020160000160009054906101000a900473ffffffffffffffffffffffffffffffffffffffff16905060008290505b60016007805490500381101561229957600760018201815481106121ef57fe5b90600052602060002090600202016007828154811061220a57fe5b90600052602060002090600202016000820160009054906101000a900473ffffffffffffffffffffffffffffffffffffffff168160000160006101000a81548173ffffffffffffffffffffffffffffffffffffffff021916908373ffffffffffffffffffffffffffffffffffffffff1602179055506001820154816001015590505080806001019150506121cf565b5060078054806122a557fe5b6001900381819060005260206000209060020201600080820160006101000a81549073ffffffffffffffffffffffffffffffffffffffff02191690556001820160009055505090557fadf0af094ad4515e938eabb584c57dde6a9e7087f15bffbe1dd3775b871b20f681604051808273ffffffffffffffffffffffffffffffffffffffff16815260200191505060405180910390a15050565b734117c0c65411c90fa399a223f8b4197d34c36bac81565b600080600360009054906101000a900473ffffffffffffffffffffffffffffffffffffffff1673ffffffffffffffffffffffffffffffffffffffff166372f702f36040518163ffffffff1660e01b815260040160206040518083038186803b1580156123c157600080fd5b505afa1580156123d5573d6000803e3d6000fd5b505050506040513d60208110156123eb57600080fd5b8101908080519060200190929190505050905060008173ffffffffffffffffffffffffffffffffffffffff166318160ddd6040518163ffffffff1660e01b815260040160206040518083038186803b15801561244657600080fd5b505afa15801561245a573d6000803e3d6000fd5b505050506040513d602081101561247057600080fd5b810190808051906020019092919050505090506000600360009054906101000a900473ffffffffffffffffffffffffffffffffffffffff1673ffffffffffffffffffffffffffffffffffffffff166318160ddd6040518163ffffffff1660e01b815260040160206040518083038186803b1580156124ed57600080fd5b505afa158015612501573d6000803e3d6000fd5b505050506040513d602081101561251757600080fd5b810190808051906020019092919050505090506000612573735c69bee701ef814a2b6a3edd4b1652cb9cc5aa6f73c778417e063141139fce010982780140aa0cd5ab734117c0c65411c90fa399a223f8b4197d34c36bac6133ca565b509050600061259d8461258f85856132bb90919063ffffffff16565b61334190919063ffffffff16565b90506125b36002826132bb90919063ffffffff16565b9550505050505090565b73c778417e063141139fce010982780140aa0cd5ab81565b6000805b60078054905081101561266e578273ffffffffffffffffffffffffffffffffffffffff166007828154811061260a57fe5b906000526020600020906002020160000160009054906101000a900473ffffffffffffffffffffffffffffffffffffffff1673ffffffffffffffffffffffffffffffffffffffff16141561266157809150506126c0565b80806001019150506125d9565b506040517f08c379a000000000000000000000000000000000000000000000000000000000815260040180806020018281038252603b815260200180613e6c603b913960400191505060405180910390fd5b919050565b735c69bee701ef814a2b6a3edd4b1652cb9cc5aa6f81565b600160009054906101000a900473ffffffffffffffffffffffffffffffffffffffff1681565b6000805b6007805490508110156127ba578273ffffffffffffffffffffffffffffffffffffffff166007828154811061273857fe5b906000526020600020906002020160000160009054906101000a900473ffffffffffffffffffffffffffffffffffffffff1673ffffffffffffffffffffffffffffffffffffffff1614156127ad576007818154811061279357fe5b90600052602060002090600202016001015491505061280c565b8080600101915050612707565b506040517f08c379a000000000000000000000000000000000000000000000000000000000815260040180806020018281038252603b815260200180613e6c603b913960400191505060405180910390fd5b919050565b60045481565b61281f612ce0565b73ffffffffffffffffffffffffffffffffffffffff1661283d611eac565b73ffffffffffffffffffffffffffffffffffffffff16146128c6576040517f08c379a00000000000000000000000000000000000000000000000000000000081526004018080602001828103825260208152602001807f4f776e61626c653a2063616c6c6572206973206e6f7420746865206f776e657281525060200191505060405180910390fd5b60005b6007805490508110156129d2578273ffffffffffffffffffffffffffffffffffffffff16600782815481106128fa57fe5b906000526020600020906002020160000160009054906101000a900473ffffffffffffffffffffffffffffffffffffffff1673ffffffffffffffffffffffffffffffffffffffff1614156129c557816007828154811061295657fe5b9060005260206000209060020201600101819055507f1f10c09b95b6d356d5bc29b6962193f29bf2caabcfd198fc6d008ed78572f8288383604051808373ffffffffffffffffffffffffffffffffffffffff1681526020018281526020019250505060405180910390a16129d2565b80806001019150506128c9565b505050565b6129df612ce0565b73ffffffffffffffffffffffffffffffffffffffff166129fd611eac565b73ffffffffffffffffffffffffffffffffffffffff1614612a86576040517f08c379a00000000000000000000000000000000000000000000000000000000081526004018080602001828103825260208152602001807f4f776e61626c653a2063616c6c6572206973206e6f7420746865206f776e657281525060200191505060405180910390fd5b600073ffffffffffffffffffffffffffffffffffffffff168173ffffffffffffffffffffffffffffffffffffffff161415612b0c576040517f08c379a0000000000000000000000000000000000000000000000000000000008152600401808060200182810382526026815260200180613df96026913960400191505060405180910390fd5b8073ffffffffffffffffffffffffffffffffffffffff1660008054906101000a900473ffffffffffffffffffffffffffffffffffffffff1673ffffffffffffffffffffffffffffffffffffffff167f8be0079c531659141344cd1fd0a4f28419497f9722a3daafe3b4186f6b6457e060405160405180910390a3806000806101000a81548173ffffffffffffffffffffffffffffffffffffffff021916908373ffffffffffffffffffffffffffffffffffffffff16021790555050565b60078181548110612bd657fe5b90600052602060002090600202016000915090508060000160009054906101000a900473ffffffffffffffffffffffffffffffffffffffff16908060010154905082565b737a250d5630b4cf539739df2c5dacb4c659f2488d81565b600260009054906101000a900473ffffffffffffffffffffffffffffffffffffffff1681565b600080828401905083811015612cd6576040517f08c379a000000000000000000000000000000000000000000000000000000000815260040180806020018281038252601b8152602001807f536166654d6174683a206164646974696f6e206f766572666c6f77000000000081525060200191505060405180910390fd5b8091505092915050565b600033905090565b600082821115612d60576040517f08c379a000000000000000000000000000000000000000000000000000000000815260040180806020018281038252601e8152602001807f536166654d6174683a207375627472616374696f6e206f766572666c6f77000081525060200191505060405180910390fd5b818303905092915050565b612e088363a9059cbb60e01b8484604051602401808373ffffffffffffffffffffffffffffffffffffffff16815260200182815260200192505050604051602081830303815290604052907bffffffffffffffffffffffffffffffffffffffffffffffffffffffff19166020820180517bffffffffffffffffffffffffffffffffffffffffffffffffffffffff83818316178352505050506134f3565b505050565b600080612e57735c69bee701ef814a2b6a3edd4b1652cb9cc5aa6f73c778417e063141139fce010982780140aa0cd5ab734117c0c65411c90fa399a223f8b4197d34c36bac6133ca565b915091506000612e6a60045483856135e2565b9050612ebf737a250d5630b4cf539739df2c5dacb4c659f2488d82734117c0c65411c90fa399a223f8b4197d34c36bac73ffffffffffffffffffffffffffffffffffffffff1661371f9092919063ffffffff16565b737a250d5630b4cf539739df2c5dacb4c659f2488d73ffffffffffffffffffffffffffffffffffffffff166338ed1739826000600630612f09607842612c5890919063ffffffff16565b6040518663ffffffff1660e01b815260040180868152602001858152602001806020018473ffffffffffffffffffffffffffffffffffffffff1681526020018381526020018281038252858181548152602001915080548015612fc157602002820191906000526020600020905b8160009054906101000a900473ffffffffffffffffffffffffffffffffffffffff1673ffffffffffffffffffffffffffffffffffffffff1681526020019060010190808311612f77575b50509650505050505050600060405180830381600087803b158015612fe557600080fd5b505af1158015612ff9573d6000803e3d6000fd5b505050506040513d6000823e3d601f19601f82011682018060405250602081101561302357600080fd5b810190808051604051939291908464010000000082111561304357600080fd5b8382019150602082018581111561305957600080fd5b825186602082028301116401000000008211171561307657600080fd5b8083526020830192505050908051906020019060200280838360005b838110156130ad578082015181840152602081019050613092565b5050505090500160405250505050600073c778417e063141139fce010982780140aa0cd5ab73ffffffffffffffffffffffffffffffffffffffff166370a08231306040518263ffffffff1660e01b8152600401808273ffffffffffffffffffffffffffffffffffffffff16815260200191505060206040518083038186803b15801561313857600080fd5b505afa15801561314c573d6000803e3d6000fd5b505050506040513d602081101561316257600080fd5b8101908080519060200190929190505050905073c778417e063141139fce010982780140aa0cd5ab73ffffffffffffffffffffffffffffffffffffffff16632e1a7d4d826040518263ffffffff1660e01b815260040180828152602001915050600060405180830381600087803b1580156131dc57600080fd5b505af11580156131f0573d6000803e3d6000fd5b5050505060008573ffffffffffffffffffffffffffffffffffffffff168260405180600001905060006040518083038185875af1925050503d8060008114613254576040519150601f19603f3d011682016040523d82523d6000602084013e613259565b606091505b50509050806132b3576040517f08c379a0000000000000000000000000000000000000000000000000000000008152600401808060200182810382526025815260200180613ea76025913960400191505060405180910390fd5b505050505050565b6000808314156132ce576000905061333b565b60008284029050828482816132df57fe5b0414613336576040517f08c379a0000000000000000000000000000000000000000000000000000000008152600401808060200182810382526021815260200180613ef26021913960400191505060405180910390fd5b809150505b92915050565b60008082116133b8576040517f08c379a000000000000000000000000000000000000000000000000000000000815260040180806020018281038252601a8152602001807f536166654d6174683a206469766973696f6e206279207a65726f00000000000081525060200191505060405180910390fd5b8183816133c157fe5b04905092915050565b60008060006133d98585613898565b5090506000806133ea888888613a0f565b73ffffffffffffffffffffffffffffffffffffffff16630902f1ac6040518163ffffffff1660e01b815260040160606040518083038186803b15801561342f57600080fd5b505afa158015613443573d6000803e3d6000fd5b505050506040513d606081101561345957600080fd5b81019080805190602001909291908051906020019092919080519060200190929190505050506dffffffffffffffffffffffffffff1691506dffffffffffffffffffffffffffff1691508273ffffffffffffffffffffffffffffffffffffffff168773ffffffffffffffffffffffffffffffffffffffff16146134dd5780826134e0565b81815b8095508196505050505050935093915050565b6060613555826040518060400160405280602081526020017f5361666545524332303a206c6f772d6c6576656c2063616c6c206661696c65648152508573ffffffffffffffffffffffffffffffffffffffff16613b289092919063ffffffff16565b90506000815111156135dd5780806020019051602081101561357657600080fd5b81019080805190602001909291905050506135dc576040517f08c379a000000000000000000000000000000000000000000000000000000000815260040180806020018281038252602a815260200180613f13602a913960400191505060405180910390fd5b5b505050565b600080841161363c576040517f08c379a000000000000000000000000000000000000000000000000000000000815260040180806020018281038252602b815260200180613fe3602b913960400191505060405180910390fd5b60008311801561364c5750600082115b6136a1576040517f08c379a0000000000000000000000000000000000000000000000000000000008152600401808060200182810382526027815260200180613f976027913960400191505060405180910390fd5b60006136ca6103e86136bc87876132bb90919063ffffffff16565b6132bb90919063ffffffff16565b905060006136f56103e56136e78887612ce890919063ffffffff16565b6132bb90919063ffffffff16565b9050613714600182848161370557fe5b04612c5890919063ffffffff16565b925050509392505050565b60006137f3828573ffffffffffffffffffffffffffffffffffffffff1663dd62ed3e30876040518363ffffffff1660e01b8152600401808373ffffffffffffffffffffffffffffffffffffffff1681526020018273ffffffffffffffffffffffffffffffffffffffff1681526020019250505060206040518083038186803b1580156137aa57600080fd5b505afa1580156137be573d6000803e3d6000fd5b505050506040513d60208110156137d457600080fd5b8101908080519060200190929190505050612c5890919063ffffffff16565b90506138928463095ea7b360e01b8584604051602401808373ffffffffffffffffffffffffffffffffffffffff16815260200182815260200192505050604051602081830303815290604052907bffffffffffffffffffffffffffffffffffffffffffffffffffffffff19166020820180517bffffffffffffffffffffffffffffffffffffffffffffffffffffffff83818316178352505050506134f3565b50505050565b6000808273ffffffffffffffffffffffffffffffffffffffff168473ffffffffffffffffffffffffffffffffffffffff161415613920576040517f08c379a0000000000000000000000000000000000000000000000000000000008152600401808060200182810382526024815260200180613e486024913960400191505060405180910390fd5b8273ffffffffffffffffffffffffffffffffffffffff168473ffffffffffffffffffffffffffffffffffffffff161061395a57828461395d565b83835b8092508193505050600073ffffffffffffffffffffffffffffffffffffffff168273ffffffffffffffffffffffffffffffffffffffff161415613a08576040517f08c379a000000000000000000000000000000000000000000000000000000000815260040180806020018281038252601d8152602001807f50616e676f6c696e4c6962726172793a205a45524f5f4144445245535300000081525060200191505060405180910390fd5b9250929050565b6000806000613a1e8585613898565b91509150858282604051602001808373ffffffffffffffffffffffffffffffffffffffff1660601b81526014018273ffffffffffffffffffffffffffffffffffffffff1660601b8152601401925050506040516020818303038152906040528051906020012060405160200180807fff000000000000000000000000000000000000000000000000000000000000008152506001018373ffffffffffffffffffffffffffffffffffffffff1660601b8152601401828152602001807f40231f6b438bce0797c9ada29b718a87ea0a5cea3fe9a771abdd76bd41a3e545815250602001925050506040516020818303038152906040528051906020012060001c925050509392505050565b6060613b378484600085613b40565b90509392505050565b606082471015613b9b576040517f08c379a0000000000000000000000000000000000000000000000000000000008152600401808060200182810382526026815260200180613ecc6026913960400191505060405180910390fd5b613ba485613ce9565b613c16576040517f08c379a000000000000000000000000000000000000000000000000000000000815260040180806020018281038252601d8152602001807f416464726573733a2063616c6c20746f206e6f6e2d636f6e747261637400000081525060200191505060405180910390fd5b600060608673ffffffffffffffffffffffffffffffffffffffff1685876040518082805190602001908083835b60208310613c665780518252602082019150602081019050602083039250613c43565b6001836020036101000a03801982511681845116808217855250505050505090500191505060006040518083038185875af1925050503d8060008114613cc8576040519150601f19603f3d011682016040523d82523d6000602084013e613ccd565b606091505b5091509150613cdd828286613cfc565b92505050949350505050565b600080823b905060008111915050919050565b60608315613d0c57829050613dc1565b600083511115613d1f5782518084602001fd5b816040517f08c379a00000000000000000000000000000000000000000000000000000000081526004018080602001828103825283818151815260200191508051906020019080838360005b83811015613d86578082015181840152602081019050613d6b565b50505050905090810190601f168015613db35780820380516001836020036101000a031916815260200191505b509250505060405180910390fd5b9392505050565b6040518060400160405280600073ffffffffffffffffffffffffffffffffffffffff16815260200160008152509056fe4f776e61626c653a206e6577206f776e657220697320746865207a65726f20616464726573734469737472696275746f7256353a20426173697320506f696e7473206f7574206f6620626f756e647350616e676f6c696e4c6962726172793a204944454e544943414c5f4144445245535345535374616b696e6752657761726420636f6e747261637420646f6573206e6f7420657869737420696e207265776172647320636f6c6c656374696f6e4469737472696275746f7256353a20556e61626c6520746f207472616e7366657220455448416464726573733a20696e73756666696369656e742062616c616e636520666f722063616c6c536166654d6174683a206d756c7469706c69636174696f6e206f766572666c6f775361666545524332303a204552433230206f7065726174696f6e20646964206e6f7420737563636565644469737472696275746f7256353a2043616c6c6572206d757374206265207468652050726f78794469737472696275746f723a2052657761726420636f6e74726163742068617320616c7265616479206265656e20616464656450616e676f6c696e4c6962726172793a20494e53554646494349454e545f4c49515549444954594469737472696275746f7256353a204e6f204359434c4520746f206469737472696275746550616e676f6c696e4c6962726172793a20494e53554646494349454e545f4f55545055545f414d4f554e54a2646970667358221220f27f014ca2ee64c90006393a8fe8e0b6e0b1b668aef4ad55ec93e6b4447062a664736f6c634300060c0033",
  "linkReferences": {},
  "deployedLinkReferences": {}
}