{
  "_format": "hh-sol-artifact-1",
  "contractName": "CycleVaultPNG",
  "sourceName": "contracts/vaults/CycleVaultPNG.sol",
  "abi": [
    {
      "inputs": [],
      "stateMutability": "nonpayable",
      "type": "constructor"
    },
    {
      "anonymous": false,
      "inputs": [
        {
          "indexed": true,
          "internalType": "address",
          "name": "owner",
          "type": "address"
        },
        {
          "indexed": true,
          "internalType": "address",
          "name": "spender",
          "type": "address"
        },
        {
          "indexed": false,
          "internalType": "uint256",
          "name": "value",
          "type": "uint256"
        }
      ],
      "name": "Approval",
      "type": "event"
    },
    {
      "anonymous": false,
      "inputs": [
        {
          "indexed": false,
          "internalType": "address",
          "name": "_contract",
          "type": "address"
        },
        {
          "indexed": false,
          "internalType": "bool",
          "name": "status",
          "type": "bool"
        }
      ],
      "name": "AuthorizedContractsUpdated",
      "type": "event"
    },
    {
      "anonymous": false,
      "inputs": [
        {
          "indexed": false,
          "internalType": "uint256",
          "name": "amountETH",
          "type": "uint256"
        },
        {
          "indexed": false,
          "internalType": "uint256",
          "name": "amountPNG",
          "type": "uint256"
        },
        {
          "indexed": true,
          "internalType": "address",
          "name": "account",
          "type": "address"
        }
      ],
      "name": "ETHdeposited",
      "type": "event"
    },
    {
      "anonymous": false,
      "inputs": [
        {
          "indexed": false,
          "internalType": "uint256",
          "name": "amountETH",
          "type": "uint256"
        },
        {
          "indexed": false,
          "internalType": "uint256",
          "name": "amountPNG",
          "type": "uint256"
        },
        {
          "indexed": true,
          "internalType": "address",
          "name": "account",
          "type": "address"
        }
      ],
      "name": "ETHwithdrawn",
      "type": "event"
    },
    {
      "anonymous": false,
      "inputs": [
        {
          "indexed": true,
          "internalType": "address",
          "name": "previousOwner",
          "type": "address"
        },
        {
          "indexed": true,
          "internalType": "address",
          "name": "newOwner",
          "type": "address"
        }
      ],
      "name": "OwnershipTransferred",
      "type": "event"
    },
    {
      "anonymous": false,
      "inputs": [
        {
          "indexed": false,
          "internalType": "uint256",
          "name": "amountPNG",
          "type": "uint256"
        },
        {
          "indexed": true,
          "internalType": "address",
          "name": "account",
          "type": "address"
        }
      ],
      "name": "PNGdeposited",
      "type": "event"
    },
    {
      "anonymous": false,
      "inputs": [
        {
          "indexed": false,
          "internalType": "uint256",
          "name": "amountPNG",
          "type": "uint256"
        },
        {
          "indexed": true,
          "internalType": "address",
          "name": "account",
          "type": "address"
        }
      ],
      "name": "PNGwithdrawn",
      "type": "event"
    },
    {
      "anonymous": false,
      "inputs": [
        {
          "indexed": false,
          "internalType": "address",
          "name": "account",
          "type": "address"
        }
      ],
      "name": "Paused",
      "type": "event"
    },
    {
      "anonymous": false,
      "inputs": [
        {
          "indexed": false,
          "internalType": "uint256",
          "name": "amountPNG",
          "type": "uint256"
        },
        {
          "indexed": true,
          "internalType": "address",
          "name": "caller",
          "type": "address"
        }
      ],
      "name": "Reinvest",
      "type": "event"
    },
    {
      "anonymous": false,
      "inputs": [
        {
          "indexed": true,
          "internalType": "address",
          "name": "from",
          "type": "address"
        },
        {
          "indexed": true,
          "internalType": "address",
          "name": "to",
          "type": "address"
        },
        {
          "indexed": false,
          "internalType": "uint256",
          "name": "value",
          "type": "uint256"
        }
      ],
      "name": "Transfer",
      "type": "event"
    },
    {
      "anonymous": false,
      "inputs": [
        {
          "indexed": false,
          "internalType": "address",
          "name": "account",
          "type": "address"
        }
      ],
      "name": "Unpaused",
      "type": "event"
    },
    {
      "inputs": [],
      "name": "BP_DIV",
      "outputs": [
        {
          "internalType": "uint256",
          "name": "",
          "type": "uint256"
        }
      ],
      "stateMutability": "view",
      "type": "function"
    },
    {
      "inputs": [],
      "name": "Factory",
      "outputs": [
        {
          "internalType": "address",
          "name": "",
          "type": "address"
        }
      ],
      "stateMutability": "view",
      "type": "function"
    },
    {
      "inputs": [],
      "name": "PNG",
      "outputs": [
        {
          "internalType": "address",
          "name": "",
          "type": "address"
        }
      ],
      "stateMutability": "view",
      "type": "function"
    },
    {
      "inputs": [
        {
          "internalType": "uint256",
          "name": "",
          "type": "uint256"
        }
      ],
      "name": "PNGtoWETH",
      "outputs": [
        {
          "internalType": "address",
          "name": "",
          "type": "address"
        }
      ],
      "stateMutability": "view",
      "type": "function"
    },
    {
      "inputs": [],
      "name": "ProtocolAddresses",
      "outputs": [
        {
          "internalType": "address",
          "name": "",
          "type": "address"
        }
      ],
      "stateMutability": "view",
      "type": "function"
    },
    {
      "inputs": [],
      "name": "Router",
      "outputs": [
        {
          "internalType": "address",
          "name": "",
          "type": "address"
        }
      ],
      "stateMutability": "view",
      "type": "function"
    },
    {
      "inputs": [],
      "name": "StakingRewards",
      "outputs": [
        {
          "internalType": "address",
          "name": "",
          "type": "address"
        }
      ],
      "stateMutability": "view",
      "type": "function"
    },
    {
      "inputs": [],
      "name": "StrategyVariables",
      "outputs": [
        {
          "internalType": "address",
          "name": "",
          "type": "address"
        }
      ],
      "stateMutability": "view",
      "type": "function"
    },
    {
      "inputs": [],
      "name": "VaultRewards",
      "outputs": [
        {
          "internalType": "address",
          "name": "",
          "type": "address"
        }
      ],
      "stateMutability": "view",
      "type": "function"
    },
    {
      "inputs": [],
      "name": "WETH",
      "outputs": [
        {
          "internalType": "address",
          "name": "",
          "type": "address"
        }
      ],
      "stateMutability": "view",
      "type": "function"
    },
    {
      "inputs": [
        {
          "internalType": "uint256",
          "name": "",
          "type": "uint256"
        }
      ],
      "name": "WETHtoPNG",
      "outputs": [
        {
          "internalType": "address",
          "name": "",
          "type": "address"
        }
      ],
      "stateMutability": "view",
      "type": "function"
    },
    {
      "inputs": [
        {
          "internalType": "address",
          "name": "account",
          "type": "address"
        }
      ],
      "name": "accountShareBalance",
      "outputs": [
        {
          "internalType": "uint256",
          "name": "",
          "type": "uint256"
        }
      ],
      "stateMutability": "view",
      "type": "function"
    },
    {
      "inputs": [
        {
          "internalType": "address",
          "name": "owner",
          "type": "address"
        },
        {
          "internalType": "address",
          "name": "spender",
          "type": "address"
        }
      ],
      "name": "allowance",
      "outputs": [
        {
          "internalType": "uint256",
          "name": "",
          "type": "uint256"
        }
      ],
      "stateMutability": "view",
      "type": "function"
    },
    {
      "inputs": [
        {
          "internalType": "address",
          "name": "spender",
          "type": "address"
        },
        {
          "internalType": "uint256",
          "name": "amount",
          "type": "uint256"
        }
      ],
      "name": "approve",
      "outputs": [
        {
          "internalType": "bool",
          "name": "",
          "type": "bool"
        }
      ],
      "stateMutability": "nonpayable",
      "type": "function"
    },
    {
      "inputs": [
        {
          "internalType": "address",
          "name": "",
          "type": "address"
        }
      ],
      "name": "authorizedContracts",
      "outputs": [
        {
          "internalType": "bool",
          "name": "",
          "type": "bool"
        }
      ],
      "stateMutability": "view",
      "type": "function"
    },
    {
      "inputs": [],
      "name": "balanceLPinSystem",
      "outputs": [
        {
          "internalType": "uint256",
          "name": "",
          "type": "uint256"
        }
      ],
      "stateMutability": "view",
      "type": "function"
    },
    {
      "inputs": [
        {
          "internalType": "address",
          "name": "account",
          "type": "address"
        }
      ],
      "name": "balanceOf",
      "outputs": [
        {
          "internalType": "uint256",
          "name": "",
          "type": "uint256"
        }
      ],
      "stateMutability": "view",
      "type": "function"
    },
    {
      "inputs": [],
      "name": "balancePNG",
      "outputs": [
        {
          "internalType": "uint256",
          "name": "",
          "type": "uint256"
        }
      ],
      "stateMutability": "view",
      "type": "function"
    },
    {
      "inputs": [],
      "name": "balancePNGinStakingRewards",
      "outputs": [
        {
          "internalType": "uint256",
          "name": "",
          "type": "uint256"
        }
      ],
      "stateMutability": "view",
      "type": "function"
    },
    {
      "inputs": [],
      "name": "balancePNGinSystem",
      "outputs": [
        {
          "internalType": "uint256",
          "name": "",
          "type": "uint256"
        }
      ],
      "stateMutability": "view",
      "type": "function"
    },
    {
      "inputs": [],
      "name": "balanceWETH",
      "outputs": [
        {
          "internalType": "uint256",
          "name": "",
          "type": "uint256"
        }
      ],
      "stateMutability": "view",
      "type": "function"
    },
    {
      "inputs": [],
      "name": "decimals",
      "outputs": [
        {
          "internalType": "uint8",
          "name": "",
          "type": "uint8"
        }
      ],
      "stateMutability": "view",
      "type": "function"
    },
    {
      "inputs": [],
      "name": "decommission",
      "outputs": [],
      "stateMutability": "nonpayable",
      "type": "function"
    },
    {
      "inputs": [
        {
          "internalType": "address",
          "name": "spender",
          "type": "address"
        },
        {
          "internalType": "uint256",
          "name": "subtractedValue",
          "type": "uint256"
        }
      ],
      "name": "decreaseAllowance",
      "outputs": [
        {
          "internalType": "bool",
          "name": "",
          "type": "bool"
        }
      ],
      "stateMutability": "nonpayable",
      "type": "function"
    },
    {
      "inputs": [],
      "name": "depositETH",
      "outputs": [],
      "stateMutability": "payable",
      "type": "function"
    },
    {
      "inputs": [
        {
          "internalType": "uint256",
          "name": "amount",
          "type": "uint256"
        }
      ],
      "name": "depositLP",
      "outputs": [],
      "stateMutability": "nonpayable",
      "type": "function"
    },
    {
      "inputs": [
        {
          "internalType": "uint256",
          "name": "amountPNG",
          "type": "uint256"
        }
      ],
      "name": "depositPNG",
      "outputs": [],
      "stateMutability": "nonpayable",
      "type": "function"
    },
    {
      "inputs": [
        {
          "internalType": "uint256",
          "name": "amountLP",
          "type": "uint256"
        }
      ],
      "name": "getETHamountForLPamount",
      "outputs": [
        {
          "internalType": "uint256",
          "name": "",
          "type": "uint256"
        }
      ],
      "stateMutability": "view",
      "type": "function"
    },
    {
      "inputs": [
        {
          "internalType": "uint256",
          "name": "amountPNG",
          "type": "uint256"
        }
      ],
      "name": "getETHamountForPNGamount",
      "outputs": [
        {
          "internalType": "uint256",
          "name": "amountETH",
          "type": "uint256"
        }
      ],
      "stateMutability": "view",
      "type": "function"
    },
    {
      "inputs": [
        {
          "internalType": "uint256",
          "name": "amountLP",
          "type": "uint256"
        }
      ],
      "name": "getETHquoteForLPamount",
      "outputs": [
        {
          "internalType": "uint256",
          "name": "",
          "type": "uint256"
        }
      ],
      "stateMutability": "view",
      "type": "function"
    },
    {
      "inputs": [
        {
          "internalType": "uint256",
          "name": "amountPNG",
          "type": "uint256"
        }
      ],
      "name": "getETHquoteForPNGamount",
      "outputs": [
        {
          "internalType": "uint256",
          "name": "amountETH",
          "type": "uint256"
        }
      ],
      "stateMutability": "view",
      "type": "function"
    },
    {
      "inputs": [
        {
          "internalType": "uint256",
          "name": "shares",
          "type": "uint256"
        }
      ],
      "name": "getLPamountForShares",
      "outputs": [
        {
          "internalType": "uint256",
          "name": "",
          "type": "uint256"
        }
      ],
      "stateMutability": "view",
      "type": "function"
    },
    {
      "inputs": [
        {
          "internalType": "uint256",
          "name": "shares",
          "type": "uint256"
        }
      ],
      "name": "getPNGamountForShares",
      "outputs": [
        {
          "internalType": "uint256",
          "name": "",
          "type": "uint256"
        }
      ],
      "stateMutability": "view",
      "type": "function"
    },
    {
      "inputs": [],
      "name": "getRewardsEarned",
      "outputs": [
        {
          "internalType": "uint256",
          "name": "",
          "type": "uint256"
        }
      ],
      "stateMutability": "view",
      "type": "function"
    },
    {
      "inputs": [],
      "name": "harvest",
      "outputs": [],
      "stateMutability": "nonpayable",
      "type": "function"
    },
    {
      "inputs": [
        {
          "internalType": "address",
          "name": "spender",
          "type": "address"
        },
        {
          "internalType": "uint256",
          "name": "addedValue",
          "type": "uint256"
        }
      ],
      "name": "increaseAllowance",
      "outputs": [
        {
          "internalType": "bool",
          "name": "",
          "type": "bool"
        }
      ],
      "stateMutability": "nonpayable",
      "type": "function"
    },
    {
      "inputs": [],
      "name": "name",
      "outputs": [
        {
          "internalType": "string",
          "name": "",
          "type": "string"
        }
      ],
      "stateMutability": "view",
      "type": "function"
    },
    {
      "inputs": [],
      "name": "owner",
      "outputs": [
        {
          "internalType": "address",
          "name": "",
          "type": "address"
        }
      ],
      "stateMutability": "view",
      "type": "function"
    },
    {
      "inputs": [],
      "name": "paused",
      "outputs": [
        {
          "internalType": "bool",
          "name": "",
          "type": "bool"
        }
      ],
      "stateMutability": "view",
      "type": "function"
    },
    {
      "inputs": [],
      "name": "reinvest",
      "outputs": [],
      "stateMutability": "nonpayable",
      "type": "function"
    },
    {
      "inputs": [],
      "name": "renounceOwnership",
      "outputs": [],
      "stateMutability": "nonpayable",
      "type": "function"
    },
    {
      "inputs": [],
      "name": "rewardsSet",
      "outputs": [
        {
          "internalType": "bool",
          "name": "",
          "type": "bool"
        }
      ],
      "stateMutability": "view",
      "type": "function"
    },
    {
      "inputs": [
        {
          "internalType": "address",
          "name": "_contract",
          "type": "address"
        },
        {
          "internalType": "bool",
          "name": "status",
          "type": "bool"
        }
      ],
      "name": "setAuthorizedContracts",
      "outputs": [],
      "stateMutability": "nonpayable",
      "type": "function"
    },
    {
      "inputs": [
        {
          "internalType": "address",
          "name": "_VaultRewards",
          "type": "address"
        }
      ],
      "name": "setVaultRewards",
      "outputs": [],
      "stateMutability": "nonpayable",
      "type": "function"
    },
    {
      "inputs": [],
      "name": "symbol",
      "outputs": [
        {
          "internalType": "string",
          "name": "",
          "type": "string"
        }
      ],
      "stateMutability": "view",
      "type": "function"
    },
    {
      "inputs": [],
      "name": "totalSupply",
      "outputs": [
        {
          "internalType": "uint256",
          "name": "",
          "type": "uint256"
        }
      ],
      "stateMutability": "view",
      "type": "function"
    },
    {
      "inputs": [
        {
          "internalType": "address",
          "name": "recipient",
          "type": "address"
        },
        {
          "internalType": "uint256",
          "name": "amount",
          "type": "uint256"
        }
      ],
      "name": "transfer",
      "outputs": [
        {
          "internalType": "bool",
          "name": "",
          "type": "bool"
        }
      ],
      "stateMutability": "nonpayable",
      "type": "function"
    },
    {
      "inputs": [
        {
          "internalType": "address",
          "name": "sender",
          "type": "address"
        },
        {
          "internalType": "address",
          "name": "recipient",
          "type": "address"
        },
        {
          "internalType": "uint256",
          "name": "amount",
          "type": "uint256"
        }
      ],
      "name": "transferFrom",
      "outputs": [
        {
          "internalType": "bool",
          "name": "",
          "type": "bool"
        }
      ],
      "stateMutability": "nonpayable",
      "type": "function"
    },
    {
      "inputs": [
        {
          "internalType": "address",
          "name": "newOwner",
          "type": "address"
        }
      ],
      "name": "transferOwnership",
      "outputs": [],
      "stateMutability": "nonpayable",
      "type": "function"
    },
    {
      "inputs": [
        {
          "internalType": "uint256",
          "name": "sharesToWithdraw",
          "type": "uint256"
        }
      ],
      "name": "withdraWETH",
      "outputs": [],
      "stateMutability": "nonpayable",
      "type": "function"
    },
    {
      "inputs": [
        {
          "internalType": "uint256",
          "name": "sharesToWithdraw",
          "type": "uint256"
        }
      ],
      "name": "withdrawLP",
      "outputs": [],
      "stateMutability": "nonpayable",
      "type": "function"
    },
    {
      "inputs": [
        {
          "internalType": "uint256",
          "name": "sharesToWithdraw",
          "type": "uint256"
        }
      ],
      "name": "withdrawPNG",
      "outputs": [],
      "stateMutability": "nonpayable",
      "type": "function"
    },
    {
      "stateMutability": "payable",
      "type": "receive"
    }
  ],
  "bytecode": "0x6080604052604051806040016040528073c778417e063141139fce010982780140aa0cd5ab73ffffffffffffffffffffffffffffffffffffffff1673ffffffffffffffffffffffffffffffffffffffff1681526020017360781c2586d68229fde47564546784ab3faca98273ffffffffffffffffffffffffffffffffffffffff1673ffffffffffffffffffffffffffffffffffffffff168152506008906002620000ab92919062000b11565b5060405180604001604052807360781c2586d68229fde47564546784ab3faca98273ffffffffffffffffffffffffffffffffffffffff1673ffffffffffffffffffffffffffffffffffffffff16815260200173c778417e063141139fce010982780140aa0cd5ab73ffffffffffffffffffffffffffffffffffffffff1673ffffffffffffffffffffffffffffffffffffffff1681525060099060026200015392919062000b11565b503480156200016157600080fd5b506040518060400160405280601e81526020017f4379636c655661756c745368617265732850616e676f6c696e2d504e472900008152506040518060400160405280600581526020017f6379564c540000000000000000000000000000000000000000000000000000008152508160039080519060200190620001e692919062000ba0565b508060049080519060200190620001ff92919062000ba0565b506012600560006101000a81548160ff021916908360ff160217905550505060016006819055506000620002386200057760201b60201c565b905080600760006101000a81548173ffffffffffffffffffffffffffffffffffffffff021916908373ffffffffffffffffffffffffffffffffffffffff1602179055508073ffffffffffffffffffffffffffffffffffffffff16600073ffffffffffffffffffffffffffffffffffffffff167f8be0079c531659141344cd1fd0a4f28419497f9722a3daafe3b4186f6b6457e060405160405180910390a3506000600760146101000a81548160ff0219169083151502179055506200034d73e54ca86531e17ef3616d22ca28b0d458b6c89106600073c778417e063141139fce010982780140aa0cd5ab73ffffffffffffffffffffffffffffffffffffffff166200057f60201b62003720179092919060201c565b620003c773e54ca86531e17ef3616d22ca28b0d458b6c891067fffffffffffffffffffffffffffffffffffffffffffffffffffffffffffffffff73c778417e063141139fce010982780140aa0cd5ab73ffffffffffffffffffffffffffffffffffffffff166200057f60201b62003720179092919060201c565b6200042273e54ca86531e17ef3616d22ca28b0d458b6c8910660007360781c2586d68229fde47564546784ab3faca98273ffffffffffffffffffffffffffffffffffffffff166200057f60201b62003720179092919060201c565b6200049c73e54ca86531e17ef3616d22ca28b0d458b6c891067fffffffffffffffffffffffffffffffffffffffffffffffffffffffffffffffff7360781c2586d68229fde47564546784ab3faca98273ffffffffffffffffffffffffffffffffffffffff166200057f60201b62003720179092919060201c565b620004f773d49b406a7a29d64e081164f6c3353c599a2eeae960007360781c2586d68229fde47564546784ab3faca98273ffffffffffffffffffffffffffffffffffffffff166200057f60201b62003720179092919060201c565b6200057173d49b406a7a29d64e081164f6c3353c599a2eeae97fffffffffffffffffffffffffffffffffffffffffffffffffffffffffffffffff7360781c2586d68229fde47564546784ab3faca98273ffffffffffffffffffffffffffffffffffffffff166200057f60201b62003720179092919060201c565b62000c83565b600033905090565b600081148062000651575060008373ffffffffffffffffffffffffffffffffffffffff1663dd62ed3e30856040518363ffffffff1660e01b8152600401808373ffffffffffffffffffffffffffffffffffffffff1681526020018273ffffffffffffffffffffffffffffffffffffffff1681526020019250505060206040518083038186803b1580156200061257600080fd5b505afa15801562000627573d6000803e3d6000fd5b505050506040513d60208110156200063e57600080fd5b8101908080519060200190929190505050145b620006a8576040517f08c379a00000000000000000000000000000000000000000000000000000000081526004018080602001828103825260368152602001806200692d6036913960400191505060405180910390fd5b6200074d8363095ea7b360e01b8484604051602401808373ffffffffffffffffffffffffffffffffffffffff16815260200182815260200192505050604051602081830303815290604052907bffffffffffffffffffffffffffffffffffffffffffffffffffffffff19166020820180517bffffffffffffffffffffffffffffffffffffffffffffffffffffffff83818316178352505050506200075260201b60201c565b505050565b6060620007bb826040518060400160405280602081526020017f5361666545524332303a206c6f772d6c6576656c2063616c6c206661696c65648152508573ffffffffffffffffffffffffffffffffffffffff166200084c60201b620038e5179092919060201c565b90506000815111156200084757808060200190516020811015620007de57600080fd5b810190808051906020019092919050505062000846576040517f08c379a000000000000000000000000000000000000000000000000000000000815260040180806020018281038252602a81526020018062006903602a913960400191505060405180910390fd5b5b505050565b60606200086384846000856200086c60201b60201c565b90509392505050565b606082471015620008c9576040517f08c379a0000000000000000000000000000000000000000000000000000000008152600401808060200182810382526026815260200180620068dd6026913960400191505060405180910390fd5b620008da8562000a2c60201b60201c565b6200094d576040517f08c379a000000000000000000000000000000000000000000000000000000000815260040180806020018281038252601d8152602001807f416464726573733a2063616c6c20746f206e6f6e2d636f6e747261637400000081525060200191505060405180910390fd5b600060608673ffffffffffffffffffffffffffffffffffffffff1685876040518082805190602001908083835b602083106200099f57805182526020820191506020810190506020830392506200097a565b6001836020036101000a03801982511681845116808217855250505050505090500191505060006040518083038185875af1925050503d806000811462000a03576040519150601f19603f3d011682016040523d82523d6000602084013e62000a08565b606091505b509150915062000a2082828662000a3f60201b60201c565b92505050949350505050565b600080823b905060008111915050919050565b6060831562000a515782905062000b0a565b60008351111562000a655782518084602001fd5b816040517f08c379a00000000000000000000000000000000000000000000000000000000081526004018080602001828103825283818151815260200191508051906020019080838360005b8381101562000ace57808201518184015260208101905062000ab1565b50505050905090810190601f16801562000afc5780820380516001836020036101000a031916815260200191505b509250505060405180910390fd5b9392505050565b82805482825590600052602060002090810192821562000b8d579160200282015b8281111562000b8c5782518260006101000a81548173ffffffffffffffffffffffffffffffffffffffff021916908373ffffffffffffffffffffffffffffffffffffffff1602179055509160200191906001019062000b32565b5b50905062000b9c919062000c27565b5090565b828054600181600116156101000203166002900490600052602060002090601f016020900481019282601f1062000be357805160ff191683800117855562000c14565b8280016001018555821562000c14579182015b8281111562000c1357825182559160200191906001019062000bf6565b5b50905062000c23919062000c64565b5090565b5b8082111562000c6057600081816101000a81549073ffffffffffffffffffffffffffffffffffffffff02191690555060010162000c28565b5090565b5b8082111562000c7f57600081600090555060010162000c65565b5090565b615c4a8062000c936000396000f3fe6080604052600436106103035760003560e01c80638ade464911610190578063cfa8586d116100dc578063e91df3f811610095578063f6326fb31161006f578063f6326fb314611106578063f6d7eade14611110578063f756c10a14611151578063fdb5a03e1461117c5761030a565b8063e91df3f81461103f578063eb37acfc1461107a578063f2fde38b146110b55761030a565b8063cfa8586d14610e4d578063d5b9221b14610e7a578063d916eef114610ee1578063dd62ed3e14610f30578063de5d36e214610fb5578063e4456ecb146110045761030a565b8063a1ddf18c11610149578063a9059cbb11610123578063a9059cbb14610d19578063ad5c464814610d8a578063c83dd23114610dcb578063c9f801c714610e0c5761030a565b8063a1ddf18c14610bf4578063a457c2d714610c43578063a88f713314610cb45761030a565b80638ade464914610a175780638b149f4e14610a665780638da5cb5b14610aa157806391dcd7a714610ae257806395d89b4114610b235780639bab65b814610bb35761030a565b80634641257d1161024f578063715018a6116102085780637f068c0f116101e25780637f068c0f14610959578063874a094c146109705780638827c1cd1461099b5780638acdc34b146109c65761030a565b8063715018a6146108b257806374a4e489146108c9578063798b5c8a146109185761030a565b80634641257d1461071457806356a88c7f1461072b5780635a3f22d9146107905780635c975abb146107df57806369d463d51461080c57806370a082311461084d5761030a565b806323b872dd116102bc57806336dd10481161029657806336dd1048146105e857806339509351146106135780633c8588181461068457806344dcf755146106af5761030a565b806323b872dd146104fe5780632f390dc31461058f578063313ce567146105ba5761030a565b80630228b7241461030f57806306fdde031461036c578063095ea7b3146103fc57806316d550041461046d57806317c01eff146104a857806318160ddd146104d35761030a565b3661030a57005b600080fd5b34801561031b57600080fd5b5061036a6004803603604081101561033257600080fd5b81019080803573ffffffffffffffffffffffffffffffffffffffff169060200190929190803515159060200190929190505050611193565b005b34801561037857600080fd5b506103816112f4565b6040518080602001828103825283818151815260200191508051906020019080838360005b838110156103c15780820151818401526020810190506103a6565b50505050905090810190601f1680156103ee5780820380516001836020036101000a031916815260200191505b509250505060405180910390f35b34801561040857600080fd5b506104556004803603604081101561041f57600080fd5b81019080803573ffffffffffffffffffffffffffffffffffffffff16906020019092919080359060200190929190505050611396565b60405180821515815260200191505060405180910390f35b34801561047957600080fd5b506104a66004803603602081101561049057600080fd5b81019080803590602001909291905050506113b4565b005b3480156104b457600080fd5b506104bd6116af565b6040518082815260200191505060405180910390f35b3480156104df57600080fd5b506104e861176c565b6040518082815260200191505060405180910390f35b34801561050a57600080fd5b506105776004803603606081101561052157600080fd5b81019080803573ffffffffffffffffffffffffffffffffffffffff169060200190929190803573ffffffffffffffffffffffffffffffffffffffff16906020019092919080359060200190929190505050611776565b60405180821515815260200191505060405180910390f35b34801561059b57600080fd5b506105a461184f565b6040518082815260200191505060405180910390f35b3480156105c657600080fd5b506105cf61190b565b604051808260ff16815260200191505060405180910390f35b3480156105f457600080fd5b506105fd611922565b6040518082815260200191505060405180910390f35b34801561061f57600080fd5b5061066c6004803603604081101561063657600080fd5b81019080803573ffffffffffffffffffffffffffffffffffffffff16906020019092919080359060200190929190505050611931565b60405180821515815260200191505060405180910390f35b34801561069057600080fd5b506106996119e4565b6040518082815260200191505060405180910390f35b3480156106bb57600080fd5b506106e8600480360360208110156106d257600080fd5b8101908080359060200190929190505050611a0c565b604051808273ffffffffffffffffffffffffffffffffffffffff16815260200191505060405180910390f35b34801561072057600080fd5b50610729611a48565b005b34801561073757600080fd5b506107646004803603602081101561074e57600080fd5b8101908080359060200190929190505050611a52565b604051808273ffffffffffffffffffffffffffffffffffffffff16815260200191505060405180910390f35b34801561079c57600080fd5b506107c9600480360360208110156107b357600080fd5b8101908080359060200190929190505050611a8e565b6040518082815260200191505060405180910390f35b3480156107eb57600080fd5b506107f4611aa0565b60405180821515815260200191505060405180910390f35b34801561081857600080fd5b50610821611ab7565b604051808273ffffffffffffffffffffffffffffffffffffffff16815260200191505060405180910390f35b34801561085957600080fd5b5061089c6004803603602081101561087057600080fd5b81019080803573ffffffffffffffffffffffffffffffffffffffff169060200190929190505050611acf565b6040518082815260200191505060405180910390f35b3480156108be57600080fd5b506108c7611b17565b005b3480156108d557600080fd5b50610902600480360360208110156108ec57600080fd5b8101908080359060200190929190505050611c87565b6040518082815260200191505060405180910390f35b34801561092457600080fd5b5061092d611ce0565b604051808273ffffffffffffffffffffffffffffffffffffffff16815260200191505060405180910390f35b34801561096557600080fd5b5061096e611cf8565b005b34801561097c57600080fd5b50610985611e3d565b6040518082815260200191505060405180910390f35b3480156109a757600080fd5b506109b0611efa565b6040518082815260200191505060405180910390f35b3480156109d257600080fd5b50610a15600480360360208110156109e957600080fd5b81019080803573ffffffffffffffffffffffffffffffffffffffff169060200190929190505050611fb7565b005b348015610a2357600080fd5b50610a5060048036036020811015610a3a57600080fd5b810190808035906020019092919050505061212b565b6040518082815260200191505060405180910390f35b348015610a7257600080fd5b50610a9f60048036036020811015610a8957600080fd5b810190808035906020019092919050505061213d565b005b348015610aad57600080fd5b50610ab66126a1565b604051808273ffffffffffffffffffffffffffffffffffffffff16815260200191505060405180910390f35b348015610aee57600080fd5b50610af76126cb565b604051808273ffffffffffffffffffffffffffffffffffffffff16815260200191505060405180910390f35b348015610b2f57600080fd5b50610b386126f1565b6040518080602001828103825283818151815260200191508051906020019080838360005b83811015610b78578082015181840152602081019050610b5d565b50505050905090810190601f168015610ba55780820380516001836020036101000a031916815260200191505b509250505060405180910390f35b348015610bbf57600080fd5b50610bc8612793565b604051808273ffffffffffffffffffffffffffffffffffffffff16815260200191505060405180910390f35b348015610c0057600080fd5b50610c2d60048036036020811015610c1757600080fd5b81019080803590602001909291905050506127ab565b6040518082815260200191505060405180910390f35b348015610c4f57600080fd5b50610c9c60048036036040811015610c6657600080fd5b81019080803573ffffffffffffffffffffffffffffffffffffffff16906020019092919080359060200190929190505050612821565b60405180821515815260200191505060405180910390f35b348015610cc057600080fd5b50610d0360048036036020811015610cd757600080fd5b81019080803573ffffffffffffffffffffffffffffffffffffffff1690602001909291905050506128ee565b6040518082815260200191505060405180910390f35b348015610d2557600080fd5b50610d7260048036036040811015610d3c57600080fd5b81019080803573ffffffffffffffffffffffffffffffffffffffff169060200190929190803590602001909291905050506129bb565b60405180821515815260200191505060405180910390f35b348015610d9657600080fd5b50610d9f6129d9565b604051808273ffffffffffffffffffffffffffffffffffffffff16815260200191505060405180910390f35b348015610dd757600080fd5b50610de06129f1565b604051808273ffffffffffffffffffffffffffffffffffffffff16815260200191505060405180910390f35b348015610e1857600080fd5b50610e21612a09565b604051808273ffffffffffffffffffffffffffffffffffffffff16815260200191505060405180910390f35b348015610e5957600080fd5b50610e62612a21565b60405180821515815260200191505060405180910390f35b348015610e8657600080fd5b50610ec960048036036020811015610e9d57600080fd5b81019080803573ffffffffffffffffffffffffffffffffffffffff169060200190929190505050612a34565b60405180821515815260200191505060405180910390f35b348015610eed57600080fd5b50610f1a60048036036020811015610f0457600080fd5b8101908080359060200190929190505050612a54565b6040518082815260200191505060405180910390f35b348015610f3c57600080fd5b50610f9f60048036036040811015610f5357600080fd5b81019080803573ffffffffffffffffffffffffffffffffffffffff169060200190929190803573ffffffffffffffffffffffffffffffffffffffff169060200190929190505050612aca565b6040518082815260200191505060405180910390f35b348015610fc157600080fd5b50610fee60048036036020811015610fd857600080fd5b8101908080359060200190929190505050612b51565b6040518082815260200191505060405180910390f35b34801561101057600080fd5b5061103d6004803603602081101561102757600080fd5b8101908080359060200190929190505050612b63565b005b34801561104b57600080fd5b506110786004803603602081101561106257600080fd5b8101908080359060200190929190505050612b6f565b005b34801561108657600080fd5b506110b36004803603602081101561109d57600080fd5b8101908080359060200190929190505050612dd5565b005b3480156110c157600080fd5b50611104600480360360208110156110d857600080fd5b81019080803573ffffffffffffffffffffffffffffffffffffffff169060200190929190505050612de1565b005b61110e612fd6565b005b34801561111c57600080fd5b50611125613519565b604051808273ffffffffffffffffffffffffffffffffffffffff16815260200191505060405180910390f35b34801561115d57600080fd5b50611166613531565b6040518082815260200191505060405180910390f35b34801561118857600080fd5b50611191613537565b005b61119b6138fd565b73ffffffffffffffffffffffffffffffffffffffff166111b96126a1565b73ffffffffffffffffffffffffffffffffffffffff1614611242576040517f08c379a00000000000000000000000000000000000000000000000000000000081526004018080602001828103825260208152602001807f4f776e61626c653a2063616c6c6572206973206e6f7420746865206f776e657281525060200191505060405180910390fd5b80600a60008473ffffffffffffffffffffffffffffffffffffffff1673ffffffffffffffffffffffffffffffffffffffff16815260200190815260200160002060006101000a81548160ff0219169083151502179055507f8371bfb7e09e96bd284cd6ebcd94fb84e7a930dc6e717441494b03f213fe2f348282604051808373ffffffffffffffffffffffffffffffffffffffff16815260200182151581526020019250505060405180910390a15050565b606060038054600181600116156101000203166002900480601f01602080910402602001604051908101604052809291908181526020018280546001816001161561010002031660029004801561138c5780601f106113615761010080835404028352916020019161138c565b820191906000526020600020905b81548152906001019060200180831161136f57829003601f168201915b5050505050905090565b60006113aa6113a36138fd565b8484613905565b6001905092915050565b6002600654141561142d576040517f08c379a000000000000000000000000000000000000000000000000000000000815260040180806020018281038252601f8152602001807f5265656e7472616e637947756172643a207265656e7472616e742063616c6c0081525060200191505060405180910390fd5b600260068190555061143d611aa0565b156114b0576040517f08c379a00000000000000000000000000000000000000000000000000000000081526004018080602001828103825260108152602001807f5061757361626c653a207061757365640000000000000000000000000000000081525060200191505060405180910390fd5b3373ffffffffffffffffffffffffffffffffffffffff163273ffffffffffffffffffffffffffffffffffffffff1614806115335750600a60003373ffffffffffffffffffffffffffffffffffffffff1673ffffffffffffffffffffffffffffffffffffffff16815260200190815260200160002060009054906101000a900460ff165b611588576040517f08c379a0000000000000000000000000000000000000000000000000000000008152600401808060200182810382526037815260200180615ae16037913960400191505060405180910390fd5b600081116115fe576040517f08c379a000000000000000000000000000000000000000000000000000000000815260040180806020018281038252601c8152602001807f4379636c655661756c74504e473a203020504e47206465706f7369740000000081525060200191505060405180910390fd5b60006116086119e4565b905061164b3330847360781c2586d68229fde47564546784ab3faca98273ffffffffffffffffffffffffffffffffffffffff16613afc909392919063ffffffff16565b6116558282613bbd565b3373ffffffffffffffffffffffffffffffffffffffff167f616bcd15195e2a0a07fae2eeaf74c6373afbbc237b487e221e2b03d8aa35cf8e836040518082815260200191505060405180910390a250600160068190555050565b60007360781c2586d68229fde47564546784ab3faca98273ffffffffffffffffffffffffffffffffffffffff166370a08231306040518263ffffffff1660e01b8152600401808273ffffffffffffffffffffffffffffffffffffffff16815260200191505060206040518083038186803b15801561172c57600080fd5b505afa158015611740573d6000803e3d6000fd5b505050506040513d602081101561175657600080fd5b8101908080519060200190929190505050905090565b6000600254905090565b6000611783848484613d6b565b6118448461178f6138fd565b61183f85604051806060016040528060288152602001615a2a60289139600160008b73ffffffffffffffffffffffffffffffffffffffff1673ffffffffffffffffffffffffffffffffffffffff16815260200190815260200160002060006117f56138fd565b73ffffffffffffffffffffffffffffffffffffffff1673ffffffffffffffffffffffffffffffffffffffff1681526020019081526020016000205461402c9092919063ffffffff16565b613905565b600190509392505050565b600073d49b406a7a29d64e081164f6c3353c599a2eeae973ffffffffffffffffffffffffffffffffffffffff16628cc262306040518263ffffffff1660e01b8152600401808273ffffffffffffffffffffffffffffffffffffffff16815260200191505060206040518083038186803b1580156118cb57600080fd5b505afa1580156118df573d6000803e3d6000fd5b505050506040513d60208110156118f557600080fd5b8101908080519060200190929190505050905090565b6000600560009054906101000a900460ff16905090565b600061192c6119e4565b905090565b60006119da61193e6138fd565b846119d5856001600061194f6138fd565b73ffffffffffffffffffffffffffffffffffffffff1673ffffffffffffffffffffffffffffffffffffffff16815260200190815260200160002060008973ffffffffffffffffffffffffffffffffffffffff1673ffffffffffffffffffffffffffffffffffffffff168152602001908152602001600020546140e690919063ffffffff16565b613905565b6001905092915050565b6000611a076119f1611e3d565b6119f96116af565b6140e690919063ffffffff16565b905090565b60098181548110611a1957fe5b906000526020600020016000915054906101000a900473ffffffffffffffffffffffffffffffffffffffff1681565b611a50613537565b565b60088181548110611a5f57fe5b906000526020600020016000915054906101000a900473ffffffffffffffffffffffffffffffffffffffff1681565b6000611a9982612a54565b9050919050565b6000600760149054906101000a900460ff16905090565b73b18dcb184793be39550c6a055338286de94c755d81565b60008060008373ffffffffffffffffffffffffffffffffffffffff1673ffffffffffffffffffffffffffffffffffffffff168152602001908152602001600020549050919050565b611b1f6138fd565b73ffffffffffffffffffffffffffffffffffffffff16611b3d6126a1565b73ffffffffffffffffffffffffffffffffffffffff1614611bc6576040517f08c379a00000000000000000000000000000000000000000000000000000000081526004018080602001828103825260208152602001807f4f776e61626c653a2063616c6c6572206973206e6f7420746865206f776e657281525060200191505060405180910390fd5b600073ffffffffffffffffffffffffffffffffffffffff16600760009054906101000a900473ffffffffffffffffffffffffffffffffffffffff1673ffffffffffffffffffffffffffffffffffffffff167f8be0079c531659141344cd1fd0a4f28419497f9722a3daafe3b4186f6b6457e060405160405180910390a36000600760006101000a81548173ffffffffffffffffffffffffffffffffffffffff021916908373ffffffffffffffffffffffffffffffffffffffff160217905550565b600080611c9261176c565b14611ccf57611cca611ca261176c565b611cbc84611cae6119e4565b61416e90919063ffffffff16565b6141f490919063ffffffff16565b611cd9565b670de0b6b3a76400005b9050919050565b73d49b406a7a29d64e081164f6c3353c599a2eeae981565b611d006138fd565b73ffffffffffffffffffffffffffffffffffffffff16611d1e6126a1565b73ffffffffffffffffffffffffffffffffffffffff1614611da7576040517f08c379a00000000000000000000000000000000000000000000000000000000081526004018080602001828103825260208152602001807f4f776e61626c653a2063616c6c6572206973206e6f7420746865206f776e657281525060200191505060405180910390fd5b6000611db1611e3d565b905073d49b406a7a29d64e081164f6c3353c599a2eeae973ffffffffffffffffffffffffffffffffffffffff16632e1a7d4d826040518263ffffffff1660e01b815260040180828152602001915050600060405180830381600087803b158015611e1a57600080fd5b505af1158015611e2e573d6000803e3d6000fd5b50505050611e3a61427d565b50565b600073d49b406a7a29d64e081164f6c3353c599a2eeae973ffffffffffffffffffffffffffffffffffffffff166370a08231306040518263ffffffff1660e01b8152600401808273ffffffffffffffffffffffffffffffffffffffff16815260200191505060206040518083038186803b158015611eba57600080fd5b505afa158015611ece573d6000803e3d6000fd5b505050506040513d6020811015611ee457600080fd5b8101908080519060200190929190505050905090565b600073c778417e063141139fce010982780140aa0cd5ab73ffffffffffffffffffffffffffffffffffffffff166370a08231306040518263ffffffff1660e01b8152600401808273ffffffffffffffffffffffffffffffffffffffff16815260200191505060206040518083038186803b158015611f7757600080fd5b505afa158015611f8b573d6000803e3d6000fd5b505050506040513d6020811015611fa157600080fd5b8101908080519060200190929190505050905090565b611fbf6138fd565b73ffffffffffffffffffffffffffffffffffffffff16611fdd6126a1565b73ffffffffffffffffffffffffffffffffffffffff1614612066576040517f08c379a00000000000000000000000000000000000000000000000000000000081526004018080602001828103825260208152602001807f4f776e61626c653a2063616c6c6572206973206e6f7420746865206f776e657281525060200191505060405180910390fd5b600b60009054906101000a900460ff16156120cc576040517f08c379a0000000000000000000000000000000000000000000000000000000008152600401808060200182810382526033815260200180615be26033913960400191505060405180910390fd5b80600b60016101000a81548173ffffffffffffffffffffffffffffffffffffffff021916908373ffffffffffffffffffffffffffffffffffffffff1602179055506001600b60006101000a81548160ff02191690831515021790555050565b6000612136826127ab565b9050919050565b600260065414156121b6576040517f08c379a000000000000000000000000000000000000000000000000000000000815260040180806020018281038252601f8152602001807f5265656e7472616e637947756172643a207265656e7472616e742063616c6c0081525060200191505060405180910390fd5b60026006819055503373ffffffffffffffffffffffffffffffffffffffff163273ffffffffffffffffffffffffffffffffffffffff1614806122415750600a60003373ffffffffffffffffffffffffffffffffffffffff1673ffffffffffffffffffffffffffffffffffffffff16815260200190815260200160002060009054906101000a900460ff165b612296576040517f08c379a0000000000000000000000000000000000000000000000000000000008152600401808060200182810382526037815260200180615ae16037913960400191505060405180910390fd5b60006122a1336128ee565b9050808211156122fc576040517f08c379a00000000000000000000000000000000000000000000000000000000081526004018080602001828103825260368152602001806159876036913960400191505060405180910390fd5b600061230783614369565b905073e54ca86531e17ef3616d22ca28b0d458b6c8910673ffffffffffffffffffffffffffffffffffffffff166338ed1739826000600930426040518663ffffffff1660e01b815260040180868152602001858152602001806020018473ffffffffffffffffffffffffffffffffffffffff16815260200183815260200182810382528581815481526020019150805480156123f857602002820191906000526020600020905b8160009054906101000a900473ffffffffffffffffffffffffffffffffffffffff1673ffffffffffffffffffffffffffffffffffffffff16815260200190600101908083116123ae575b50509650505050505050600060405180830381600087803b15801561241c57600080fd5b505af1158015612430573d6000803e3d6000fd5b505050506040513d6000823e3d601f19601f82011682018060405250602081101561245a57600080fd5b810190808051604051939291908464010000000082111561247a57600080fd5b8382019150602082018581111561249057600080fd5b82518660208202830111640100000000821117156124ad57600080fd5b8083526020830192505050908051906020019060200280838360005b838110156124e45780820151818401526020810190506124c9565b505050509050016040525050505060006124fc611efa565b905073c778417e063141139fce010982780140aa0cd5ab73ffffffffffffffffffffffffffffffffffffffff16632e1a7d4d826040518263ffffffff1660e01b815260040180828152602001915050600060405180830381600087803b15801561256557600080fd5b505af1158015612579573d6000803e3d6000fd5b5050505060003373ffffffffffffffffffffffffffffffffffffffff168260405180600001905060006040518083038185875af1925050503d80600081146125dd576040519150601f19603f3d011682016040523d82523d6000602084013e6125e2565b606091505b505090508061263c576040517f08c379a00000000000000000000000000000000000000000000000000000000081526004018080602001828103825260258152602001806158d56025913960400191505060405180910390fd5b3373ffffffffffffffffffffffffffffffffffffffff167f23e722fdd4ff288e03665e20cf41a07cb18094385d9503bfae8b8b3c4751a3dc8385604051808381526020018281526020019250505060405180910390a250505050600160068190555050565b6000600760009054906101000a900473ffffffffffffffffffffffffffffffffffffffff16905090565b600b60019054906101000a900473ffffffffffffffffffffffffffffffffffffffff1681565b606060048054600181600116156101000203166002900480601f0160208091040260200160405190810160405280929190818152602001828054600181600116156101000203166002900480156127895780601f1061275e57610100808354040283529160200191612789565b820191906000526020600020905b81548152906001019060200180831161276c57829003601f168201915b5050505050905090565b7360781c2586d68229fde47564546784ab3faca98281565b6000808214156127be576000905061281c565b60008061280873efa94de7a4656d787667c749f7e1223d71e9fd8873c778417e063141139fce010982780140aa0cd5ab7360781c2586d68229fde47564546784ab3faca9826144dd565b91509150612817848284614606565b925050505b919050565b60006128e461282e6138fd565b846128df85604051806060016040528060258152602001615bbd60259139600160006128586138fd565b73ffffffffffffffffffffffffffffffffffffffff1673ffffffffffffffffffffffffffffffffffffffff16815260200190815260200160002060008a73ffffffffffffffffffffffffffffffffffffffff1673ffffffffffffffffffffffffffffffffffffffff1681526020019081526020016000205461402c9092919063ffffffff16565b613905565b6001905092915050565b6000600b60019054906101000a900473ffffffffffffffffffffffffffffffffffffffff1673ffffffffffffffffffffffffffffffffffffffff166370a08231836040518263ffffffff1660e01b8152600401808273ffffffffffffffffffffffffffffffffffffffff16815260200191505060206040518083038186803b15801561297957600080fd5b505afa15801561298d573d6000803e3d6000fd5b505050506040513d60208110156129a357600080fd5b81019080805190602001909291905050509050919050565b60006129cf6129c86138fd565b8484613d6b565b6001905092915050565b73c778417e063141139fce010982780140aa0cd5ab81565b73efa94de7a4656d787667c749f7e1223d71e9fd8881565b73e97a562f03637b067324eef459fef982bfff28d081565b600b60009054906101000a900460ff1681565b600a6020528060005260406000206000915054906101000a900460ff1681565b600080821415612a675760009050612ac5565b600080612ab173efa94de7a4656d787667c749f7e1223d71e9fd8873c778417e063141139fce010982780140aa0cd5ab7360781c2586d68229fde47564546784ab3faca9826144dd565b91509150612ac0848284614736565b925050505b919050565b6000600160008473ffffffffffffffffffffffffffffffffffffffff1673ffffffffffffffffffffffffffffffffffffffff16815260200190815260200160002060008373ffffffffffffffffffffffffffffffffffffffff1673ffffffffffffffffffffffffffffffffffffffff16815260200190815260200160002054905092915050565b6000612b5c82611c87565b9050919050565b612b6c81612b6f565b50565b60026006541415612be8576040517f08c379a000000000000000000000000000000000000000000000000000000000815260040180806020018281038252601f8152602001807f5265656e7472616e637947756172643a207265656e7472616e742063616c6c0081525060200191505060405180910390fd5b60026006819055503373ffffffffffffffffffffffffffffffffffffffff163273ffffffffffffffffffffffffffffffffffffffff161480612c735750600a60003373ffffffffffffffffffffffffffffffffffffffff1673ffffffffffffffffffffffffffffffffffffffff16815260200190815260200160002060009054906101000a900460ff165b612cc8576040517f08c379a0000000000000000000000000000000000000000000000000000000008152600401808060200182810382526037815260200180615ae16037913960400191505060405180910390fd5b6000612cd3336128ee565b905080821115612d2e576040517f08c379a00000000000000000000000000000000000000000000000000000000081526004018080602001828103825260368152602001806159876036913960400191505060405180910390fd5b6000612d3983614369565b9050612d7a33827360781c2586d68229fde47564546784ab3faca98273ffffffffffffffffffffffffffffffffffffffff166148379092919063ffffffff16565b3373ffffffffffffffffffffffffffffffffffffffff167f94f8b89c835d2b8131fa97e7044ad776868da4dc3545acd7ba1eb3d2379df4ff826040518082815260200191505060405180910390a25050600160068190555050565b612dde816113b4565b50565b612de96138fd565b73ffffffffffffffffffffffffffffffffffffffff16612e076126a1565b73ffffffffffffffffffffffffffffffffffffffff1614612e90576040517f08c379a00000000000000000000000000000000000000000000000000000000081526004018080602001828103825260208152602001807f4f776e61626c653a2063616c6c6572206973206e6f7420746865206f776e657281525060200191505060405180910390fd5b600073ffffffffffffffffffffffffffffffffffffffff168173ffffffffffffffffffffffffffffffffffffffff161415612f16576040517f08c379a000000000000000000000000000000000000000000000000000000000815260040180806020018281038252602681526020018061593f6026913960400191505060405180910390fd5b8073ffffffffffffffffffffffffffffffffffffffff16600760009054906101000a900473ffffffffffffffffffffffffffffffffffffffff1673ffffffffffffffffffffffffffffffffffffffff167f8be0079c531659141344cd1fd0a4f28419497f9722a3daafe3b4186f6b6457e060405160405180910390a380600760006101000a81548173ffffffffffffffffffffffffffffffffffffffff021916908373ffffffffffffffffffffffffffffffffffffffff16021790555050565b6002600654141561304f576040517f08c379a000000000000000000000000000000000000000000000000000000000815260040180806020018281038252601f8152602001807f5265656e7472616e637947756172643a207265656e7472616e742063616c6c0081525060200191505060405180910390fd5b600260068190555061305f611aa0565b156130d2576040517f08c379a00000000000000000000000000000000000000000000000000000000081526004018080602001828103825260108152602001807f5061757361626c653a207061757365640000000000000000000000000000000081525060200191505060405180910390fd5b3373ffffffffffffffffffffffffffffffffffffffff163273ffffffffffffffffffffffffffffffffffffffff1614806131555750600a60003373ffffffffffffffffffffffffffffffffffffffff1673ffffffffffffffffffffffffffffffffffffffff16815260200190815260200160002060009054906101000a900460ff165b6131aa576040517f08c379a0000000000000000000000000000000000000000000000000000000008152600401808060200182810382526037815260200180615ae16037913960400191505060405180910390fd5b600034905060008111613225576040517f08c379a000000000000000000000000000000000000000000000000000000000815260040180806020018281038252601c8152602001807f4379636c655661756c74504e473a203020455448206465706f7369740000000081525060200191505060405180910390fd5b600061322f6119e4565b905073c778417e063141139fce010982780140aa0cd5ab73ffffffffffffffffffffffffffffffffffffffff1663d0e30db0836040518263ffffffff1660e01b81526004016000604051808303818588803b15801561328d57600080fd5b505af11580156132a1573d6000803e3d6000fd5b5050505050606073e54ca86531e17ef3616d22ca28b0d458b6c8910673ffffffffffffffffffffffffffffffffffffffff166338ed1739846000600830426040518663ffffffff1660e01b815260040180868152602001858152602001806020018473ffffffffffffffffffffffffffffffffffffffff168152602001838152602001828103825285818154815260200191508054801561339757602002820191906000526020600020905b8160009054906101000a900473ffffffffffffffffffffffffffffffffffffffff1673ffffffffffffffffffffffffffffffffffffffff168152602001906001019080831161334d575b50509650505050505050600060405180830381600087803b1580156133bb57600080fd5b505af11580156133cf573d6000803e3d6000fd5b505050506040513d6000823e3d601f19601f8201168201806040525060208110156133f957600080fd5b810190808051604051939291908464010000000082111561341957600080fd5b8382019150602082018581111561342f57600080fd5b825186602082028301116401000000008211171561344c57600080fd5b8083526020830192505050908051906020019060200280838360005b83811015613483578082015181840152602081019050613468565b5050505090500160405250505090506000816001815181106134a157fe5b602002602001015190506134b58184613bbd565b3373ffffffffffffffffffffffffffffffffffffffff167f91e00c3c6f2ab2670587cd81e36cda507770bc13241831e1ee67fd16ce5b6eb08583604051808381526020018281526020019250505060405180910390a2505050506001600681905550565b73e54ca86531e17ef3616d22ca28b0d458b6c8910681565b61271081565b600260065414156135b0576040517f08c379a000000000000000000000000000000000000000000000000000000000815260040180806020018281038252601f8152602001807f5265656e7472616e637947756172643a207265656e7472616e742063616c6c0081525060200191505060405180910390fd5b60026006819055506135c0611aa0565b15613633576040517f08c379a00000000000000000000000000000000000000000000000000000000081526004018080602001828103825260108152602001807f5061757361626c653a207061757365640000000000000000000000000000000081525060200191505060405180910390fd5b61363c336148d9565b15613692576040517f08c379a0000000000000000000000000000000000000000000000000000000008152600401808060200182810382526023815260200180615b9a6023913960400191505060405180910390fd5b73d49b406a7a29d64e081164f6c3353c599a2eeae973ffffffffffffffffffffffffffffffffffffffff16633d18b9126040518163ffffffff1660e01b8152600401600060405180830381600087803b1580156136ee57600080fd5b505af1158015613702573d6000803e3d6000fd5b5050505061370e6148ec565b613716614bcd565b6001600681905550565b60008114806137ee575060008373ffffffffffffffffffffffffffffffffffffffff1663dd62ed3e30856040518363ffffffff1660e01b8152600401808373ffffffffffffffffffffffffffffffffffffffff1681526020018273ffffffffffffffffffffffffffffffffffffffff1681526020019250505060206040518083038186803b1580156137b157600080fd5b505afa1580156137c5573d6000803e3d6000fd5b505050506040513d60208110156137db57600080fd5b8101908080519060200190929190505050145b613843576040517f08c379a0000000000000000000000000000000000000000000000000000000008152600401808060200182810382526036815260200180615b426036913960400191505060405180910390fd5b6138e08363095ea7b360e01b8484604051602401808373ffffffffffffffffffffffffffffffffffffffff16815260200182815260200192505050604051602081830303815290604052907bffffffffffffffffffffffffffffffffffffffffffffffffffffffff19166020820180517bffffffffffffffffffffffffffffffffffffffffffffffffffffffff8381831617835250505050614eb0565b505050565b60606138f48484600085614f9f565b90509392505050565b600033905090565b600073ffffffffffffffffffffffffffffffffffffffff168373ffffffffffffffffffffffffffffffffffffffff16141561398b576040517f08c379a0000000000000000000000000000000000000000000000000000000008152600401808060200182810382526024815260200180615abd6024913960400191505060405180910390fd5b600073ffffffffffffffffffffffffffffffffffffffff168273ffffffffffffffffffffffffffffffffffffffff161415613a11576040517f08c379a00000000000000000000000000000000000000000000000000000000081526004018080602001828103825260228152602001806159656022913960400191505060405180910390fd5b80600160008573ffffffffffffffffffffffffffffffffffffffff1673ffffffffffffffffffffffffffffffffffffffff16815260200190815260200160002060008473ffffffffffffffffffffffffffffffffffffffff1673ffffffffffffffffffffffffffffffffffffffff168152602001908152602001600020819055508173ffffffffffffffffffffffffffffffffffffffff168373ffffffffffffffffffffffffffffffffffffffff167f8c5be1e5ebec7d5bd14f71427d1e84f3dd0314c0f7b2291e5b200ac8c7c3b925836040518082815260200191505060405180910390a3505050565b613bb7846323b872dd60e01b858585604051602401808473ffffffffffffffffffffffffffffffffffffffff1681526020018373ffffffffffffffffffffffffffffffffffffffff1681526020018281526020019350505050604051602081830303815290604052907bffffffffffffffffffffffffffffffffffffffffffffffffffffffff19166020820180517bffffffffffffffffffffffffffffffffffffffffffffffffffffffff8381831617835250505050614eb0565b50505050565b600080613bc861176c565b1415613bd657829050613c05565b613c0282613bf4613be561176c565b8661416e90919063ffffffff16565b6141f490919063ffffffff16565b90505b613c0f3082615148565b613c3c30600b60019054906101000a900473ffffffffffffffffffffffffffffffffffffffff1683613905565b600b60019054906101000a900473ffffffffffffffffffffffffffffffffffffffff1673ffffffffffffffffffffffffffffffffffffffff16635beeee0d82336040518363ffffffff1660e01b8152600401808381526020018273ffffffffffffffffffffffffffffffffffffffff16815260200192505050600060405180830381600087803b158015613ccf57600080fd5b505af1158015613ce3573d6000803e3d6000fd5b5050505073d49b406a7a29d64e081164f6c3353c599a2eeae973ffffffffffffffffffffffffffffffffffffffff1663a694fc3a846040518263ffffffff1660e01b815260040180828152602001915050600060405180830381600087803b158015613d4e57600080fd5b505af1158015613d62573d6000803e3d6000fd5b50505050505050565b600073ffffffffffffffffffffffffffffffffffffffff168373ffffffffffffffffffffffffffffffffffffffff161415613df1576040517f08c379a0000000000000000000000000000000000000000000000000000000008152600401808060200182810382526025815260200180615a986025913960400191505060405180910390fd5b600073ffffffffffffffffffffffffffffffffffffffff168273ffffffffffffffffffffffffffffffffffffffff161415613e77576040517f08c379a00000000000000000000000000000000000000000000000000000000081526004018080602001828103825260238152602001806158fa6023913960400191505060405180910390fd5b613e8283838361530f565b613eed816040518060600160405280602681526020016159bd602691396000808773ffffffffffffffffffffffffffffffffffffffff1673ffffffffffffffffffffffffffffffffffffffff1681526020019081526020016000205461402c9092919063ffffffff16565b6000808573ffffffffffffffffffffffffffffffffffffffff1673ffffffffffffffffffffffffffffffffffffffff16815260200190815260200160002081905550613f80816000808573ffffffffffffffffffffffffffffffffffffffff1673ffffffffffffffffffffffffffffffffffffffff168152602001908152602001600020546140e690919063ffffffff16565b6000808473ffffffffffffffffffffffffffffffffffffffff1673ffffffffffffffffffffffffffffffffffffffff168152602001908152602001600020819055508173ffffffffffffffffffffffffffffffffffffffff168373ffffffffffffffffffffffffffffffffffffffff167fddf252ad1be2c89b69c2b068fc378daa952ba7f163c4a11628f55a4df523b3ef836040518082815260200191505060405180910390a3505050565b60008383111582906140d9576040517f08c379a00000000000000000000000000000000000000000000000000000000081526004018080602001828103825283818151815260200191508051906020019080838360005b8381101561409e578082015181840152602081019050614083565b50505050905090810190601f1680156140cb5780820380516001836020036101000a031916815260200191505b509250505060405180910390fd5b5082840390509392505050565b600080828401905083811015614164576040517f08c379a000000000000000000000000000000000000000000000000000000000815260040180806020018281038252601b8152602001807f536166654d6174683a206164646974696f6e206f766572666c6f77000000000081525060200191505060405180910390fd5b8091505092915050565b60008083141561418157600090506141ee565b600082840290508284828161419257fe5b04146141e9576040517f08c379a0000000000000000000000000000000000000000000000000000000008152600401808060200182810382526021815260200180615a096021913960400191505060405180910390fd5b809150505b92915050565b600080821161426b576040517f08c379a000000000000000000000000000000000000000000000000000000000815260040180806020018281038252601a8152602001807f536166654d6174683a206469766973696f6e206279207a65726f00000000000081525060200191505060405180910390fd5b81838161427457fe5b04905092915050565b614285611aa0565b156142f8576040517f08c379a00000000000000000000000000000000000000000000000000000000081526004018080602001828103825260108152602001807f5061757361626c653a207061757365640000000000000000000000000000000081525060200191505060405180910390fd5b6001600760146101000a81548160ff0219169083151502179055507f62e78cea01bee320cd4e420270b5ea74000d11b0c9f74754ebdbfc544b05a25861433c6138fd565b604051808273ffffffffffffffffffffffffffffffffffffffff16815260200191505060405180910390a1565b600061437482611c87565b9050600b60019054906101000a900473ffffffffffffffffffffffffffffffffffffffff1673ffffffffffffffffffffffffffffffffffffffff16633c95832f83336040518363ffffffff1660e01b8152600401808381526020018273ffffffffffffffffffffffffffffffffffffffff16815260200192505050600060405180830381600087803b15801561440957600080fd5b505af115801561441d573d6000803e3d6000fd5b5050505061442b3083615314565b60006144356116af565b9050818110156144d757600061445482846154d890919063ffffffff16565b905073d49b406a7a29d64e081164f6c3353c599a2eeae973ffffffffffffffffffffffffffffffffffffffff16632e1a7d4d826040518263ffffffff1660e01b815260040180828152602001915050600060405180830381600087803b1580156144bd57600080fd5b505af11580156144d1573d6000803e3d6000fd5b50505050505b50919050565b60008060006144ec858561555b565b5090506000806144fd8888886156ef565b73ffffffffffffffffffffffffffffffffffffffff16630902f1ac6040518163ffffffff1660e01b815260040160606040518083038186803b15801561454257600080fd5b505afa158015614556573d6000803e3d6000fd5b505050506040513d606081101561456c57600080fd5b81019080805190602001909291908051906020019092919080519060200190929190505050506dffffffffffffffffffffffffffff1691506dffffffffffffffffffffffffffff1691508273ffffffffffffffffffffffffffffffffffffffff168773ffffffffffffffffffffffffffffffffffffffff16146145f05780826145f3565b81815b8095508196505050505050935093915050565b6000808411614660576040517f08c379a0000000000000000000000000000000000000000000000000000000008152600401808060200182810382526025815260200180615a526025913960400191505060405180910390fd5b6000831180156146705750600082115b6146c5576040517f08c379a0000000000000000000000000000000000000000000000000000000008152600401808060200182810382526022815260200180615b786022913960400191505060405180910390fd5b60006146dc6103e58661416e90919063ffffffff16565b905060006146f3848361416e90919063ffffffff16565b9050600061471e836147106103e88961416e90919063ffffffff16565b6140e690919063ffffffff16565b905080828161472957fe5b0493505050509392505050565b60008084116147ad576040517f08c379a000000000000000000000000000000000000000000000000000000000815260040180806020018281038252601f8152602001807f414d4d4c6962726172793a20494e53554646494349454e545f414d4f554e540081525060200191505060405180910390fd5b6000831180156147bd5750600082115b614812576040517f08c379a0000000000000000000000000000000000000000000000000000000008152600401808060200182810382526022815260200180615b786022913960400191505060405180910390fd5b82614826838661416e90919063ffffffff16565b8161482d57fe5b0490509392505050565b6148d48363a9059cbb60e01b8484604051602401808373ffffffffffffffffffffffffffffffffffffffff16815260200182815260200192505050604051602081830303815290604052907bffffffffffffffffffffffffffffffffffffffffffffffffffffffff19166020820180517bffffffffffffffffffffffffffffffffffffffffffffffffffffffff8381831617835250505050614eb0565b505050565b600080823b905060008111915050919050565b600073b18dcb184793be39550c6a055338286de94c755d73ffffffffffffffffffffffffffffffffffffffff16639297c5306040518163ffffffff1660e01b8152600401602060405180830381600087803b15801561494a57600080fd5b505af115801561495e573d6000803e3d6000fd5b505050506040513d602081101561497457600080fd5b81019080805190602001909291905050509050600073b18dcb184793be39550c6a055338286de94c755d73ffffffffffffffffffffffffffffffffffffffff1663ecc6f5b66040518163ffffffff1660e01b8152600401602060405180830381600087803b1580156149e557600080fd5b505af11580156149f9573d6000803e3d6000fd5b505050506040513d6020811015614a0f57600080fd5b810190808051906020019092919050505090506000614a3782846140e690919063ffffffff16565b90506000614a69612710614a5b84614a4d611efa565b61416e90919063ffffffff16565b6141f490919063ffffffff16565b90506000614a9283614a84878561416e90919063ffffffff16565b6141f490919063ffffffff16565b90506000614aa982846154d890919063ffffffff16565b9050600073e97a562f03637b067324eef459fef982bfff28d073ffffffffffffffffffffffffffffffffffffffff1663e2af71776040518163ffffffff1660e01b8152600401602060405180830381600087803b158015614b0957600080fd5b505af1158015614b1d573d6000803e3d6000fd5b505050506040513d6020811015614b3357600080fd5b81019080805190602001909291905050509050614b85818473c778417e063141139fce010982780140aa0cd5ab73ffffffffffffffffffffffffffffffffffffffff166148379092919063ffffffff16565b614bc4338373c778417e063141139fce010982780140aa0cd5ab73ffffffffffffffffffffffffffffffffffffffff166148379092919063ffffffff16565b50505050505050565b6000614bd7611efa565b9050606073e54ca86531e17ef3616d22ca28b0d458b6c8910673ffffffffffffffffffffffffffffffffffffffff166338ed1739836000600830426040518663ffffffff1660e01b815260040180868152602001858152602001806020018473ffffffffffffffffffffffffffffffffffffffff1681526020018381526020018281038252858181548152602001915080548015614cca57602002820191906000526020600020905b8160009054906101000a900473ffffffffffffffffffffffffffffffffffffffff1673ffffffffffffffffffffffffffffffffffffffff1681526020019060010190808311614c80575b50509650505050505050600060405180830381600087803b158015614cee57600080fd5b505af1158015614d02573d6000803e3d6000fd5b505050506040513d6000823e3d601f19601f820116820180604052506020811015614d2c57600080fd5b8101908080516040519392919084640100000000821115614d4c57600080fd5b83820191506020820185811115614d6257600080fd5b8251866020820283011164010000000082111715614d7f57600080fd5b8083526020830192505050908051906020019060200280838360005b83811015614db6578082015181840152602081019050614d9b565b505050509050016040525050509050600081600181518110614dd457fe5b6020026020010151905073d49b406a7a29d64e081164f6c3353c599a2eeae973ffffffffffffffffffffffffffffffffffffffff1663a694fc3a826040518263ffffffff1660e01b815260040180828152602001915050600060405180830381600087803b158015614e4557600080fd5b505af1158015614e59573d6000803e3d6000fd5b505050503373ffffffffffffffffffffffffffffffffffffffff167f9a8e1011707e799a370fa0f0c62117485535319c2f9174a97e78a0512b57045f826040518082815260200191505060405180910390a2505050565b6060614f12826040518060400160405280602081526020017f5361666545524332303a206c6f772d6c6576656c2063616c6c206661696c65648152508573ffffffffffffffffffffffffffffffffffffffff166138e59092919063ffffffff16565b9050600081511115614f9a57808060200190516020811015614f3357600080fd5b8101908080519060200190929190505050614f99576040517f08c379a000000000000000000000000000000000000000000000000000000000815260040180806020018281038252602a815260200180615b18602a913960400191505060405180910390fd5b5b505050565b606082471015614ffa576040517f08c379a00000000000000000000000000000000000000000000000000000000081526004018080602001828103825260268152602001806159e36026913960400191505060405180910390fd5b615003856148d9565b615075576040517f08c379a000000000000000000000000000000000000000000000000000000000815260040180806020018281038252601d8152602001807f416464726573733a2063616c6c20746f206e6f6e2d636f6e747261637400000081525060200191505060405180910390fd5b600060608673ffffffffffffffffffffffffffffffffffffffff1685876040518082805190602001908083835b602083106150c557805182526020820191506020810190506020830392506150a2565b6001836020036101000a03801982511681845116808217855250505050505090500191505060006040518083038185875af1925050503d8060008114615127576040519150601f19603f3d011682016040523d82523d6000602084013e61512c565b606091505b509150915061513c828286615808565b92505050949350505050565b600073ffffffffffffffffffffffffffffffffffffffff168273ffffffffffffffffffffffffffffffffffffffff1614156151eb576040517f08c379a000000000000000000000000000000000000000000000000000000000815260040180806020018281038252601f8152602001807f45524332303a206d696e7420746f20746865207a65726f20616464726573730081525060200191505060405180910390fd5b6151f76000838361530f565b61520c816002546140e690919063ffffffff16565b600281905550615263816000808573ffffffffffffffffffffffffffffffffffffffff1673ffffffffffffffffffffffffffffffffffffffff168152602001908152602001600020546140e690919063ffffffff16565b6000808473ffffffffffffffffffffffffffffffffffffffff1673ffffffffffffffffffffffffffffffffffffffff168152602001908152602001600020819055508173ffffffffffffffffffffffffffffffffffffffff16600073ffffffffffffffffffffffffffffffffffffffff167fddf252ad1be2c89b69c2b068fc378daa952ba7f163c4a11628f55a4df523b3ef836040518082815260200191505060405180910390a35050565b505050565b600073ffffffffffffffffffffffffffffffffffffffff168273ffffffffffffffffffffffffffffffffffffffff16141561539a576040517f08c379a0000000000000000000000000000000000000000000000000000000008152600401808060200182810382526021815260200180615a776021913960400191505060405180910390fd5b6153a68260008361530f565b6154118160405180606001604052806022815260200161591d602291396000808673ffffffffffffffffffffffffffffffffffffffff1673ffffffffffffffffffffffffffffffffffffffff1681526020019081526020016000205461402c9092919063ffffffff16565b6000808473ffffffffffffffffffffffffffffffffffffffff1673ffffffffffffffffffffffffffffffffffffffff16815260200190815260200160002081905550615468816002546154d890919063ffffffff16565b600281905550600073ffffffffffffffffffffffffffffffffffffffff168273ffffffffffffffffffffffffffffffffffffffff167fddf252ad1be2c89b69c2b068fc378daa952ba7f163c4a11628f55a4df523b3ef836040518082815260200191505060405180910390a35050565b600082821115615550576040517f08c379a000000000000000000000000000000000000000000000000000000000815260040180806020018281038252601e8152602001807f536166654d6174683a207375627472616374696f6e206f766572666c6f77000081525060200191505060405180910390fd5b818303905092915050565b6000808273ffffffffffffffffffffffffffffffffffffffff168473ffffffffffffffffffffffffffffffffffffffff161415615600576040517f08c379a000000000000000000000000000000000000000000000000000000000815260040180806020018281038252601f8152602001807f414d4d4c6962726172793a204944454e544943414c5f4144445245535345530081525060200191505060405180910390fd5b8273ffffffffffffffffffffffffffffffffffffffff168473ffffffffffffffffffffffffffffffffffffffff161061563a57828461563d565b83835b8092508193505050600073ffffffffffffffffffffffffffffffffffffffff168273ffffffffffffffffffffffffffffffffffffffff1614156156e8576040517f08c379a00000000000000000000000000000000000000000000000000000000081526004018080602001828103825260188152602001807f414d4d4c6962726172793a205a45524f5f41444452455353000000000000000081525060200191505060405180910390fd5b9250929050565b60008060006156fe858561555b565b91509150858282604051602001808373ffffffffffffffffffffffffffffffffffffffff1660601b81526014018273ffffffffffffffffffffffffffffffffffffffff1660601b8152601401925050506040516020818303038152906040528051906020012060405160200180807fff000000000000000000000000000000000000000000000000000000000000008152506001018373ffffffffffffffffffffffffffffffffffffffff1660601b8152601401828152602001807f40231f6b438bce0797c9ada29b718a87ea0a5cea3fe9a771abdd76bd41a3e545815250602001925050506040516020818303038152906040528051906020012060001c925050509392505050565b60608315615818578290506158cd565b60008351111561582b5782518084602001fd5b816040517f08c379a00000000000000000000000000000000000000000000000000000000081526004018080602001828103825283818151815260200191508051906020019080838360005b83811015615892578082015181840152602081019050615877565b50505050905090810190601f1680156158bf5780820380516001836020036101000a031916815260200191505b509250505060405180910390fd5b939250505056fe4379636c655661756c74504e473a20556e61626c6520746f207472616e736665722045544845524332303a207472616e7366657220746f20746865207a65726f206164647265737345524332303a206275726e20616d6f756e7420657863656564732062616c616e63654f776e61626c653a206e6577206f776e657220697320746865207a65726f206164647265737345524332303a20617070726f766520746f20746865207a65726f20616464726573734379636c655661756c74504e473a20496e73756666696369656e742073686172652062616c616e636520666f7220776974686472617745524332303a207472616e7366657220616d6f756e7420657863656564732062616c616e6365416464726573733a20696e73756666696369656e742062616c616e636520666f722063616c6c536166654d6174683a206d756c7469706c69636174696f6e206f766572666c6f7745524332303a207472616e7366657220616d6f756e74206578636565647320616c6c6f77616e6365414d4d4c6962726172793a20494e53554646494349454e545f494e5055545f414d4f554e5445524332303a206275726e2066726f6d20746865207a65726f206164647265737345524332303a207472616e736665722066726f6d20746865207a65726f206164647265737345524332303a20617070726f76652066726f6d20746865207a65726f20616464726573734379636c655661756c74504e473a2043616c6c6572206973206e6f7420454f41206f7220617574686f72697a656420636f6e74726163745361666545524332303a204552433230206f7065726174696f6e20646964206e6f7420737563636565645361666545524332303a20617070726f76652066726f6d206e6f6e2d7a65726f20746f206e6f6e2d7a65726f20616c6c6f77616e6365414d4d4c6962726172793a20494e53554646494349454e545f4c49515549444954594379636c655661756c74504e473a2043616c6c6572206973206e6f7420616e20454f4145524332303a2064656372656173656420616c6c6f77616e63652062656c6f77207a65726f4379636c655661756c74504e473a205265776172647320616464726573732068617320616c7265616479206265656e20736574a2646970667358221220cbde3505e5bc24e928004e0f990ba3c3875aead80deafc627755165bb706042564736f6c634300060c0033416464726573733a20696e73756666696369656e742062616c616e636520666f722063616c6c5361666545524332303a204552433230206f7065726174696f6e20646964206e6f7420737563636565645361666545524332303a20617070726f76652066726f6d206e6f6e2d7a65726f20746f206e6f6e2d7a65726f20616c6c6f77616e6365",
  "linkReferences": {},
  "deployedLinkReferences": {}
}