{
  "_format": "hh-sol-artifact-1",
  "contractName": "ProcessorV5",
  "sourceName": "contracts/ProcessorV5.sol",
  "abi": [
    {
      "inputs": [
        {
          "internalType": "address",
          "name": "_ETHRewards",
          "type": "address"
        },
        {
          "internalType": "address",
          "name": "_Proxy",
          "type": "address"
        },
        {
          "internalType": "address",
          "name": "_Team",
          "type": "address"
        },
        {
          "internalType": "uint256",
          "name": "_teamBP",
          "type": "uint256"
        },
        {
          "internalType": "uint256",
          "name": "_emission",
          "type": "uint256"
        }
      ],
      "stateMutability": "nonpayable",
      "type": "constructor"
    },
    {
      "anonymous": false,
      "inputs": [
        {
          "indexed": false,
          "internalType": "address",
          "name": "ETHRewards",
          "type": "address"
        }
      ],
      "name": "ETHRewardsUpdated",
      "type": "event"
    },
    {
      "anonymous": false,
      "inputs": [
        {
          "indexed": false,
          "internalType": "uint256",
          "name": "newEmission",
          "type": "uint256"
        }
      ],
      "name": "EmissionUpdated",
      "type": "event"
    },
    {
      "anonymous": false,
      "inputs": [
        {
          "indexed": true,
          "internalType": "address",
          "name": "previousOwner",
          "type": "address"
        },
        {
          "indexed": true,
          "internalType": "address",
          "name": "newOwner",
          "type": "address"
        }
      ],
      "name": "OwnershipTransferred",
      "type": "event"
    },
    {
      "anonymous": false,
      "inputs": [
        {
          "indexed": false,
          "internalType": "address",
          "name": "Proxy",
          "type": "address"
        }
      ],
      "name": "ProxyUpdated",
      "type": "event"
    },
    {
      "anonymous": false,
      "inputs": [
        {
          "indexed": false,
          "internalType": "uint256",
          "name": "amountCYCLE",
          "type": "uint256"
        }
      ],
      "name": "RewardsProcessed",
      "type": "event"
    },
    {
      "anonymous": false,
      "inputs": [
        {
          "indexed": false,
          "internalType": "uint256",
          "name": "teamBP",
          "type": "uint256"
        }
      ],
      "name": "TeamBPUpdated",
      "type": "event"
    },
    {
      "anonymous": false,
      "inputs": [
        {
          "indexed": false,
          "internalType": "address",
          "name": "Team",
          "type": "address"
        }
      ],
      "name": "TeamUpdated",
      "type": "event"
    },
    {
      "inputs": [],
      "name": "BP_DIV",
      "outputs": [
        {
          "internalType": "uint256",
          "name": "",
          "type": "uint256"
        }
      ],
      "stateMutability": "view",
      "type": "function"
    },
    {
      "inputs": [],
      "name": "CYCLE",
      "outputs": [
        {
          "internalType": "address",
          "name": "",
          "type": "address"
        }
      ],
      "stateMutability": "view",
      "type": "function"
    },
    {
      "inputs": [],
      "name": "ETHRewards",
      "outputs": [
        {
          "internalType": "address",
          "name": "",
          "type": "address"
        }
      ],
      "stateMutability": "view",
      "type": "function"
    },
    {
      "inputs": [],
      "name": "Proxy",
      "outputs": [
        {
          "internalType": "address",
          "name": "",
          "type": "address"
        }
      ],
      "stateMutability": "view",
      "type": "function"
    },
    {
      "inputs": [],
      "name": "Team",
      "outputs": [
        {
          "internalType": "address",
          "name": "",
          "type": "address"
        }
      ],
      "stateMutability": "view",
      "type": "function"
    },
    {
      "inputs": [],
      "name": "WETH",
      "outputs": [
        {
          "internalType": "address",
          "name": "",
          "type": "address"
        }
      ],
      "stateMutability": "view",
      "type": "function"
    },
    {
      "inputs": [],
      "name": "balanceCYCLE",
      "outputs": [
        {
          "internalType": "uint256",
          "name": "",
          "type": "uint256"
        }
      ],
      "stateMutability": "view",
      "type": "function"
    },
    {
      "inputs": [],
      "name": "balanceWETH",
      "outputs": [
        {
          "internalType": "uint256",
          "name": "",
          "type": "uint256"
        }
      ],
      "stateMutability": "view",
      "type": "function"
    },
    {
      "inputs": [],
      "name": "clearRewards",
      "outputs": [],
      "stateMutability": "nonpayable",
      "type": "function"
    },
    {
      "inputs": [],
      "name": "emission",
      "outputs": [
        {
          "internalType": "uint256",
          "name": "",
          "type": "uint256"
        }
      ],
      "stateMutability": "view",
      "type": "function"
    },
    {
      "inputs": [],
      "name": "owner",
      "outputs": [
        {
          "internalType": "address",
          "name": "",
          "type": "address"
        }
      ],
      "stateMutability": "view",
      "type": "function"
    },
    {
      "inputs": [],
      "name": "process",
      "outputs": [],
      "stateMutability": "nonpayable",
      "type": "function"
    },
    {
      "inputs": [],
      "name": "renounceOwnership",
      "outputs": [],
      "stateMutability": "nonpayable",
      "type": "function"
    },
    {
      "inputs": [
        {
          "internalType": "address",
          "name": "_ETHRewards",
          "type": "address"
        }
      ],
      "name": "setETHRewards",
      "outputs": [],
      "stateMutability": "nonpayable",
      "type": "function"
    },
    {
      "inputs": [
        {
          "internalType": "uint256",
          "name": "newEmission",
          "type": "uint256"
        }
      ],
      "name": "setEmission",
      "outputs": [],
      "stateMutability": "nonpayable",
      "type": "function"
    },
    {
      "inputs": [
        {
          "internalType": "address",
          "name": "_Proxy",
          "type": "address"
        }
      ],
      "name": "setProxy",
      "outputs": [],
      "stateMutability": "nonpayable",
      "type": "function"
    },
    {
      "inputs": [
        {
          "internalType": "address",
          "name": "_Team",
          "type": "address"
        }
      ],
      "name": "setTeam",
      "outputs": [],
      "stateMutability": "nonpayable",
      "type": "function"
    },
    {
      "inputs": [
        {
          "internalType": "uint256",
          "name": "_teamBP",
          "type": "uint256"
        }
      ],
      "name": "setTeamBP",
      "outputs": [],
      "stateMutability": "nonpayable",
      "type": "function"
    },
    {
      "inputs": [],
      "name": "teamBP",
      "outputs": [
        {
          "internalType": "uint256",
          "name": "",
          "type": "uint256"
        }
      ],
      "stateMutability": "view",
      "type": "function"
    },
    {
      "inputs": [
        {
          "internalType": "address",
          "name": "newOwner",
          "type": "address"
        }
      ],
      "name": "transferOwnership",
      "outputs": [],
      "stateMutability": "nonpayable",
      "type": "function"
    },
    {
      "stateMutability": "payable",
      "type": "receive"
    }
  ],
  "bytecode": "0x608060405234801561001057600080fd5b50604051611ea4380380611ea4833981810160405260a081101561003357600080fd5b810190808051906020019092919080519060200190929190805190602001909291908051906020019092919080519060200190929190505050600061007c6101f560201b60201c565b9050806000806101000a81548173ffffffffffffffffffffffffffffffffffffffff021916908373ffffffffffffffffffffffffffffffffffffffff1602179055508073ffffffffffffffffffffffffffffffffffffffff16600073ffffffffffffffffffffffffffffffffffffffff167f8be0079c531659141344cd1fd0a4f28419497f9722a3daafe3b4186f6b6457e060405160405180910390a35084600160006101000a81548173ffffffffffffffffffffffffffffffffffffffff021916908373ffffffffffffffffffffffffffffffffffffffff16021790555083600260006101000a81548173ffffffffffffffffffffffffffffffffffffffff021916908373ffffffffffffffffffffffffffffffffffffffff16021790555082600360006101000a81548173ffffffffffffffffffffffffffffffffffffffff021916908373ffffffffffffffffffffffffffffffffffffffff160217905550816004819055508060058190555050505050506101fd565b600033905090565b611c988061020c6000396000f3fe6080604052600436106101235760003560e01c80639e8d48d0116100a0578063ddce102f11610064578063ddce102f1461047c578063e22223d5146104b7578063f2fde38b146104ce578063f756c10a1461051f578063fd782de51461054a5761012a565b80639e8d48d014610351578063a402d83914610392578063ad5c4648146103e3578063c33fb87714610424578063d61212d51461043b5761012a565b8063715018a6116100e7578063715018a614610252578063827c049e146102695780638827c1cd146102945780638da5cb5b146102bf57806397107d6d146103005761012a565b806302767a491461012f578063078126471461015a578063095cf5c6146101955780631df90923146101e6578063639e01dd146102115761012a565b3661012a57005b600080fd5b34801561013b57600080fd5b5061014461058b565b6040518082815260200191505060405180910390f35b34801561016657600080fd5b506101936004803603602081101561017d57600080fd5b8101908080359060200190929190505050610591565b005b3480156101a157600080fd5b506101e4600480360360208110156101b857600080fd5b81019080803573ffffffffffffffffffffffffffffffffffffffff169060200190929190505050610683565b005b3480156101f257600080fd5b506101fb6107e5565b6040518082815260200191505060405180910390f35b34801561021d57600080fd5b506102266108a2565b604051808273ffffffffffffffffffffffffffffffffffffffff16815260200191505060405180910390f35b34801561025e57600080fd5b506102676108c8565b005b34801561027557600080fd5b5061027e610a35565b6040518082815260200191505060405180910390f35b3480156102a057600080fd5b506102a9610a3b565b6040518082815260200191505060405180910390f35b3480156102cb57600080fd5b506102d4610af8565b604051808273ffffffffffffffffffffffffffffffffffffffff16815260200191505060405180910390f35b34801561030c57600080fd5b5061034f6004803603602081101561032357600080fd5b81019080803573ffffffffffffffffffffffffffffffffffffffff169060200190929190505050610b21565b005b34801561035d57600080fd5b50610366610c83565b604051808273ffffffffffffffffffffffffffffffffffffffff16815260200191505060405180910390f35b34801561039e57600080fd5b506103e1600480360360208110156103b557600080fd5b81019080803573ffffffffffffffffffffffffffffffffffffffff169060200190929190505050610c9b565b005b3480156103ef57600080fd5b506103f8610dfd565b604051808273ffffffffffffffffffffffffffffffffffffffff16815260200191505060405180910390f35b34801561043057600080fd5b50610439610e15565b005b34801561044757600080fd5b50610450611233565b604051808273ffffffffffffffffffffffffffffffffffffffff16815260200191505060405180910390f35b34801561048857600080fd5b506104b56004803603602081101561049f57600080fd5b8101908080359060200190929190505050611259565b005b3480156104c357600080fd5b506104cc611349565b005b3480156104da57600080fd5b5061051d600480360360208110156104f157600080fd5b81019080803573ffffffffffffffffffffffffffffffffffffffff169060200190929190505050611440565b005b34801561052b57600080fd5b50610534611632565b6040518082815260200191505060405180910390f35b34801561055657600080fd5b5061055f611638565b604051808273ffffffffffffffffffffffffffffffffffffffff16815260200191505060405180910390f35b60045481565b61059961165e565b73ffffffffffffffffffffffffffffffffffffffff166105b7610af8565b73ffffffffffffffffffffffffffffffffffffffff1614610640576040517f08c379a00000000000000000000000000000000000000000000000000000000081526004018080602001828103825260208152602001807f4f776e61626c653a2063616c6c6572206973206e6f7420746865206f776e657281525060200191505060405180910390fd5b806004819055507fd1faaf1dd58a0a34505600bc08960f84260170f89755c3850ee1493fe21b6cb06004546040518082815260200191505060405180910390a150565b61068b61165e565b73ffffffffffffffffffffffffffffffffffffffff166106a9610af8565b73ffffffffffffffffffffffffffffffffffffffff1614610732576040517f08c379a00000000000000000000000000000000000000000000000000000000081526004018080602001828103825260208152602001807f4f776e61626c653a2063616c6c6572206973206e6f7420746865206f776e657281525060200191505060405180910390fd5b80600360006101000a81548173ffffffffffffffffffffffffffffffffffffffff021916908373ffffffffffffffffffffffffffffffffffffffff1602179055507f6123f717363f8c044cbe4fa59229536a58de97552d1ba6ba8ad4d347e836da54600360009054906101000a900473ffffffffffffffffffffffffffffffffffffffff16604051808273ffffffffffffffffffffffffffffffffffffffff16815260200191505060405180910390a150565b6000734117c0c65411c90fa399a223f8b4197d34c36bac73ffffffffffffffffffffffffffffffffffffffff166370a08231306040518263ffffffff1660e01b8152600401808273ffffffffffffffffffffffffffffffffffffffff16815260200191505060206040518083038186803b15801561086257600080fd5b505afa158015610876573d6000803e3d6000fd5b505050506040513d602081101561088c57600080fd5b8101908080519060200190929190505050905090565b600360009054906101000a900473ffffffffffffffffffffffffffffffffffffffff1681565b6108d061165e565b73ffffffffffffffffffffffffffffffffffffffff166108ee610af8565b73ffffffffffffffffffffffffffffffffffffffff1614610977576040517f08c379a00000000000000000000000000000000000000000000000000000000081526004018080602001828103825260208152602001807f4f776e61626c653a2063616c6c6572206973206e6f7420746865206f776e657281525060200191505060405180910390fd5b600073ffffffffffffffffffffffffffffffffffffffff1660008054906101000a900473ffffffffffffffffffffffffffffffffffffffff1673ffffffffffffffffffffffffffffffffffffffff167f8be0079c531659141344cd1fd0a4f28419497f9722a3daafe3b4186f6b6457e060405160405180910390a360008060006101000a81548173ffffffffffffffffffffffffffffffffffffffff021916908373ffffffffffffffffffffffffffffffffffffffff160217905550565b60055481565b600073c778417e063141139fce010982780140aa0cd5ab73ffffffffffffffffffffffffffffffffffffffff166370a08231306040518263ffffffff1660e01b8152600401808273ffffffffffffffffffffffffffffffffffffffff16815260200191505060206040518083038186803b158015610ab857600080fd5b505afa158015610acc573d6000803e3d6000fd5b505050506040513d6020811015610ae257600080fd5b8101908080519060200190929190505050905090565b60008060009054906101000a900473ffffffffffffffffffffffffffffffffffffffff16905090565b610b2961165e565b73ffffffffffffffffffffffffffffffffffffffff16610b47610af8565b73ffffffffffffffffffffffffffffffffffffffff1614610bd0576040517f08c379a00000000000000000000000000000000000000000000000000000000081526004018080602001828103825260208152602001807f4f776e61626c653a2063616c6c6572206973206e6f7420746865206f776e657281525060200191505060405180910390fd5b80600260006101000a81548173ffffffffffffffffffffffffffffffffffffffff021916908373ffffffffffffffffffffffffffffffffffffffff1602179055507ffc80377ca9c49cc11ae6982f390a42db976d5530af7c43889264b13fbbd7c57e600260009054906101000a900473ffffffffffffffffffffffffffffffffffffffff16604051808273ffffffffffffffffffffffffffffffffffffffff16815260200191505060405180910390a150565b734117c0c65411c90fa399a223f8b4197d34c36bac81565b610ca361165e565b73ffffffffffffffffffffffffffffffffffffffff16610cc1610af8565b73ffffffffffffffffffffffffffffffffffffffff1614610d4a576040517f08c379a00000000000000000000000000000000000000000000000000000000081526004018080602001828103825260208152602001807f4f776e61626c653a2063616c6c6572206973206e6f7420746865206f776e657281525060200191505060405180910390fd5b80600160006101000a81548173ffffffffffffffffffffffffffffffffffffffff021916908373ffffffffffffffffffffffffffffffffffffffff1602179055507fa75c0c01b5205f052ac00974347777b766154220297d4368e244d47d00dd7208600160009054906101000a900473ffffffffffffffffffffffffffffffffffffffff16604051808273ffffffffffffffffffffffffffffffffffffffff16815260200191505060405180910390a150565b73c778417e063141139fce010982780140aa0cd5ab81565b600260009054906101000a900473ffffffffffffffffffffffffffffffffffffffff1673ffffffffffffffffffffffffffffffffffffffff163373ffffffffffffffffffffffffffffffffffffffff1614610ebb576040517f08c379a0000000000000000000000000000000000000000000000000000000008152600401808060200182810382526025815260200180611bf36025913960400191505060405180910390fd5b60004790506000811115610f3f5773c778417e063141139fce010982780140aa0cd5ab73ffffffffffffffffffffffffffffffffffffffff1663d0e30db0826040518263ffffffff1660e01b81526004016000604051808303818588803b158015610f2557600080fd5b505af1158015610f39573d6000803e3d6000fd5b50505050505b6000610f49610a3b565b90506000610f76612710610f686004548561166690919063ffffffff16565b6116ec90919063ffffffff16565b9050610fd9600360009054906101000a900473ffffffffffffffffffffffffffffffffffffffff168273c778417e063141139fce010982780140aa0cd5ab73ffffffffffffffffffffffffffffffffffffffff166117759092919063ffffffff16565b6000610fe3610a3b565b9050611046600160009054906101000a900473ffffffffffffffffffffffffffffffffffffffff168273c778417e063141139fce010982780140aa0cd5ab73ffffffffffffffffffffffffffffffffffffffff166117759092919063ffffffff16565b600160009054906101000a900473ffffffffffffffffffffffffffffffffffffffff1673ffffffffffffffffffffffffffffffffffffffff16633c6b16ab826040518263ffffffff1660e01b815260040180828152602001915050600060405180830381600087803b1580156110bb57600080fd5b505af11580156110cf573d6000803e3d6000fd5b5050505060006110dd6107e5565b9050600060055482106110f2576005546110f4565b815b9050734117c0c65411c90fa399a223f8b4197d34c36bac73ffffffffffffffffffffffffffffffffffffffff16639a8baedf826040518263ffffffff1660e01b815260040180828152602001915050600060405180830381600087803b15801561115d57600080fd5b505af1158015611171573d6000803e3d6000fd5b50505050734117c0c65411c90fa399a223f8b4197d34c36bac73ffffffffffffffffffffffffffffffffffffffff16639e048952826040518263ffffffff1660e01b815260040180828152602001915050600060405180830381600087803b1580156111dc57600080fd5b505af11580156111f0573d6000803e3d6000fd5b505050507fcbb46d9b69e77a6b5011c11cd2bf9be0461c9a1920e9f42678661cec154cd2a8816040518082815260200191505060405180910390a1505050505050565b600160009054906101000a900473ffffffffffffffffffffffffffffffffffffffff1681565b61126161165e565b73ffffffffffffffffffffffffffffffffffffffff1661127f610af8565b73ffffffffffffffffffffffffffffffffffffffff1614611308576040517f08c379a00000000000000000000000000000000000000000000000000000000081526004018080602001828103825260208152602001807f4f776e61626c653a2063616c6c6572206973206e6f7420746865206f776e657281525060200191505060405180910390fd5b806005819055507fb114240d54ce08081cbd18870dc3b6cd4091bb86ff29d2ad41906c2a2d6723d4816040518082815260200191505060405180910390a150565b61135161165e565b73ffffffffffffffffffffffffffffffffffffffff1661136f610af8565b73ffffffffffffffffffffffffffffffffffffffff16146113f8576040517f08c379a00000000000000000000000000000000000000000000000000000000081526004018080602001828103825260208152602001807f4f776e61626c653a2063616c6c6572206973206e6f7420746865206f776e657281525060200191505060405180910390fd5b61143e336114046107e5565b734117c0c65411c90fa399a223f8b4197d34c36bac73ffffffffffffffffffffffffffffffffffffffff166117759092919063ffffffff16565b565b61144861165e565b73ffffffffffffffffffffffffffffffffffffffff16611466610af8565b73ffffffffffffffffffffffffffffffffffffffff16146114ef576040517f08c379a00000000000000000000000000000000000000000000000000000000081526004018080602001828103825260208152602001807f4f776e61626c653a2063616c6c6572206973206e6f7420746865206f776e657281525060200191505060405180910390fd5b600073ffffffffffffffffffffffffffffffffffffffff168173ffffffffffffffffffffffffffffffffffffffff161415611575576040517f08c379a0000000000000000000000000000000000000000000000000000000008152600401808060200182810382526026815260200180611ba76026913960400191505060405180910390fd5b8073ffffffffffffffffffffffffffffffffffffffff1660008054906101000a900473ffffffffffffffffffffffffffffffffffffffff1673ffffffffffffffffffffffffffffffffffffffff167f8be0079c531659141344cd1fd0a4f28419497f9722a3daafe3b4186f6b6457e060405160405180910390a3806000806101000a81548173ffffffffffffffffffffffffffffffffffffffff021916908373ffffffffffffffffffffffffffffffffffffffff16021790555050565b61271081565b600260009054906101000a900473ffffffffffffffffffffffffffffffffffffffff1681565b600033905090565b60008083141561167957600090506116e6565b600082840290508284828161168a57fe5b04146116e1576040517f08c379a0000000000000000000000000000000000000000000000000000000008152600401808060200182810382526021815260200180611c186021913960400191505060405180910390fd5b809150505b92915050565b6000808211611763576040517f08c379a000000000000000000000000000000000000000000000000000000000815260040180806020018281038252601a8152602001807f536166654d6174683a206469766973696f6e206279207a65726f00000000000081525060200191505060405180910390fd5b81838161176c57fe5b04905092915050565b6118128363a9059cbb60e01b8484604051602401808373ffffffffffffffffffffffffffffffffffffffff16815260200182815260200192505050604051602081830303815290604052907bffffffffffffffffffffffffffffffffffffffffffffffffffffffff19166020820180517bffffffffffffffffffffffffffffffffffffffffffffffffffffffff8381831617835250505050611817565b505050565b6060611879826040518060400160405280602081526020017f5361666545524332303a206c6f772d6c6576656c2063616c6c206661696c65648152508573ffffffffffffffffffffffffffffffffffffffff166119069092919063ffffffff16565b90506000815111156119015780806020019051602081101561189a57600080fd5b8101908080519060200190929190505050611900576040517f08c379a000000000000000000000000000000000000000000000000000000000815260040180806020018281038252602a815260200180611c39602a913960400191505060405180910390fd5b5b505050565b6060611915848460008561191e565b90509392505050565b606082471015611979576040517f08c379a0000000000000000000000000000000000000000000000000000000008152600401808060200182810382526026815260200180611bcd6026913960400191505060405180910390fd5b61198285611ac7565b6119f4576040517f08c379a000000000000000000000000000000000000000000000000000000000815260040180806020018281038252601d8152602001807f416464726573733a2063616c6c20746f206e6f6e2d636f6e747261637400000081525060200191505060405180910390fd5b600060608673ffffffffffffffffffffffffffffffffffffffff1685876040518082805190602001908083835b60208310611a445780518252602082019150602081019050602083039250611a21565b6001836020036101000a03801982511681845116808217855250505050505090500191505060006040518083038185875af1925050503d8060008114611aa6576040519150601f19603f3d011682016040523d82523d6000602084013e611aab565b606091505b5091509150611abb828286611ada565b92505050949350505050565b600080823b905060008111915050919050565b60608315611aea57829050611b9f565b600083511115611afd5782518084602001fd5b816040517f08c379a00000000000000000000000000000000000000000000000000000000081526004018080602001828103825283818151815260200191508051906020019080838360005b83811015611b64578082015181840152602081019050611b49565b50505050905090810190601f168015611b915780820380516001836020036101000a031916815260200191505b509250505060405180910390fd5b939250505056fe4f776e61626c653a206e6577206f776e657220697320746865207a65726f2061646472657373416464726573733a20696e73756666696369656e742062616c616e636520666f722063616c6c50726f636573736f7256353a2043616c6c6572206d757374206265207468652050726f7879536166654d6174683a206d756c7469706c69636174696f6e206f766572666c6f775361666545524332303a204552433230206f7065726174696f6e20646964206e6f742073756363656564a26469706673582212205c63e451b0a198201b0dbf2f8041abc1b565a9a17a800ca76ab9a9bb6a6e5bc164736f6c634300060c0033",
  "linkReferences": {},
  "deployedLinkReferences": {}
}